{
  "_format": "hh-sol-artifact-1",
  "contractName": "MyGovernor",
  "sourceName": "contracts/Governance.sol",
  "abi": [
    {
      "inputs": [
        {
          "internalType": "contract IVotes",
          "name": "token",
          "type": "address"
        },
        {
          "internalType": "uint256",
          "name": "initQuorumPercent",
          "type": "uint256"
        },
        {
          "internalType": "uint256",
          "name": "initVotingDelay",
          "type": "uint256"
        },
        {
          "internalType": "uint256",
          "name": "initVotingPeriod",
          "type": "uint256"
        },
        {
          "internalType": "uint256",
          "name": "initProposalThreshold",
          "type": "uint256"
        }
      ],
      "stateMutability": "nonpayable",
      "type": "constructor"
    },
    {
      "anonymous": false,
      "inputs": [
        {
          "indexed": false,
          "internalType": "uint256",
          "name": "proposalId",
          "type": "uint256"
        }
      ],
      "name": "ProposalCanceled",
      "type": "event"
    },
    {
      "anonymous": false,
      "inputs": [
        {
          "indexed": false,
          "internalType": "uint256",
          "name": "proposalId",
          "type": "uint256"
        },
        {
          "indexed": false,
          "internalType": "address",
          "name": "proposer",
          "type": "address"
        },
        {
          "indexed": false,
          "internalType": "address[]",
          "name": "targets",
          "type": "address[]"
        },
        {
          "indexed": false,
          "internalType": "uint256[]",
          "name": "values",
          "type": "uint256[]"
        },
        {
          "indexed": false,
          "internalType": "string[]",
          "name": "signatures",
          "type": "string[]"
        },
        {
          "indexed": false,
          "internalType": "bytes[]",
          "name": "calldatas",
          "type": "bytes[]"
        },
        {
          "indexed": false,
          "internalType": "uint256",
          "name": "startBlock",
          "type": "uint256"
        },
        {
          "indexed": false,
          "internalType": "uint256",
          "name": "endBlock",
          "type": "uint256"
        },
        {
          "indexed": false,
          "internalType": "string",
          "name": "description",
          "type": "string"
        }
      ],
      "name": "ProposalCreated",
      "type": "event"
    },
    {
      "anonymous": false,
      "inputs": [
        {
          "indexed": false,
          "internalType": "uint256",
          "name": "proposalId",
          "type": "uint256"
        }
      ],
      "name": "ProposalExecuted",
      "type": "event"
    },
    {
      "anonymous": false,
      "inputs": [
        {
          "indexed": false,
          "internalType": "uint256",
          "name": "oldProposalThreshold",
          "type": "uint256"
        },
        {
          "indexed": false,
          "internalType": "uint256",
          "name": "newProposalThreshold",
          "type": "uint256"
        }
      ],
      "name": "ProposalThresholdSet",
      "type": "event"
    },
    {
      "anonymous": false,
      "inputs": [
        {
          "indexed": false,
          "internalType": "uint256",
          "name": "oldQuorumNumerator",
          "type": "uint256"
        },
        {
          "indexed": false,
          "internalType": "uint256",
          "name": "newQuorumNumerator",
          "type": "uint256"
        }
      ],
      "name": "QuorumNumeratorUpdated",
      "type": "event"
    },
    {
      "anonymous": false,
      "inputs": [
        {
          "indexed": true,
          "internalType": "address",
          "name": "voter",
          "type": "address"
        },
        {
          "indexed": false,
          "internalType": "uint256",
          "name": "proposalId",
          "type": "uint256"
        },
        {
          "indexed": false,
          "internalType": "uint8",
          "name": "support",
          "type": "uint8"
        },
        {
          "indexed": false,
          "internalType": "uint256",
          "name": "weight",
          "type": "uint256"
        },
        {
          "indexed": false,
          "internalType": "string",
          "name": "reason",
          "type": "string"
        }
      ],
      "name": "VoteCast",
      "type": "event"
    },
    {
      "anonymous": false,
      "inputs": [
        {
          "indexed": false,
          "internalType": "uint256",
          "name": "oldVotingDelay",
          "type": "uint256"
        },
        {
          "indexed": false,
          "internalType": "uint256",
          "name": "newVotingDelay",
          "type": "uint256"
        }
      ],
      "name": "VotingDelaySet",
      "type": "event"
    },
    {
      "anonymous": false,
      "inputs": [
        {
          "indexed": false,
          "internalType": "uint256",
          "name": "oldVotingPeriod",
          "type": "uint256"
        },
        {
          "indexed": false,
          "internalType": "uint256",
          "name": "newVotingPeriod",
          "type": "uint256"
        }
      ],
      "name": "VotingPeriodSet",
      "type": "event"
    },
    {
      "inputs": [],
      "name": "BALLOT_TYPEHASH",
      "outputs": [
        {
          "internalType": "bytes32",
          "name": "",
          "type": "bytes32"
        }
      ],
      "stateMutability": "view",
      "type": "function"
    },
    {
      "inputs": [],
      "name": "COUNTING_MODE",
      "outputs": [
        {
          "internalType": "string",
          "name": "",
          "type": "string"
        }
      ],
      "stateMutability": "pure",
      "type": "function"
    },
    {
      "inputs": [
        {
          "internalType": "uint256",
          "name": "proposalId",
          "type": "uint256"
        },
        {
          "internalType": "uint8",
          "name": "support",
          "type": "uint8"
        }
      ],
      "name": "castVote",
      "outputs": [
        {
          "internalType": "uint256",
          "name": "",
          "type": "uint256"
        }
      ],
      "stateMutability": "nonpayable",
      "type": "function"
    },
    {
      "inputs": [
        {
          "internalType": "uint256",
          "name": "proposalId",
          "type": "uint256"
        },
        {
          "internalType": "uint8",
          "name": "support",
          "type": "uint8"
        },
        {
          "internalType": "uint8",
          "name": "v",
          "type": "uint8"
        },
        {
          "internalType": "bytes32",
          "name": "r",
          "type": "bytes32"
        },
        {
          "internalType": "bytes32",
          "name": "s",
          "type": "bytes32"
        }
      ],
      "name": "castVoteBySig",
      "outputs": [
        {
          "internalType": "uint256",
          "name": "",
          "type": "uint256"
        }
      ],
      "stateMutability": "nonpayable",
      "type": "function"
    },
    {
      "inputs": [
        {
          "internalType": "uint256",
          "name": "proposalId",
          "type": "uint256"
        },
        {
          "internalType": "uint8",
          "name": "support",
          "type": "uint8"
        },
        {
          "internalType": "string",
          "name": "reason",
          "type": "string"
        }
      ],
      "name": "castVoteWithReason",
      "outputs": [
        {
          "internalType": "uint256",
          "name": "",
          "type": "uint256"
        }
      ],
      "stateMutability": "nonpayable",
      "type": "function"
    },
    {
      "inputs": [
        {
          "internalType": "address[]",
          "name": "targets",
          "type": "address[]"
        },
        {
          "internalType": "uint256[]",
          "name": "values",
          "type": "uint256[]"
        },
        {
          "internalType": "bytes[]",
          "name": "calldatas",
          "type": "bytes[]"
        },
        {
          "internalType": "bytes32",
          "name": "descriptionHash",
          "type": "bytes32"
        }
      ],
      "name": "execute",
      "outputs": [
        {
          "internalType": "uint256",
          "name": "",
          "type": "uint256"
        }
      ],
      "stateMutability": "payable",
      "type": "function"
    },
    {
      "inputs": [
        {
          "internalType": "address",
          "name": "account",
          "type": "address"
        },
        {
          "internalType": "uint256",
          "name": "blockNumber",
          "type": "uint256"
        }
      ],
      "name": "getVotes",
      "outputs": [
        {
          "internalType": "uint256",
          "name": "",
          "type": "uint256"
        }
      ],
      "stateMutability": "view",
      "type": "function"
    },
    {
      "inputs": [
        {
          "internalType": "uint256",
          "name": "proposalId",
          "type": "uint256"
        },
        {
          "internalType": "address",
          "name": "account",
          "type": "address"
        }
      ],
      "name": "hasVoted",
      "outputs": [
        {
          "internalType": "bool",
          "name": "",
          "type": "bool"
        }
      ],
      "stateMutability": "view",
      "type": "function"
    },
    {
      "inputs": [
        {
          "internalType": "address[]",
          "name": "targets",
          "type": "address[]"
        },
        {
          "internalType": "uint256[]",
          "name": "values",
          "type": "uint256[]"
        },
        {
          "internalType": "bytes[]",
          "name": "calldatas",
          "type": "bytes[]"
        },
        {
          "internalType": "bytes32",
          "name": "descriptionHash",
          "type": "bytes32"
        }
      ],
      "name": "hashProposal",
      "outputs": [
        {
          "internalType": "uint256",
          "name": "",
          "type": "uint256"
        }
      ],
      "stateMutability": "pure",
      "type": "function"
    },
    {
      "inputs": [],
      "name": "name",
      "outputs": [
        {
          "internalType": "string",
          "name": "",
          "type": "string"
        }
      ],
      "stateMutability": "view",
      "type": "function"
    },
    {
      "inputs": [
        {
          "internalType": "uint256",
          "name": "proposalId",
          "type": "uint256"
        }
      ],
      "name": "proposalDeadline",
      "outputs": [
        {
          "internalType": "uint256",
          "name": "",
          "type": "uint256"
        }
      ],
      "stateMutability": "view",
      "type": "function"
    },
    {
      "inputs": [
        {
          "internalType": "uint256",
          "name": "proposalId",
          "type": "uint256"
        }
      ],
      "name": "proposalSnapshot",
      "outputs": [
        {
          "internalType": "uint256",
          "name": "",
          "type": "uint256"
        }
      ],
      "stateMutability": "view",
      "type": "function"
    },
    {
      "inputs": [],
      "name": "proposalThreshold",
      "outputs": [
        {
          "internalType": "uint256",
          "name": "",
          "type": "uint256"
        }
      ],
      "stateMutability": "view",
      "type": "function"
    },
    {
      "inputs": [
        {
          "internalType": "uint256",
          "name": "proposalId",
          "type": "uint256"
        }
      ],
      "name": "proposalVotes",
      "outputs": [
        {
          "internalType": "uint256",
          "name": "againstVotes",
          "type": "uint256"
        },
        {
          "internalType": "uint256",
          "name": "forVotes",
          "type": "uint256"
        },
        {
          "internalType": "uint256",
          "name": "abstainVotes",
          "type": "uint256"
        }
      ],
      "stateMutability": "view",
      "type": "function"
    },
    {
      "inputs": [
        {
          "internalType": "address[]",
          "name": "targets",
          "type": "address[]"
        },
        {
          "internalType": "uint256[]",
          "name": "values",
          "type": "uint256[]"
        },
        {
          "internalType": "bytes[]",
          "name": "calldatas",
          "type": "bytes[]"
        },
        {
          "internalType": "string",
          "name": "description",
          "type": "string"
        }
      ],
      "name": "propose",
      "outputs": [
        {
          "internalType": "uint256",
          "name": "",
          "type": "uint256"
        }
      ],
      "stateMutability": "nonpayable",
      "type": "function"
    },
    {
      "inputs": [
        {
          "internalType": "uint256",
          "name": "blockNumber",
          "type": "uint256"
        }
      ],
      "name": "quorum",
      "outputs": [
        {
          "internalType": "uint256",
          "name": "",
          "type": "uint256"
        }
      ],
      "stateMutability": "view",
      "type": "function"
    },
    {
      "inputs": [],
      "name": "quorumDenominator",
      "outputs": [
        {
          "internalType": "uint256",
          "name": "",
          "type": "uint256"
        }
      ],
      "stateMutability": "view",
      "type": "function"
    },
    {
      "inputs": [],
      "name": "quorumNumerator",
      "outputs": [
        {
          "internalType": "uint256",
          "name": "",
          "type": "uint256"
        }
      ],
      "stateMutability": "view",
      "type": "function"
    },
    {
      "inputs": [
        {
          "internalType": "address",
          "name": "target",
          "type": "address"
        },
        {
          "internalType": "uint256",
          "name": "value",
          "type": "uint256"
        },
        {
          "internalType": "bytes",
          "name": "data",
          "type": "bytes"
        }
      ],
      "name": "relay",
      "outputs": [],
      "stateMutability": "nonpayable",
      "type": "function"
    },
    {
      "inputs": [
        {
          "internalType": "uint256",
          "name": "newProposalThreshold",
          "type": "uint256"
        }
      ],
      "name": "setProposalThreshold",
      "outputs": [],
      "stateMutability": "nonpayable",
      "type": "function"
    },
    {
      "inputs": [
        {
          "internalType": "uint256",
          "name": "newVotingDelay",
          "type": "uint256"
        }
      ],
      "name": "setVotingDelay",
      "outputs": [],
      "stateMutability": "nonpayable",
      "type": "function"
    },
    {
      "inputs": [
        {
          "internalType": "uint256",
          "name": "newVotingPeriod",
          "type": "uint256"
        }
      ],
      "name": "setVotingPeriod",
      "outputs": [],
      "stateMutability": "nonpayable",
      "type": "function"
    },
    {
      "inputs": [
        {
          "internalType": "uint256",
          "name": "proposalId",
          "type": "uint256"
        }
      ],
      "name": "state",
      "outputs": [
        {
          "internalType": "enum IGovernor.ProposalState",
          "name": "",
          "type": "uint8"
        }
      ],
      "stateMutability": "view",
      "type": "function"
    },
    {
      "inputs": [
        {
          "internalType": "bytes4",
          "name": "interfaceId",
          "type": "bytes4"
        }
      ],
      "name": "supportsInterface",
      "outputs": [
        {
          "internalType": "bool",
          "name": "",
          "type": "bool"
        }
      ],
      "stateMutability": "view",
      "type": "function"
    },
    {
      "inputs": [],
      "name": "token",
      "outputs": [
        {
          "internalType": "contract IVotes",
          "name": "",
          "type": "address"
        }
      ],
      "stateMutability": "view",
      "type": "function"
    },
    {
      "inputs": [
        {
          "internalType": "uint256",
          "name": "newQuorumNumerator",
          "type": "uint256"
        }
      ],
      "name": "updateQuorumNumerator",
      "outputs": [],
      "stateMutability": "nonpayable",
      "type": "function"
    },
    {
      "inputs": [],
      "name": "version",
      "outputs": [
        {
          "internalType": "string",
          "name": "",
          "type": "string"
        }
      ],
      "stateMutability": "view",
      "type": "function"
    },
    {
      "inputs": [],
      "name": "votingDelay",
      "outputs": [
        {
          "internalType": "uint256",
          "name": "",
          "type": "uint256"
        }
      ],
      "stateMutability": "view",
      "type": "function"
    },
    {
      "inputs": [],
      "name": "votingPeriod",
      "outputs": [
        {
          "internalType": "uint256",
          "name": "",
          "type": "uint256"
        }
      ],
      "stateMutability": "view",
      "type": "function"
    },
    {
      "stateMutability": "payable",
      "type": "receive"
    }
  ],
  "bytecode": "0x6101606040523480156200001257600080fd5b506040516200525d3803806200525d8339818101604052810190620000389190620004fc565b83858484846040518060400160405280600a81526020017f4d79476f7665726e6f72000000000000000000000000000000000000000000008152508062000084620001df60201b60201c565b60008280519060200120905060008280519060200120905060007f8b73c3c69bb8fe3d512ecc4cf759cc79239f7b179b0ffacaa9a75d522b39400f90508260e081815250508161010081815250504660a08181525050620000ed8184846200021c60201b60201c565b608081815250503073ffffffffffffffffffffffffffffffffffffffff1660c08173ffffffffffffffffffffffffffffffffffffffff1660601b8152505080610120818152505050505050508060009080519060200190620001519291906200041e565b505062000164836200025860201b60201c565b62000175826200029f60201b60201c565b62000186816200032c60201b60201c565b5050508073ffffffffffffffffffffffffffffffffffffffff166101408173ffffffffffffffffffffffffffffffffffffffff1660601b8152505050620001d3816200037360201b60201c565b50505050505062000897565b60606040518060400160405280600181526020017f3100000000000000000000000000000000000000000000000000000000000000815250905090565b6000838383463060405160200162000239959493929190620005ff565b6040516020818303038152906040528051906020012090509392505050565b7fc565b045403dc03c2eea82b81a0465edad9e2e7fc4d97e11421c209da93d7a93600254826040516200028d929190620006a0565b60405180910390a18060028190555050565b60008111620002e5576040517f08c379a0000000000000000000000000000000000000000000000000000000008152600401620002dc906200067e565b60405180910390fd5b7f7e3f7f0708a84de9203036abaa450dccc85ad5ff52f78c170f3edb55cf5e8828600354826040516200031a929190620006a0565b60405180910390a18060038190555050565b7fccb45da8d5717e6c4544694297c4ba5cf151d455c9bb0ed4fc7a38411bc054616004548260405162000361929190620006a0565b60405180910390a18060048190555050565b620003836200041560201b60201c565b811115620003c8576040517f08c379a0000000000000000000000000000000000000000000000000000000008152600401620003bf906200065c565b60405180910390fd5b60006006549050816006819055507f0553476bf02ef2726e8ce5ced78d63e26e602e4a2257b1f559418e24b4633997818360405162000409929190620006a0565b60405180910390a15050565b60006064905090565b8280546200042c906200073a565b90600052602060002090601f0160209004810192826200045057600085556200049c565b82601f106200046b57805160ff19168380011785556200049c565b828001600101855582156200049c579182015b828111156200049b5782518255916020019190600101906200047e565b5b509050620004ab9190620004af565b5090565b5b80821115620004ca576000816000905550600101620004b0565b5090565b600081519050620004df8162000863565b92915050565b600081519050620004f6816200087d565b92915050565b600080600080600060a086880312156200051557600080fd5b60006200052588828901620004ce565b95505060206200053888828901620004e5565b94505060406200054b88828901620004e5565b93505060606200055e88828901620004e5565b92505060806200057188828901620004e5565b9150509295509295909350565b6200058981620006de565b82525050565b6200059a81620006f2565b82525050565b6000620005af604383620006cd565b9150620005bc826200079f565b606082019050919050565b6000620005d6602783620006cd565b9150620005e38262000814565b604082019050919050565b620005f98162000730565b82525050565b600060a0820190506200061660008301886200058f565b6200062560208301876200058f565b6200063460408301866200058f565b620006436060830185620005ee565b6200065260808301846200057e565b9695505050505050565b600060208201905081810360008301526200067781620005a0565b9050919050565b600060208201905081810360008301526200069981620005c7565b9050919050565b6000604082019050620006b76000830185620005ee565b620006c66020830184620005ee565b9392505050565b600082825260208201905092915050565b6000620006eb8262000710565b9050919050565b6000819050919050565b60006200070982620006de565b9050919050565b600073ffffffffffffffffffffffffffffffffffffffff82169050919050565b6000819050919050565b600060028204905060018216806200075357607f821691505b602082108114156200076a576200076962000770565b5b50919050565b7f4e487b7100000000000000000000000000000000000000000000000000000000600052602260045260246000fd5b7f476f7665726e6f72566f74657351756f72756d4672616374696f6e3a2071756f60008201527f72756d4e756d657261746f72206f7665722071756f72756d44656e6f6d696e6160208201527f746f720000000000000000000000000000000000000000000000000000000000604082015250565b7f476f7665726e6f7253657474696e67733a20766f74696e6720706572696f642060008201527f746f6f206c6f7700000000000000000000000000000000000000000000000000602082015250565b6200086e81620006fc565b81146200087a57600080fd5b50565b620008888162000730565b81146200089457600080fd5b50565b60805160a05160c05160601c60e05161010051610120516101405160601c61495762000906600039600081816115c701528181611c940152611d9e01526000611f7501526000611fb701526000611f9601526000611ecb01526000611f2101526000611f4a01526149576000f3fe6080604052600436106101c65760003560e01c80637b3c71d3116100f7578063c59057e411610095578063eb9019d411610064578063eb9019d414610709578063ece40cc114610746578063f8ce560a1461076f578063fc0c546a146107ac5761020c565b8063c59057e41461064d578063dd4e2ba51461068a578063deaaa7cc146106b5578063ea0217cf146106e05761020c565b8063a7713a70116100d1578063a7713a7014610591578063b58131b0146105bc578063c01f9e37146105e7578063c28bc2fa146106245761020c565b80637b3c71d3146104ec5780637d5e81e21461052957806397c3d334146105665761020c565b80633bccf4fd11610164578063544ffc9c1161013e578063544ffc9c1461041c57806354fd4d501461045b578063567813881461048657806370b0f660146104c35761020c565b80633bccf4fd146103655780633e4f49e6146103a257806343859632146103df5761020c565b806306fdde03116101a057806306fdde03146102a25780632656227d146102cd5780632d63f693146102fd5780633932abb11461033a5761020c565b806301ffc9a71461021157806302a251a31461024e57806306f3f9e6146102795761020c565b3661020c573073ffffffffffffffffffffffffffffffffffffffff166101ea6107d7565b73ffffffffffffffffffffffffffffffffffffffff161461020a57600080fd5b005b600080fd5b34801561021d57600080fd5b5061023860048036038101906102339190612e2f565b6107df565b6040516102459190613719565b60405180910390f35b34801561025a57600080fd5b50610263610859565b6040516102709190613ad6565b60405180910390f35b34801561028557600080fd5b506102a0600480360381019061029b9190612e58565b610868565b005b3480156102ae57600080fd5b506102b76108f0565b6040516102c49190613854565b60405180910390f35b6102e760048036038101906102e29190612cc1565b610982565b6040516102f49190613ad6565b60405180910390f35b34801561030957600080fd5b50610324600480360381019061031f9190612e58565b610b4d565b6040516103319190613ad6565b60405180910390f35b34801561034657600080fd5b5061034f610bbb565b60405161035c9190613ad6565b60405180910390f35b34801561037157600080fd5b5061038c60048036038101906103879190612f8e565b610bca565b6040516103999190613ad6565b60405180910390f35b3480156103ae57600080fd5b506103c960048036038101906103c49190612e58565b610c54565b6040516103d69190613839565b60405180910390f35b3480156103eb57600080fd5b5061040660048036038101906104019190612eaa565b610d69565b6040516104139190613719565b60405180910390f35b34801561042857600080fd5b50610443600480360381019061043e9190612e58565b610dd4565b60405161045293929190613bca565b60405180910390f35b34801561046757600080fd5b50610470610e0c565b60405161047d9190613854565b60405180910390f35b34801561049257600080fd5b506104ad60048036038101906104a89190612ee6565b610e49565b6040516104ba9190613ad6565b60405180910390f35b3480156104cf57600080fd5b506104ea60048036038101906104e59190612e58565b610e7a565b005b3480156104f857600080fd5b50610513600480360381019061050e9190612f22565b610f02565b6040516105209190613ad6565b60405180910390f35b34801561053557600080fd5b50610550600480360381019061054b9190612d6c565b610f6a565b60405161055d9190613ad6565b60405180910390f35b34801561057257600080fd5b5061057b611290565b6040516105889190613ad6565b60405180910390f35b34801561059d57600080fd5b506105a6611299565b6040516105b39190613ad6565b60405180910390f35b3480156105c857600080fd5b506105d16112a3565b6040516105de9190613ad6565b60405180910390f35b3480156105f357600080fd5b5061060e60048036038101906106099190612e58565b6112b2565b60405161061b9190613ad6565b60405180910390f35b34801561063057600080fd5b5061064b60048036038101906106469190612c55565b611320565b005b34801561065957600080fd5b50610674600480360381019061066f9190612cc1565b6113f2565b6040516106819190613ad6565b60405180910390f35b34801561069657600080fd5b5061069f61142e565b6040516106ac9190613854565b60405180910390f35b3480156106c157600080fd5b506106ca61146b565b6040516106d79190613734565b60405180910390f35b3480156106ec57600080fd5b5061070760048036038101906107029190612e58565b61148f565b005b34801561071557600080fd5b50610730600480360381019061072b9190612c19565b611517565b60405161073d9190613ad6565b60405180910390f35b34801561075257600080fd5b5061076d60048036038101906107689190612e58565b61152b565b005b34801561077b57600080fd5b5061079660048036038101906107919190612e58565b6115b3565b6040516107a39190613ad6565b60405180910390f35b3480156107b857600080fd5b506107c16115c5565b6040516107ce919061381e565b60405180910390f35b600030905090565b60007fbf26d897000000000000000000000000000000000000000000000000000000007bffffffffffffffffffffffffffffffffffffffffffffffffffffffff1916827bffffffffffffffffffffffffffffffffffffffffffffffffffffffff191614806108525750610851826115e9565b5b9050919050565b6000610863611653565b905090565b6108706107d7565b73ffffffffffffffffffffffffffffffffffffffff1661088e61165d565b73ffffffffffffffffffffffffffffffffffffffff16146108e4576040517f08c379a00000000000000000000000000000000000000000000000000000000081526004016108db90613896565b60405180910390fd5b6108ed81611665565b50565b6060600080546108ff9061412a565b80601f016020809104026020016040519081016040528092919081815260200182805461092b9061412a565b80156109785780601f1061094d57610100808354040283529160200191610978565b820191906000526020600020905b81548152906001019060200180831161095b57829003601f168201915b5050505050905090565b600080610991868686866113f2565b9050600061099e82610c54565b9050600460078111156109da577f4e487b7100000000000000000000000000000000000000000000000000000000600052602160045260246000fd5b816007811115610a13577f4e487b7100000000000000000000000000000000000000000000000000000000600052602160045260246000fd5b1480610a8f575060056007811115610a54577f4e487b7100000000000000000000000000000000000000000000000000000000600052602160045260246000fd5b816007811115610a8d577f4e487b7100000000000000000000000000000000000000000000000000000000600052602160045260246000fd5b145b610ace576040517f08c379a0000000000000000000000000000000000000000000000000000000008152600401610ac590613a36565b60405180910390fd5b600180600084815260200190815260200160002060020160006101000a81548160ff0219169083151502179055507f712ae1383f79ac853f8d882153778e0260ef8f03b504e2866e0593e04d2b291f82604051610b2b9190613ad6565b60405180910390a1610b4082888888886116fa565b8192505050949350505050565b6000610baa600160008481526020019081526020016000206000016040518060200160405290816000820160009054906101000a900467ffffffffffffffff1667ffffffffffffffff1667ffffffffffffffff168152505061187b565b67ffffffffffffffff169050919050565b6000610bc5611889565b905090565b600080610c2b610c237f150214d74d59b7d1e90c73fc22ef3d991dd0a76b046543d4d80ab92d2a50328f8989604051602001610c08939291906137a2565b60405160208183030381529060405280519060200120611893565b8686866118ad565b9050610c48878288604051806020016040528060008152506118d8565b91505095945050505050565b6000806001600084815260200190815260200160002090508060020160009054906101000a900460ff1615610c8d576007915050610d64565b8060020160019054906101000a900460ff1615610cae576002915050610d64565b6000610cb984610b4d565b90506000811415610cff576040517f08c379a0000000000000000000000000000000000000000000000000000000008152600401610cf690613a56565b60405180910390fd5b438110610d1157600092505050610d64565b6000610d1c856112b2565b9050438110610d315760019350505050610d64565b610d3a85611a78565b8015610d4b5750610d4a85611abf565b5b15610d5c5760049350505050610d64565b600393505050505b919050565b60006005600084815260200190815260200160002060030160008373ffffffffffffffffffffffffffffffffffffffff1673ffffffffffffffffffffffffffffffffffffffff16815260200190815260200160002060009054906101000a900460ff16905092915050565b600080600080600560008681526020019081526020016000209050806000015481600101548260020154935093509350509193909250565b60606040518060400160405280600181526020017f3100000000000000000000000000000000000000000000000000000000000000815250905090565b600080610e5461165d565b9050610e71848285604051806020016040528060008152506118d8565b91505092915050565b610e826107d7565b73ffffffffffffffffffffffffffffffffffffffff16610ea061165d565b73ffffffffffffffffffffffffffffffffffffffff1614610ef6576040517f08c379a0000000000000000000000000000000000000000000000000000000008152600401610eed90613896565b60405180910390fd5b610eff81611aea565b50565b600080610f0d61165d565b9050610f5f86828787878080601f016020809104026020016040519081016040528093929190818152602001838380828437600081840152601f19601f820116905080830192505050505050506118d8565b915050949350505050565b6000610f746112a3565b610f8a33600143610f859190613fba565b611517565b1015610fcb576040517f08c379a0000000000000000000000000000000000000000000000000000000008152600401610fc2906138d6565b60405180910390fd5b6000610fe086868686805190602001206113f2565b90508451865114611026576040517f08c379a000000000000000000000000000000000000000000000000000000000815260040161101d90613916565b60405180910390fd5b835186511461106a576040517f08c379a000000000000000000000000000000000000000000000000000000000815260040161106190613916565b60405180910390fd5b60008651116110ae576040517f08c379a00000000000000000000000000000000000000000000000000000000081526004016110a5906139d6565b60405180910390fd5b600060016000838152602001908152602001600020905061110e816000016040518060200160405290816000820160009054906101000a900467ffffffffffffffff1667ffffffffffffffff1667ffffffffffffffff1681525050611b2f565b61114d576040517f08c379a000000000000000000000000000000000000000000000000000000000815260040161114490613a96565b60405180910390fd5b600061115f61115a610bbb565b611b49565b61116843611b49565b6111729190613ef1565b90506000611186611181610859565b611b49565b826111919190613ef1565b90506111a98284600001611ba090919063ffffffff16565b6111bf8184600101611ba090919063ffffffff16565b7f7d84a6263ae0d98d3329bd7b46bb4e8d6f98cd35a7adb45c274c8b7fd5ebd5e0846111e961165d565b8b8b8d5167ffffffffffffffff81111561122c577f4e487b7100000000000000000000000000000000000000000000000000000000600052604160045260246000fd5b60405190808252806020026020018201604052801561125f57816020015b606081526020019060019003908161124a5790505b508c88888e60405161127999989796959493929190613af1565b60405180910390a183945050505050949350505050565b60006064905090565b6000600654905090565b60006112ad611bcf565b905090565b600061130f600160008481526020019081526020016000206001016040518060200160405290816000820160009054906101000a900467ffffffffffffffff1667ffffffffffffffff1667ffffffffffffffff168152505061187b565b67ffffffffffffffff169050919050565b6113286107d7565b73ffffffffffffffffffffffffffffffffffffffff1661134661165d565b73ffffffffffffffffffffffffffffffffffffffff161461139c576040517f08c379a000000000000000000000000000000000000000000000000000000000815260040161139390613896565b60405180910390fd5b6113eb8483838080601f016020809104026020016040519081016040528093929190818152602001838380828437600081840152601f19601f8201169050808301925050505050505085611bd9565b5050505050565b60008484848460405160200161140b94939291906136bf565b6040516020818303038152906040528051906020012060001c9050949350505050565b60606040518060400160405280602081526020017f737570706f72743d627261766f2671756f72756d3d666f722c6162737461696e815250905090565b7f150214d74d59b7d1e90c73fc22ef3d991dd0a76b046543d4d80ab92d2a50328f81565b6114976107d7565b73ffffffffffffffffffffffffffffffffffffffff166114b561165d565b73ffffffffffffffffffffffffffffffffffffffff161461150b576040517f08c379a000000000000000000000000000000000000000000000000000000000815260040161150290613896565b60405180910390fd5b61151481611c08565b50565b60006115238383611c90565b905092915050565b6115336107d7565b73ffffffffffffffffffffffffffffffffffffffff1661155161165d565b73ffffffffffffffffffffffffffffffffffffffff16146115a7576040517f08c379a000000000000000000000000000000000000000000000000000000000815260040161159e90613896565b60405180910390fd5b6115b081611d45565b50565b60006115be82611d8a565b9050919050565b7f000000000000000000000000000000000000000000000000000000000000000081565b60007f01ffc9a7000000000000000000000000000000000000000000000000000000007bffffffffffffffffffffffffffffffffffffffffffffffffffffffff1916827bffffffffffffffffffffffffffffffffffffffffffffffffffffffff1916149050919050565b6000600354905090565b600033905090565b61166d611290565b8111156116af576040517f08c379a00000000000000000000000000000000000000000000000000000000081526004016116a6906138b6565b60405180910390fd5b60006006549050816006819055507f0553476bf02ef2726e8ce5ced78d63e26e602e4a2257b1f559418e24b463399781836040516116ee929190613ba1565b60405180910390a15050565b60006040518060600160405280602781526020016148d260279139905060005b85518110156118725760008087838151811061175f577f4e487b7100000000000000000000000000000000000000000000000000000000600052603260045260246000fd5b602002602001015173ffffffffffffffffffffffffffffffffffffffff168784815181106117b6577f4e487b7100000000000000000000000000000000000000000000000000000000600052603260045260246000fd5b60200260200101518785815181106117f7577f4e487b7100000000000000000000000000000000000000000000000000000000600052603260045260246000fd5b602002602001015160405161180c9190613648565b60006040518083038185875af1925050503d8060008114611849576040519150601f19603f3d011682016040523d82523d6000602084013e61184e565b606091505b509150915061185e828286611e60565b5050508061186b9061418d565b905061171a565b50505050505050565b600081600001519050919050565b6000600254905090565b60006118a66118a0611ec7565b83611fe1565b9050919050565b60008060006118be87878787612014565b915091506118cb81612121565b8192505050949350505050565b6000806001600087815260200190815260200160002090506001600781111561192a577f4e487b7100000000000000000000000000000000000000000000000000000000600052602160045260246000fd5b61193387610c54565b600781111561196b577f4e487b7100000000000000000000000000000000000000000000000000000000600052602160045260246000fd5b146119ab576040517f08c379a00000000000000000000000000000000000000000000000000000000081526004016119a2906139b6565b60405180910390fd5b6000611a09866119fa846000016040518060200160405290816000820160009054906101000a900467ffffffffffffffff1667ffffffffffffffff1667ffffffffffffffff168152505061187b565b67ffffffffffffffff16611517565b9050611a1787878784612472565b8573ffffffffffffffffffffffffffffffffffffffff167fb8e138887d0aa13bab447e82de9d5c1777041ecd21ca36ba824ff1e6c07ddda488878488604051611a639493929190613c01565b60405180910390a28092505050949350505050565b60008060056000848152602001908152602001600020905080600201548160010154611aa49190613e9b565b611ab5611ab085610b4d565b6115b3565b1115915050919050565b6000806005600084815260200190815260200160002090508060000154816001015411915050919050565b7fc565b045403dc03c2eea82b81a0465edad9e2e7fc4d97e11421c209da93d7a9360025482604051611b1d929190613ba1565b60405180910390a18060028190555050565b600080826000015167ffffffffffffffff16149050919050565b600067ffffffffffffffff8016821115611b98576040517f08c379a0000000000000000000000000000000000000000000000000000000008152600401611b8f90613a16565b60405180910390fd5b819050919050565b808260000160006101000a81548167ffffffffffffffff021916908367ffffffffffffffff1602179055505050565b6000600454905090565b6060611bff8484846040518060600160405280602981526020016148f9602991396126ea565b90509392505050565b60008111611c4b576040517f08c379a0000000000000000000000000000000000000000000000000000000008152600401611c4290613936565b60405180910390fd5b7f7e3f7f0708a84de9203036abaa450dccc85ad5ff52f78c170f3edb55cf5e882860035482604051611c7e929190613ba1565b60405180910390a18060038190555050565b60007f000000000000000000000000000000000000000000000000000000000000000073ffffffffffffffffffffffffffffffffffffffff16633a46b1a884846040518363ffffffff1660e01b8152600401611ced929190613696565b60206040518083038186803b158015611d0557600080fd5b505afa158015611d19573d6000803e3d6000fd5b505050506040513d601f19601f82011682018060405250810190611d3d9190612e81565b905092915050565b7fccb45da8d5717e6c4544694297c4ba5cf151d455c9bb0ed4fc7a38411bc0546160045482604051611d78929190613ba1565b60405180910390a18060048190555050565b6000611d94611290565b611d9c611299565b7f000000000000000000000000000000000000000000000000000000000000000073ffffffffffffffffffffffffffffffffffffffff16638e539e8c856040518263ffffffff1660e01b8152600401611df59190613ad6565b60206040518083038186803b158015611e0d57600080fd5b505afa158015611e21573d6000803e3d6000fd5b505050506040513d601f19601f82011682018060405250810190611e459190612e81565b611e4f9190613f60565b611e599190613f2f565b9050919050565b60608315611e7057829050611ec0565b600083511115611e835782518084602001fd5b816040517f08c379a0000000000000000000000000000000000000000000000000000000008152600401611eb79190613854565b60405180910390fd5b9392505050565b60007f000000000000000000000000000000000000000000000000000000000000000073ffffffffffffffffffffffffffffffffffffffff163073ffffffffffffffffffffffffffffffffffffffff16148015611f4357507f000000000000000000000000000000000000000000000000000000000000000046145b15611f70577f00000000000000000000000000000000000000000000000000000000000000009050611fde565b611fdb7f00000000000000000000000000000000000000000000000000000000000000007f00000000000000000000000000000000000000000000000000000000000000007f00000000000000000000000000000000000000000000000000000000000000006127fe565b90505b90565b60008282604051602001611ff692919061365f565b60405160208183030381529060405280519060200120905092915050565b6000807f7fffffffffffffffffffffffffffffff5d576e7357a4501ddfe92f46681b20a08360001c111561204f576000600391509150612118565b601b8560ff16141580156120675750601c8560ff1614155b15612079576000600491509150612118565b60006001878787876040516000815260200160405260405161209e94939291906137d9565b6020604051602081039080840390855afa1580156120c0573d6000803e3d6000fd5b505050602060405103519050600073ffffffffffffffffffffffffffffffffffffffff168173ffffffffffffffffffffffffffffffffffffffff16141561210f57600060019250925050612118565b80600092509250505b94509492505050565b6000600481111561215b577f4e487b7100000000000000000000000000000000000000000000000000000000600052602160045260246000fd5b816004811115612194577f4e487b7100000000000000000000000000000000000000000000000000000000600052602160045260246000fd5b141561219f5761246f565b600160048111156121d9577f4e487b7100000000000000000000000000000000000000000000000000000000600052602160045260246000fd5b816004811115612212577f4e487b7100000000000000000000000000000000000000000000000000000000600052602160045260246000fd5b1415612253576040517f08c379a000000000000000000000000000000000000000000000000000000000815260040161224a90613876565b60405180910390fd5b6002600481111561228d577f4e487b7100000000000000000000000000000000000000000000000000000000600052602160045260246000fd5b8160048111156122c6577f4e487b7100000000000000000000000000000000000000000000000000000000600052602160045260246000fd5b1415612307576040517f08c379a00000000000000000000000000000000000000000000000000000000081526004016122fe906138f6565b60405180910390fd5b60036004811115612341577f4e487b7100000000000000000000000000000000000000000000000000000000600052602160045260246000fd5b81600481111561237a577f4e487b7100000000000000000000000000000000000000000000000000000000600052602160045260246000fd5b14156123bb576040517f08c379a00000000000000000000000000000000000000000000000000000000081526004016123b290613956565b60405180910390fd5b6004808111156123f4577f4e487b7100000000000000000000000000000000000000000000000000000000600052602160045260246000fd5b81600481111561242d577f4e487b7100000000000000000000000000000000000000000000000000000000600052602160045260246000fd5b141561246e576040517f08c379a0000000000000000000000000000000000000000000000000000000008152600401612465906139f6565b60405180910390fd5b5b50565b60006005600086815260200190815260200160002090508060030160008573ffffffffffffffffffffffffffffffffffffffff1673ffffffffffffffffffffffffffffffffffffffff16815260200190815260200160002060009054906101000a900460ff1615612518576040517f08c379a000000000000000000000000000000000000000000000000000000000815260040161250f90613976565b60405180910390fd5b60018160030160008673ffffffffffffffffffffffffffffffffffffffff1673ffffffffffffffffffffffffffffffffffffffff16815260200190815260200160002060006101000a81548160ff021916908315150217905550600060028111156125ac577f4e487b7100000000000000000000000000000000000000000000000000000000600052602160045260246000fd5b60ff168360ff1614156125d957818160000160008282546125cd9190613e9b565b925050819055506126e3565b60016002811115612613577f4e487b7100000000000000000000000000000000000000000000000000000000600052602160045260246000fd5b60ff168360ff16141561264057818160010160008282546126349190613e9b565b925050819055506126e2565b600280811115612679577f4e487b7100000000000000000000000000000000000000000000000000000000600052602160045260246000fd5b60ff168360ff1614156126a6578181600201600082825461269a9190613e9b565b925050819055506126e1565b6040517f08c379a00000000000000000000000000000000000000000000000000000000081526004016126d890613a76565b60405180910390fd5b5b5b5050505050565b60608247101561272f576040517f08c379a000000000000000000000000000000000000000000000000000000000815260040161272690613996565b60405180910390fd5b61273885612838565b612777576040517f08c379a000000000000000000000000000000000000000000000000000000000815260040161276e90613ab6565b60405180910390fd5b6000808673ffffffffffffffffffffffffffffffffffffffff1685876040516127a09190613648565b60006040518083038185875af1925050503d80600081146127dd576040519150601f19603f3d011682016040523d82523d6000602084013e6127e2565b606091505b50915091506127f2828286611e60565b92505050949350505050565b6000838383463060405160200161281995949392919061374f565b6040516020818303038152906040528051906020012090509392505050565b6000808273ffffffffffffffffffffffffffffffffffffffff163b119050919050565b600061286e61286984613c72565b613c4d565b9050808382526020820190508285602086028201111561288d57600080fd5b60005b858110156128bd57816128a38882612a35565b845260208401935060208301925050600181019050612890565b5050509392505050565b60006128da6128d584613c9e565b613c4d565b905080838252602082019050828560208602820111156128f957600080fd5b60005b8581101561294357813567ffffffffffffffff81111561291b57600080fd5b8086016129288982612b3c565b855260208501945060208401935050506001810190506128fc565b5050509392505050565b600061296061295b84613cca565b613c4d565b9050808382526020820190508285602086028201111561297f57600080fd5b60005b858110156129af57816129958882612bda565b845260208401935060208301925050600181019050612982565b5050509392505050565b60006129cc6129c784613cf6565b613c4d565b9050828152602081018484840111156129e457600080fd5b6129ef8482856140e8565b509392505050565b6000612a0a612a0584613d27565b613c4d565b905082815260208101848484011115612a2257600080fd5b612a2d8482856140e8565b509392505050565b600081359050612a448161485e565b92915050565b600082601f830112612a5b57600080fd5b8135612a6b84826020860161285b565b91505092915050565b600082601f830112612a8557600080fd5b8135612a958482602086016128c7565b91505092915050565b600082601f830112612aaf57600080fd5b8135612abf84826020860161294d565b91505092915050565b600081359050612ad781614875565b92915050565b600081359050612aec8161488c565b92915050565b60008083601f840112612b0457600080fd5b8235905067ffffffffffffffff811115612b1d57600080fd5b602083019150836001820283011115612b3557600080fd5b9250929050565b600082601f830112612b4d57600080fd5b8135612b5d8482602086016129b9565b91505092915050565b60008083601f840112612b7857600080fd5b8235905067ffffffffffffffff811115612b9157600080fd5b602083019150836001820283011115612ba957600080fd5b9250929050565b600082601f830112612bc157600080fd5b8135612bd18482602086016129f7565b91505092915050565b600081359050612be9816148a3565b92915050565b600081519050612bfe816148a3565b92915050565b600081359050612c13816148ba565b92915050565b60008060408385031215612c2c57600080fd5b6000612c3a85828601612a35565b9250506020612c4b85828601612bda565b9150509250929050565b60008060008060608587031215612c6b57600080fd5b6000612c7987828801612a35565b9450506020612c8a87828801612bda565b935050604085013567ffffffffffffffff811115612ca757600080fd5b612cb387828801612af2565b925092505092959194509250565b60008060008060808587031215612cd757600080fd5b600085013567ffffffffffffffff811115612cf157600080fd5b612cfd87828801612a4a565b945050602085013567ffffffffffffffff811115612d1a57600080fd5b612d2687828801612a9e565b935050604085013567ffffffffffffffff811115612d4357600080fd5b612d4f87828801612a74565b9250506060612d6087828801612ac8565b91505092959194509250565b60008060008060808587031215612d8257600080fd5b600085013567ffffffffffffffff811115612d9c57600080fd5b612da887828801612a4a565b945050602085013567ffffffffffffffff811115612dc557600080fd5b612dd187828801612a9e565b935050604085013567ffffffffffffffff811115612dee57600080fd5b612dfa87828801612a74565b925050606085013567ffffffffffffffff811115612e1757600080fd5b612e2387828801612bb0565b91505092959194509250565b600060208284031215612e4157600080fd5b6000612e4f84828501612add565b91505092915050565b600060208284031215612e6a57600080fd5b6000612e7884828501612bda565b91505092915050565b600060208284031215612e9357600080fd5b6000612ea184828501612bef565b91505092915050565b60008060408385031215612ebd57600080fd5b6000612ecb85828601612bda565b9250506020612edc85828601612a35565b9150509250929050565b60008060408385031215612ef957600080fd5b6000612f0785828601612bda565b9250506020612f1885828601612c04565b9150509250929050565b60008060008060608587031215612f3857600080fd5b6000612f4687828801612bda565b9450506020612f5787828801612c04565b935050604085013567ffffffffffffffff811115612f7457600080fd5b612f8087828801612b66565b925092505092959194509250565b600080600080600060a08688031215612fa657600080fd5b6000612fb488828901612bda565b9550506020612fc588828901612c04565b9450506040612fd688828901612c04565b9350506060612fe788828901612ac8565b9250506080612ff888828901612ac8565b9150509295509295909350565b6000613011838361305d565b60208301905092915050565b60006130298383613256565b905092915050565b600061303d83836132de565b905092915050565b6000613051838361360c565b60208301905092915050565b61306681613fee565b82525050565b61307581613fee565b82525050565b600061308682613d98565b6130908185613e0e565b935061309b83613d58565b8060005b838110156130cc5781516130b38882613005565b97506130be83613dda565b92505060018101905061309f565b5085935050505092915050565b60006130e482613da3565b6130ee8185613e1f565b93508360208202850161310085613d68565b8060005b8581101561313c578484038952815161311d858261301d565b945061312883613de7565b925060208a01995050600181019050613104565b50829750879550505050505092915050565b600061315982613dae565b6131638185613e30565b93508360208202850161317585613d78565b8060005b858110156131b157848403895281516131928582613031565b945061319d83613df4565b925060208a01995050600181019050613179565b50829750879550505050505092915050565b60006131ce82613db9565b6131d88185613e41565b93506131e383613d88565b8060005b838110156132145781516131fb8882613045565b975061320683613e01565b9250506001810190506131e7565b5085935050505092915050565b61322a81614000565b82525050565b6132398161400c565b82525050565b61325061324b8261400c565b6141d6565b82525050565b600061326182613dc4565b61326b8185613e52565b935061327b8185602086016140f7565b613284816142cb565b840191505092915050565b600061329a82613dc4565b6132a48185613e63565b93506132b48185602086016140f7565b80840191505092915050565b6132c9816140a0565b82525050565b6132d8816140c4565b82525050565b60006132e982613dcf565b6132f38185613e6e565b93506133038185602086016140f7565b61330c816142cb565b840191505092915050565b600061332282613dcf565b61332c8185613e7f565b935061333c8185602086016140f7565b613345816142cb565b840191505092915050565b600061335d601883613e7f565b9150613368826142dc565b602082019050919050565b6000613380601883613e7f565b915061338b82614305565b602082019050919050565b60006133a3604383613e7f565b91506133ae8261432e565b606082019050919050565b60006133c6604383613e7f565b91506133d1826143a3565b606082019050919050565b60006133e9601f83613e7f565b91506133f482614418565b602082019050919050565b600061340c600283613e90565b915061341782614441565b600282019050919050565b600061342f602183613e7f565b915061343a8261446a565b604082019050919050565b6000613452602783613e7f565b915061345d826144b9565b604082019050919050565b6000613475602283613e7f565b915061348082614508565b604082019050919050565b6000613498602783613e7f565b91506134a382614557565b604082019050919050565b60006134bb602683613e7f565b91506134c6826145a6565b604082019050919050565b60006134de602383613e7f565b91506134e9826145f5565b604082019050919050565b6000613501601883613e7f565b915061350c82614644565b602082019050919050565b6000613524602283613e7f565b915061352f8261466d565b604082019050919050565b6000613547602683613e7f565b9150613552826146bc565b604082019050919050565b600061356a602183613e7f565b91506135758261470b565b604082019050919050565b600061358d601d83613e7f565b91506135988261475a565b602082019050919050565b60006135b0603583613e7f565b91506135bb82614783565b604082019050919050565b60006135d3602183613e7f565b91506135de826147d2565b604082019050919050565b60006135f6601d83613e7f565b915061360182614821565b602082019050919050565b61361581614075565b82525050565b61362481614075565b82525050565b613633816140d6565b82525050565b61364281614093565b82525050565b6000613654828461328f565b915081905092915050565b600061366a826133ff565b9150613676828561323f565b602082019150613686828461323f565b6020820191508190509392505050565b60006040820190506136ab600083018561306c565b6136b8602083018461361b565b9392505050565b600060808201905081810360008301526136d9818761307b565b905081810360208301526136ed81866131c3565b9050818103604083015261370181856130d9565b90506137106060830184613230565b95945050505050565b600060208201905061372e6000830184613221565b92915050565b60006020820190506137496000830184613230565b92915050565b600060a0820190506137646000830188613230565b6137716020830187613230565b61377e6040830186613230565b61378b606083018561361b565b613798608083018461306c565b9695505050505050565b60006060820190506137b76000830186613230565b6137c4602083018561361b565b6137d16040830184613639565b949350505050565b60006080820190506137ee6000830187613230565b6137fb6020830186613639565b6138086040830185613230565b6138156060830184613230565b95945050505050565b600060208201905061383360008301846132c0565b92915050565b600060208201905061384e60008301846132cf565b92915050565b6000602082019050818103600083015261386e8184613317565b905092915050565b6000602082019050818103600083015261388f81613350565b9050919050565b600060208201905081810360008301526138af81613373565b9050919050565b600060208201905081810360008301526138cf81613396565b9050919050565b600060208201905081810360008301526138ef816133b9565b9050919050565b6000602082019050818103600083015261390f816133dc565b9050919050565b6000602082019050818103600083015261392f81613422565b9050919050565b6000602082019050818103600083015261394f81613445565b9050919050565b6000602082019050818103600083015261396f81613468565b9050919050565b6000602082019050818103600083015261398f8161348b565b9050919050565b600060208201905081810360008301526139af816134ae565b9050919050565b600060208201905081810360008301526139cf816134d1565b9050919050565b600060208201905081810360008301526139ef816134f4565b9050919050565b60006020820190508181036000830152613a0f81613517565b9050919050565b60006020820190508181036000830152613a2f8161353a565b9050919050565b60006020820190508181036000830152613a4f8161355d565b9050919050565b60006020820190508181036000830152613a6f81613580565b9050919050565b60006020820190508181036000830152613a8f816135a3565b9050919050565b60006020820190508181036000830152613aaf816135c6565b9050919050565b60006020820190508181036000830152613acf816135e9565b9050919050565b6000602082019050613aeb600083018461361b565b92915050565b600061012082019050613b07600083018c61361b565b613b14602083018b61306c565b8181036040830152613b26818a61307b565b90508181036060830152613b3a81896131c3565b90508181036080830152613b4e818861314e565b905081810360a0830152613b6281876130d9565b9050613b7160c083018661362a565b613b7e60e083018561362a565b818103610100830152613b918184613317565b90509a9950505050505050505050565b6000604082019050613bb6600083018561361b565b613bc3602083018461361b565b9392505050565b6000606082019050613bdf600083018661361b565b613bec602083018561361b565b613bf9604083018461361b565b949350505050565b6000608082019050613c16600083018761361b565b613c236020830186613639565b613c30604083018561361b565b8181036060830152613c428184613317565b905095945050505050565b6000613c57613c68565b9050613c63828261415c565b919050565b6000604051905090565b600067ffffffffffffffff821115613c8d57613c8c61429c565b5b602082029050602081019050919050565b600067ffffffffffffffff821115613cb957613cb861429c565b5b602082029050602081019050919050565b600067ffffffffffffffff821115613ce557613ce461429c565b5b602082029050602081019050919050565b600067ffffffffffffffff821115613d1157613d1061429c565b5b613d1a826142cb565b9050602081019050919050565b600067ffffffffffffffff821115613d4257613d4161429c565b5b613d4b826142cb565b9050602081019050919050565b6000819050602082019050919050565b6000819050602082019050919050565b6000819050602082019050919050565b6000819050602082019050919050565b600081519050919050565b600081519050919050565b600081519050919050565b600081519050919050565b600081519050919050565b600081519050919050565b6000602082019050919050565b6000602082019050919050565b6000602082019050919050565b6000602082019050919050565b600082825260208201905092915050565b600082825260208201905092915050565b600082825260208201905092915050565b600082825260208201905092915050565b600082825260208201905092915050565b600081905092915050565b600082825260208201905092915050565b600082825260208201905092915050565b600081905092915050565b6000613ea682614075565b9150613eb183614075565b9250827fffffffffffffffffffffffffffffffffffffffffffffffffffffffffffffffff03821115613ee657613ee56141e0565b5b828201905092915050565b6000613efc8261407f565b9150613f078361407f565b92508267ffffffffffffffff03821115613f2457613f236141e0565b5b828201905092915050565b6000613f3a82614075565b9150613f4583614075565b925082613f5557613f5461420f565b5b828204905092915050565b6000613f6b82614075565b9150613f7683614075565b9250817fffffffffffffffffffffffffffffffffffffffffffffffffffffffffffffffff0483118215151615613faf57613fae6141e0565b5b828202905092915050565b6000613fc582614075565b9150613fd083614075565b925082821015613fe357613fe26141e0565b5b828203905092915050565b6000613ff982614055565b9050919050565b60008115159050919050565b6000819050919050565b60007fffffffff0000000000000000000000000000000000000000000000000000000082169050919050565b60008190506140508261484a565b919050565b600073ffffffffffffffffffffffffffffffffffffffff82169050919050565b6000819050919050565b600067ffffffffffffffff82169050919050565b600060ff82169050919050565b60006140ab826140b2565b9050919050565b60006140bd82614055565b9050919050565b60006140cf82614042565b9050919050565b60006140e18261407f565b9050919050565b82818337600083830152505050565b60005b838110156141155780820151818401526020810190506140fa565b83811115614124576000848401525b50505050565b6000600282049050600182168061414257607f821691505b602082108114156141565761415561426d565b5b50919050565b614165826142cb565b810181811067ffffffffffffffff821117156141845761418361429c565b5b80604052505050565b600061419882614075565b91507fffffffffffffffffffffffffffffffffffffffffffffffffffffffffffffffff8214156141cb576141ca6141e0565b5b600182019050919050565b6000819050919050565b7f4e487b7100000000000000000000000000000000000000000000000000000000600052601160045260246000fd5b7f4e487b7100000000000000000000000000000000000000000000000000000000600052601260045260246000fd5b7f4e487b7100000000000000000000000000000000000000000000000000000000600052602160045260246000fd5b7f4e487b7100000000000000000000000000000000000000000000000000000000600052602260045260246000fd5b7f4e487b7100000000000000000000000000000000000000000000000000000000600052604160045260246000fd5b6000601f19601f8301169050919050565b7f45434453413a20696e76616c6964207369676e61747572650000000000000000600082015250565b7f476f7665726e6f723a206f6e6c79476f7665726e616e63650000000000000000600082015250565b7f476f7665726e6f72566f74657351756f72756d4672616374696f6e3a2071756f60008201527f72756d4e756d657261746f72206f7665722071756f72756d44656e6f6d696e6160208201527f746f720000000000000000000000000000000000000000000000000000000000604082015250565b7f476f7665726e6f72436f6d7061746962696c697479427261766f3a2070726f7060008201527f6f73657220766f7465732062656c6f772070726f706f73616c2074687265736860208201527f6f6c640000000000000000000000000000000000000000000000000000000000604082015250565b7f45434453413a20696e76616c6964207369676e6174757265206c656e67746800600082015250565b7f1901000000000000000000000000000000000000000000000000000000000000600082015250565b7f476f7665726e6f723a20696e76616c69642070726f706f73616c206c656e677460008201527f6800000000000000000000000000000000000000000000000000000000000000602082015250565b7f476f7665726e6f7253657474696e67733a20766f74696e6720706572696f642060008201527f746f6f206c6f7700000000000000000000000000000000000000000000000000602082015250565b7f45434453413a20696e76616c6964207369676e6174757265202773272076616c60008201527f7565000000000000000000000000000000000000000000000000000000000000602082015250565b7f476f7665726e6f72566f74696e6753696d706c653a20766f746520616c72656160008201527f6479206361737400000000000000000000000000000000000000000000000000602082015250565b7f416464726573733a20696e73756666696369656e742062616c616e636520666f60008201527f722063616c6c0000000000000000000000000000000000000000000000000000602082015250565b7f476f7665726e6f723a20766f7465206e6f742063757272656e746c792061637460008201527f6976650000000000000000000000000000000000000000000000000000000000602082015250565b7f476f7665726e6f723a20656d7074792070726f706f73616c0000000000000000600082015250565b7f45434453413a20696e76616c6964207369676e6174757265202776272076616c60008201527f7565000000000000000000000000000000000000000000000000000000000000602082015250565b7f53616665436173743a2076616c756520646f65736e27742066697420696e203660008201527f3420626974730000000000000000000000000000000000000000000000000000602082015250565b7f476f7665726e6f723a2070726f706f73616c206e6f742073756363657373667560008201527f6c00000000000000000000000000000000000000000000000000000000000000602082015250565b7f476f7665726e6f723a20756e6b6e6f776e2070726f706f73616c206964000000600082015250565b7f476f7665726e6f72566f74696e6753696d706c653a20696e76616c696420766160008201527f6c756520666f7220656e756d20566f7465547970650000000000000000000000602082015250565b7f476f7665726e6f723a2070726f706f73616c20616c726561647920657869737460008201527f7300000000000000000000000000000000000000000000000000000000000000602082015250565b7f416464726573733a2063616c6c20746f206e6f6e2d636f6e7472616374000000600082015250565b6008811061485b5761485a61423e565b5b50565b61486781613fee565b811461487257600080fd5b50565b61487e8161400c565b811461488957600080fd5b50565b61489581614016565b81146148a057600080fd5b50565b6148ac81614075565b81146148b757600080fd5b50565b6148c381614093565b81146148ce57600080fd5b5056fe476f7665726e6f723a2063616c6c20726576657274656420776974686f7574206d657373616765416464726573733a206c6f772d6c6576656c2063616c6c20776974682076616c7565206661696c6564a26469706673582212204da390b274174bc89b60aa405088486664c91e44b484238822a09e6ee6f646c064736f6c63430008040033",
  "linkReferences": {},
  "deployedLinkReferences": {}
}