{
  "_format": "hh-sol-artifact-1",
  "contractName": "NFT",
  "sourceName": "contracts/NFT.sol",
  "abi": [
    {
      "inputs": [
        {
          "internalType": "string",
          "name": "uri",
          "type": "string"
        },
        {
          "internalType": "contract PathToken",
          "name": "pathToken",
          "type": "address"
        },
        {
          "internalType": "contract OrganizationNFT",
          "name": "orgNFT",
          "type": "address"
        }
      ],
      "stateMutability": "nonpayable",
      "type": "constructor"
    },
    {
      "anonymous": false,
      "inputs": [
        {
          "indexed": true,
          "internalType": "address",
          "name": "account",
          "type": "address"
        },
        {
          "indexed": true,
          "internalType": "address",
          "name": "operator",
          "type": "address"
        },
        {
          "indexed": false,
          "internalType": "bool",
          "name": "approved",
          "type": "bool"
        }
      ],
      "name": "ApprovalForAll",
      "type": "event"
    },
    {
      "anonymous": false,
      "inputs": [
        {
          "indexed": true,
          "internalType": "address",
          "name": "previousOwner",
          "type": "address"
        },
        {
          "indexed": true,
          "internalType": "address",
          "name": "newOwner",
          "type": "address"
        }
      ],
      "name": "OwnershipTransferred",
      "type": "event"
    },
    {
      "anonymous": false,
      "inputs": [
        {
          "indexed": true,
          "internalType": "address",
          "name": "operator",
          "type": "address"
        },
        {
          "indexed": true,
          "internalType": "address",
          "name": "from",
          "type": "address"
        },
        {
          "indexed": true,
          "internalType": "address",
          "name": "to",
          "type": "address"
        },
        {
          "indexed": false,
          "internalType": "uint256[]",
          "name": "ids",
          "type": "uint256[]"
        },
        {
          "indexed": false,
          "internalType": "uint256[]",
          "name": "values",
          "type": "uint256[]"
        }
      ],
      "name": "TransferBatch",
      "type": "event"
    },
    {
      "anonymous": false,
      "inputs": [
        {
          "indexed": true,
          "internalType": "address",
          "name": "operator",
          "type": "address"
        },
        {
          "indexed": true,
          "internalType": "address",
          "name": "from",
          "type": "address"
        },
        {
          "indexed": true,
          "internalType": "address",
          "name": "to",
          "type": "address"
        },
        {
          "indexed": false,
          "internalType": "uint256",
          "name": "id",
          "type": "uint256"
        },
        {
          "indexed": false,
          "internalType": "uint256",
          "name": "value",
          "type": "uint256"
        }
      ],
      "name": "TransferSingle",
      "type": "event"
    },
    {
      "anonymous": false,
      "inputs": [
        {
          "indexed": false,
          "internalType": "string",
          "name": "value",
          "type": "string"
        },
        {
          "indexed": true,
          "internalType": "uint256",
          "name": "id",
          "type": "uint256"
        }
      ],
      "name": "URI",
      "type": "event"
    },
    {
      "inputs": [],
      "name": "_organizationNFT",
      "outputs": [
        {
          "internalType": "contract OrganizationNFT",
          "name": "",
          "type": "address"
        }
      ],
      "stateMutability": "view",
      "type": "function"
    },
    {
      "inputs": [],
      "name": "_pathToken",
      "outputs": [
        {
          "internalType": "contract PathToken",
          "name": "",
          "type": "address"
        }
      ],
      "stateMutability": "view",
      "type": "function"
    },
    {
      "inputs": [],
      "name": "_projectCount",
      "outputs": [
        {
          "internalType": "uint256",
          "name": "",
          "type": "uint256"
        }
      ],
      "stateMutability": "view",
      "type": "function"
    },
    {
      "inputs": [
        {
          "internalType": "uint256",
          "name": "",
          "type": "uint256"
        }
      ],
      "name": "_projects",
      "outputs": [
        {
          "internalType": "string",
          "name": "_name",
          "type": "string"
        },
        {
          "internalType": "address",
          "name": "_beneficiary",
          "type": "address"
        },
        {
          "internalType": "uint256",
          "name": "_mintPrice",
          "type": "uint256"
        },
        {
          "internalType": "uint256",
          "name": "_maxSupply",
          "type": "uint256"
        },
        {
          "internalType": "uint256",
          "name": "_amountRaised",
          "type": "uint256"
        },
        {
          "internalType": "uint256",
          "name": "_amountWithdrawn",
          "type": "uint256"
        }
      ],
      "stateMutability": "view",
      "type": "function"
    },
    {
      "inputs": [
        {
          "internalType": "address",
          "name": "account",
          "type": "address"
        },
        {
          "internalType": "uint256",
          "name": "id",
          "type": "uint256"
        }
      ],
      "name": "balanceOf",
      "outputs": [
        {
          "internalType": "uint256",
          "name": "",
          "type": "uint256"
        }
      ],
      "stateMutability": "view",
      "type": "function"
    },
    {
      "inputs": [
        {
          "internalType": "address[]",
          "name": "accounts",
          "type": "address[]"
        },
        {
          "internalType": "uint256[]",
          "name": "ids",
          "type": "uint256[]"
        }
      ],
      "name": "balanceOfBatch",
      "outputs": [
        {
          "internalType": "uint256[]",
          "name": "",
          "type": "uint256[]"
        }
      ],
      "stateMutability": "view",
      "type": "function"
    },
    {
      "inputs": [
        {
          "internalType": "uint256",
          "name": "id",
          "type": "uint256"
        },
        {
          "internalType": "uint256",
          "name": "mintPrice",
          "type": "uint256"
        }
      ],
      "name": "changeMintPrice",
      "outputs": [],
      "stateMutability": "nonpayable",
      "type": "function"
    },
    {
      "inputs": [
        {
          "internalType": "uint256",
          "name": "mintPrice",
          "type": "uint256"
        },
        {
          "internalType": "uint256",
          "name": "maxSupply",
          "type": "uint256"
        },
        {
          "internalType": "string",
          "name": "name",
          "type": "string"
        },
        {
          "internalType": "address",
          "name": "beneficiary",
          "type": "address"
        }
      ],
      "name": "createProject",
      "outputs": [],
      "stateMutability": "nonpayable",
      "type": "function"
    },
    {
      "inputs": [
        {
          "internalType": "uint256",
          "name": "id",
          "type": "uint256"
        }
      ],
      "name": "exists",
      "outputs": [
        {
          "internalType": "bool",
          "name": "",
          "type": "bool"
        }
      ],
      "stateMutability": "view",
      "type": "function"
    },
    {
      "inputs": [
        {
          "internalType": "uint256",
          "name": "id",
          "type": "uint256"
        }
      ],
      "name": "getMaxSupply",
      "outputs": [
        {
          "internalType": "uint256",
          "name": "",
          "type": "uint256"
        }
      ],
      "stateMutability": "view",
      "type": "function"
    },
    {
      "inputs": [
        {
          "internalType": "uint256",
          "name": "id",
          "type": "uint256"
        }
      ],
      "name": "getMintPrice",
      "outputs": [
        {
          "internalType": "uint256",
          "name": "",
          "type": "uint256"
        }
      ],
      "stateMutability": "view",
      "type": "function"
    },
    {
      "inputs": [
        {
          "internalType": "uint256",
          "name": "id",
          "type": "uint256"
        }
      ],
      "name": "getProject",
      "outputs": [
        {
          "components": [
            {
              "internalType": "string",
              "name": "_name",
              "type": "string"
            },
            {
              "internalType": "address",
              "name": "_beneficiary",
              "type": "address"
            },
            {
              "internalType": "uint256",
              "name": "_mintPrice",
              "type": "uint256"
            },
            {
              "internalType": "uint256",
              "name": "_maxSupply",
              "type": "uint256"
            },
            {
              "internalType": "uint256",
              "name": "_amountRaised",
              "type": "uint256"
            },
            {
              "internalType": "uint256",
              "name": "_amountWithdrawn",
              "type": "uint256"
            }
          ],
          "internalType": "struct NFT.Project",
          "name": "",
          "type": "tuple"
        }
      ],
      "stateMutability": "view",
      "type": "function"
    },
    {
      "inputs": [
        {
          "internalType": "uint256",
          "name": "id",
          "type": "uint256"
        },
        {
          "internalType": "uint256",
          "name": "amount",
          "type": "uint256"
        }
      ],
      "name": "increaseMaxSupply",
      "outputs": [],
      "stateMutability": "nonpayable",
      "type": "function"
    },
    {
      "inputs": [
        {
          "internalType": "address",
          "name": "account",
          "type": "address"
        },
        {
          "internalType": "address",
          "name": "operator",
          "type": "address"
        }
      ],
      "name": "isApprovedForAll",
      "outputs": [
        {
          "internalType": "bool",
          "name": "",
          "type": "bool"
        }
      ],
      "stateMutability": "view",
      "type": "function"
    },
    {
      "inputs": [
        {
          "internalType": "uint256",
          "name": "id",
          "type": "uint256"
        },
        {
          "internalType": "uint256",
          "name": "amount",
          "type": "uint256"
        }
      ],
      "name": "mint",
      "outputs": [],
      "stateMutability": "payable",
      "type": "function"
    },
    {
      "inputs": [],
      "name": "owner",
      "outputs": [
        {
          "internalType": "address",
          "name": "",
          "type": "address"
        }
      ],
      "stateMutability": "view",
      "type": "function"
    },
    {
      "inputs": [],
      "name": "renounceOwnership",
      "outputs": [],
      "stateMutability": "nonpayable",
      "type": "function"
    },
    {
      "inputs": [
        {
          "internalType": "address",
          "name": "from",
          "type": "address"
        },
        {
          "internalType": "address",
          "name": "to",
          "type": "address"
        },
        {
          "internalType": "uint256[]",
          "name": "ids",
          "type": "uint256[]"
        },
        {
          "internalType": "uint256[]",
          "name": "amounts",
          "type": "uint256[]"
        },
        {
          "internalType": "bytes",
          "name": "data",
          "type": "bytes"
        }
      ],
      "name": "safeBatchTransferFrom",
      "outputs": [],
      "stateMutability": "nonpayable",
      "type": "function"
    },
    {
      "inputs": [
        {
          "internalType": "address",
          "name": "from",
          "type": "address"
        },
        {
          "internalType": "address",
          "name": "to",
          "type": "address"
        },
        {
          "internalType": "uint256",
          "name": "id",
          "type": "uint256"
        },
        {
          "internalType": "uint256",
          "name": "amount",
          "type": "uint256"
        },
        {
          "internalType": "bytes",
          "name": "data",
          "type": "bytes"
        }
      ],
      "name": "safeTransferFrom",
      "outputs": [],
      "stateMutability": "nonpayable",
      "type": "function"
    },
    {
      "inputs": [
        {
          "internalType": "address",
          "name": "operator",
          "type": "address"
        },
        {
          "internalType": "bool",
          "name": "approved",
          "type": "bool"
        }
      ],
      "name": "setApprovalForAll",
      "outputs": [],
      "stateMutability": "nonpayable",
      "type": "function"
    },
    {
      "inputs": [
        {
          "internalType": "string",
          "name": "newuri",
          "type": "string"
        }
      ],
      "name": "setURI",
      "outputs": [],
      "stateMutability": "nonpayable",
      "type": "function"
    },
    {
      "inputs": [
        {
          "internalType": "bytes4",
          "name": "interfaceId",
          "type": "bytes4"
        }
      ],
      "name": "supportsInterface",
      "outputs": [
        {
          "internalType": "bool",
          "name": "",
          "type": "bool"
        }
      ],
      "stateMutability": "view",
      "type": "function"
    },
    {
      "inputs": [
        {
          "internalType": "uint256",
          "name": "id",
          "type": "uint256"
        }
      ],
      "name": "totalSupply",
      "outputs": [
        {
          "internalType": "uint256",
          "name": "",
          "type": "uint256"
        }
      ],
      "stateMutability": "view",
      "type": "function"
    },
    {
      "inputs": [
        {
          "internalType": "address",
          "name": "newOwner",
          "type": "address"
        }
      ],
      "name": "transferOwnership",
      "outputs": [],
      "stateMutability": "nonpayable",
      "type": "function"
    },
    {
      "inputs": [
        {
          "internalType": "uint256",
          "name": "id",
          "type": "uint256"
        },
        {
          "internalType": "string",
          "name": "name",
          "type": "string"
        }
      ],
      "name": "updateProjectInfo",
      "outputs": [],
      "stateMutability": "nonpayable",
      "type": "function"
    },
    {
      "inputs": [
        {
          "internalType": "uint256",
          "name": "",
          "type": "uint256"
        }
      ],
      "name": "uri",
      "outputs": [
        {
          "internalType": "string",
          "name": "",
          "type": "string"
        }
      ],
      "stateMutability": "view",
      "type": "function"
    },
    {
      "inputs": [
        {
          "internalType": "uint256",
          "name": "id",
          "type": "uint256"
        }
      ],
      "name": "withdrawEth",
      "outputs": [],
      "stateMutability": "nonpayable",
      "type": "function"
    },
    {
      "stateMutability": "payable",
      "type": "receive"
    }
  ],
  "bytecode": "0x60806040523480156200001157600080fd5b50604051620053623803806200536283398181016040528101906200003791906200032f565b826200004981620000f560201b60201c565b506200006a6200005e6200011160201b60201c565b6200011960201b60201c565b81600560006101000a81548173ffffffffffffffffffffffffffffffffffffffff021916908373ffffffffffffffffffffffffffffffffffffffff16021790555080600660006101000a81548173ffffffffffffffffffffffffffffffffffffffff021916908373ffffffffffffffffffffffffffffffffffffffff1602179055505050506200059e565b80600290805190602001906200010d929190620001df565b5050565b600033905090565b6000600360009054906101000a900473ffffffffffffffffffffffffffffffffffffffff16905081600360006101000a81548173ffffffffffffffffffffffffffffffffffffffff021916908373ffffffffffffffffffffffffffffffffffffffff1602179055508173ffffffffffffffffffffffffffffffffffffffff168173ffffffffffffffffffffffffffffffffffffffff167f8be0079c531659141344cd1fd0a4f28419497f9722a3daafe3b4186f6b6457e060405160405180910390a35050565b828054620001ed906200048f565b90600052602060002090601f0160209004810192826200021157600085556200025d565b82601f106200022c57805160ff19168380011785556200025d565b828001600101855582156200025d579182015b828111156200025c5782518255916020019190600101906200023f565b5b5090506200026c919062000270565b5090565b5b808211156200028b57600081600090555060010162000271565b5090565b6000620002a6620002a084620003c7565b6200039e565b905082815260208101848484011115620002bf57600080fd5b620002cc84828562000459565b509392505050565b600081519050620002e5816200056a565b92915050565b600081519050620002fc8162000584565b92915050565b600082601f8301126200031457600080fd5b8151620003268482602086016200028f565b91505092915050565b6000806000606084860312156200034557600080fd5b600084015167ffffffffffffffff8111156200036057600080fd5b6200036e8682870162000302565b93505060206200038186828701620002eb565b92505060406200039486828701620002d4565b9150509250925092565b6000620003aa620003bd565b9050620003b88282620004c5565b919050565b6000604051905090565b600067ffffffffffffffff821115620003e557620003e46200052a565b5b620003f08262000559565b9050602081019050919050565b60006200040a8262000439565b9050919050565b60006200041e82620003fd565b9050919050565b60006200043282620003fd565b9050919050565b600073ffffffffffffffffffffffffffffffffffffffff82169050919050565b60005b83811015620004795780820151818401526020810190506200045c565b8381111562000489576000848401525b50505050565b60006002820490506001821680620004a857607f821691505b60208210811415620004bf57620004be620004fb565b5b50919050565b620004d08262000559565b810181811067ffffffffffffffff82111715620004f257620004f16200052a565b5b80604052505050565b7f4e487b7100000000000000000000000000000000000000000000000000000000600052602260045260246000fd5b7f4e487b7100000000000000000000000000000000000000000000000000000000600052604160045260246000fd5b6000601f19601f8301169050919050565b620005758162000411565b81146200058157600080fd5b50565b6200058f8162000425565b81146200059b57600080fd5b50565b614db480620005ae6000396000f3fe60806040526004361061019f5760003560e01c8063821f9dc9116100ec578063c235766f1161008a578063e985e9c511610064578063e985e9c5146105fc578063f0f3f2c814610639578063f242432a14610676578063f2fde38b1461069f576101a6565b8063c235766f1461057d578063c311d049146105a8578063e4741189146105d1576101a6565b8063b5d14bba116100c6578063b5d14bba146104c3578063bab4de49146104ec578063bd85b03914610515578063beefc14914610552576101a6565b8063821f9dc91461042d5780638da5cb5b1461046f578063a22cb4651461049a576101a6565b80634e1273f411610159578063559e775b11610133578063559e775b146103735780635e495d74146103b057806370342d0c146103ed578063715018a614610416576101a6565b80634e1273f4146102d05780634f558e791461030d578063539b22261461034a576101a6565b8062fdd58e146101ab57806301ffc9a7146101e857806302fe5305146102255780630e89341c1461024e5780631b2ef1ca1461028b5780632eb2c2d6146102a7576101a6565b366101a657005b600080fd5b3480156101b757600080fd5b506101d260048036038101906101cd91906134a3565b6106c8565b6040516101df919061416c565b60405180910390f35b3480156101f457600080fd5b5061020f600480360381019061020a919061354b565b610791565b60405161021c9190613daf565b60405180910390f35b34801561023157600080fd5b5061024c6004803603810190610247919061359d565b610873565b005b34801561025a57600080fd5b50610275600480360381019061027091906135de565b6108fb565b6040516102829190613e00565b60405180910390f35b6102a560048036038101906102a09190613684565b61098f565b005b3480156102b357600080fd5b506102ce60048036038101906102c99190613319565b610b7c565b005b3480156102dc57600080fd5b506102f760048036038101906102f291906134df565b610c1d565b6040516103049190613d56565b60405180910390f35b34801561031957600080fd5b50610334600480360381019061032f91906135de565b610dce565b6040516103419190613daf565b60405180910390f35b34801561035657600080fd5b50610371600480360381019061036c91906136c0565b610de2565b005b34801561037f57600080fd5b5061039a600480360381019061039591906135de565b6110d8565b6040516103a7919061416c565b60405180910390f35b3480156103bc57600080fd5b506103d760048036038101906103d291906135de565b611218565b6040516103e4919061416c565b60405180910390f35b3480156103f957600080fd5b50610414600480360381019061040f9190613684565b611358565b005b34801561042257600080fd5b5061042b611490565b005b34801561043957600080fd5b50610454600480360381019061044f91906135de565b611518565b60405161046696959493929190613e22565b60405180910390f35b34801561047b57600080fd5b506104846115fc565b6040516104919190613c50565b60405180910390f35b3480156104a657600080fd5b506104c160048036038101906104bc9190613467565b611626565b005b3480156104cf57600080fd5b506104ea60048036038101906104e59190613630565b61163c565b005b3480156104f857600080fd5b50610513600480360381019061050e9190613684565b611741565b005b34801561052157600080fd5b5061053c600480360381019061053791906135de565b611848565b604051610549919061416c565b60405180910390f35b34801561055e57600080fd5b50610567611865565b6040516105749190613de5565b60405180910390f35b34801561058957600080fd5b5061059261188b565b60405161059f9190613dca565b60405180910390f35b3480156105b457600080fd5b506105cf60048036038101906105ca91906135de565b6118b1565b005b3480156105dd57600080fd5b506105e6611a69565b6040516105f3919061416c565b60405180910390f35b34801561060857600080fd5b50610623600480360381019061061e91906132dd565b611a6f565b6040516106309190613daf565b60405180910390f35b34801561064557600080fd5b50610660600480360381019061065b91906135de565b611b03565b60405161066d919061414a565b60405180910390f35b34801561068257600080fd5b5061069d600480360381019061069891906133d8565b611c94565b005b3480156106ab57600080fd5b506106c660048036038101906106c191906132b4565b611d35565b005b60008073ffffffffffffffffffffffffffffffffffffffff168373ffffffffffffffffffffffffffffffffffffffff161415610739576040517f08c379a000000000000000000000000000000000000000000000000000000000815260040161073090613eea565b60405180910390fd5b60008083815260200190815260200160002060008473ffffffffffffffffffffffffffffffffffffffff1673ffffffffffffffffffffffffffffffffffffffff16815260200190815260200160002054905092915050565b60007fd9b67a26000000000000000000000000000000000000000000000000000000007bffffffffffffffffffffffffffffffffffffffffffffffffffffffff1916827bffffffffffffffffffffffffffffffffffffffffffffffffffffffff1916148061085c57507f0e89341c000000000000000000000000000000000000000000000000000000007bffffffffffffffffffffffffffffffffffffffffffffffffffffffff1916827bffffffffffffffffffffffffffffffffffffffffffffffffffffffff1916145b8061086c575061086b82611e2d565b5b9050919050565b61087b611e97565b73ffffffffffffffffffffffffffffffffffffffff166108996115fc565b73ffffffffffffffffffffffffffffffffffffffff16146108ef576040517f08c379a00000000000000000000000000000000000000000000000000000000081526004016108e69061404a565b60405180910390fd5b6108f881611e9f565b50565b60606002805461090a90614524565b80601f016020809104026020016040519081016040528092919081815260200182805461093690614524565b80156109835780601f1061095857610100808354040283529160200191610983565b820191906000526020600020905b81548152906001019060200180831161096657829003601f168201915b50505050509050919050565b8160075481111580156109a3575060008114155b6109e2576040517f08c379a00000000000000000000000000000000000000000000000000000000081526004016109d9906140aa565b60405180910390fd5b6000600860008581526020019081526020016000209050806003015483610a0886611848565b610a129190614311565b1115610a53576040517f08c379a0000000000000000000000000000000000000000000000000000000008152600401610a4a90613f4a565b60405180910390fd5b828160020154610a639190614398565b341015610aa5576040517f08c379a0000000000000000000000000000000000000000000000000000000008152600401610a9c9061402a565b60405180910390fd5b610ac033858560405180602001604052806000815250611eb9565b600560009054906101000a900473ffffffffffffffffffffffffffffffffffffffff1673ffffffffffffffffffffffffffffffffffffffff166340c10f1933606434610b0c9190614367565b6040518363ffffffff1660e01b8152600401610b29929190613d2d565b600060405180830381600087803b158015610b4357600080fd5b505af1158015610b57573d6000803e3d6000fd5b5050505034816004016000828254610b6f9190614311565b9250508190555050505050565b610b84611e97565b73ffffffffffffffffffffffffffffffffffffffff168573ffffffffffffffffffffffffffffffffffffffff161480610bca5750610bc985610bc4611e97565b611a6f565b5b610c09576040517f08c379a0000000000000000000000000000000000000000000000000000000008152600401610c0090613f8a565b60405180910390fd5b610c16858585858561204f565b5050505050565b60608151835114610c63576040517f08c379a0000000000000000000000000000000000000000000000000000000008152600401610c5a906140ca565b60405180910390fd5b6000835167ffffffffffffffff811115610ca6577f4e487b7100000000000000000000000000000000000000000000000000000000600052604160045260246000fd5b604051908082528060200260200182016040528015610cd45781602001602082028036833780820191505090505b50905060005b8451811015610dc357610d6d858281518110610d1f577f4e487b7100000000000000000000000000000000000000000000000000000000600052603260045260246000fd5b6020026020010151858381518110610d60577f4e487b7100000000000000000000000000000000000000000000000000000000600052603260045260246000fd5b60200260200101516106c8565b828281518110610da6577f4e487b7100000000000000000000000000000000000000000000000000000000600052603260045260246000fd5b60200260200101818152505080610dbc90614587565b9050610cda565b508091505092915050565b600080610dda83611848565b119050919050565b610dea611e97565b73ffffffffffffffffffffffffffffffffffffffff16610e086115fc565b73ffffffffffffffffffffffffffffffffffffffff1614610e5e576040517f08c379a0000000000000000000000000000000000000000000000000000000008152600401610e559061404a565b60405180910390fd5b60008411610ea1576040517f08c379a0000000000000000000000000000000000000000000000000000000008152600401610e9890613fca565b60405180910390fd5b60008311610ee4576040517f08c379a0000000000000000000000000000000000000000000000000000000008152600401610edb90613faa565b60405180910390fd5b6000600660009054906101000a900473ffffffffffffffffffffffffffffffffffffffff1673ffffffffffffffffffffffffffffffffffffffff166370a08231836040518263ffffffff1660e01b8152600401610f419190613c50565b60206040518083038186803b158015610f5957600080fd5b505afa158015610f6d573d6000803e3d6000fd5b505050506040513d601f19601f82011682018060405250810190610f919190613607565b11610fd1576040517f08c379a0000000000000000000000000000000000000000000000000000000008152600401610fc89061412a565b60405180910390fd5b60076000815480929190610fe490614587565b91905055506040518060c001604052808381526020018273ffffffffffffffffffffffffffffffffffffffff168152602001858152602001848152602001600081526020016000815250600860006007548152602001908152602001600020600082015181600001908051906020019061105f929190612f4b565b5060208201518160010160006101000a81548173ffffffffffffffffffffffffffffffffffffffff021916908373ffffffffffffffffffffffffffffffffffffffff16021790555060408201518160020155606082015181600301556080820151816004015560a0820151816005015590505050505050565b600080600860008481526020019081526020016000206040518060c001604052908160008201805461110990614524565b80601f016020809104026020016040519081016040528092919081815260200182805461113590614524565b80156111825780601f1061115757610100808354040283529160200191611182565b820191906000526020600020905b81548152906001019060200180831161116557829003601f168201915b505050505081526020016001820160009054906101000a900473ffffffffffffffffffffffffffffffffffffffff1673ffffffffffffffffffffffffffffffffffffffff1673ffffffffffffffffffffffffffffffffffffffff16815260200160028201548152602001600382015481526020016004820154815260200160058201548152505090508060400151915050919050565b600080600860008481526020019081526020016000206040518060c001604052908160008201805461124990614524565b80601f016020809104026020016040519081016040528092919081815260200182805461127590614524565b80156112c25780601f10611297576101008083540402835291602001916112c2565b820191906000526020600020905b8154815290600101906020018083116112a557829003601f168201915b505050505081526020016001820160009054906101000a900473ffffffffffffffffffffffffffffffffffffffff1673ffffffffffffffffffffffffffffffffffffffff1673ffffffffffffffffffffffffffffffffffffffff16815260200160028201548152602001600382015481526020016004820154815260200160058201548152505090508060600151915050919050565b611360611e97565b73ffffffffffffffffffffffffffffffffffffffff1661137e6115fc565b73ffffffffffffffffffffffffffffffffffffffff16146113d4576040517f08c379a00000000000000000000000000000000000000000000000000000000081526004016113cb9061404a565b60405180910390fd5b8160075481111580156113e8575060008114155b611427576040517f08c379a000000000000000000000000000000000000000000000000000000000815260040161141e906140aa565b60405180910390fd5b6000821161146a576040517f08c379a000000000000000000000000000000000000000000000000000000000815260040161146190613eaa565b60405180910390fd5b600060086000858152602001908152602001600020905082816002018190555050505050565b611498611e97565b73ffffffffffffffffffffffffffffffffffffffff166114b66115fc565b73ffffffffffffffffffffffffffffffffffffffff161461150c576040517f08c379a00000000000000000000000000000000000000000000000000000000081526004016115039061404a565b60405180910390fd5b61151660006123af565b565b600860205280600052604060002060009150905080600001805461153b90614524565b80601f016020809104026020016040519081016040528092919081815260200182805461156790614524565b80156115b45780601f10611589576101008083540402835291602001916115b4565b820191906000526020600020905b81548152906001019060200180831161159757829003601f168201915b5050505050908060010160009054906101000a900473ffffffffffffffffffffffffffffffffffffffff16908060020154908060030154908060040154908060050154905086565b6000600360009054906101000a900473ffffffffffffffffffffffffffffffffffffffff16905090565b611638611631611e97565b8383612475565b5050565b611644611e97565b73ffffffffffffffffffffffffffffffffffffffff166116626115fc565b73ffffffffffffffffffffffffffffffffffffffff16146116b8576040517f08c379a00000000000000000000000000000000000000000000000000000000081526004016116af9061404a565b60405180910390fd5b8160075481111580156116cc575060008114155b61170b576040517f08c379a0000000000000000000000000000000000000000000000000000000008152600401611702906140aa565b60405180910390fd5b60006008600085815260200190815260200160002090508281600001908051906020019061173a929190612f4b565b5050505050565b611749611e97565b73ffffffffffffffffffffffffffffffffffffffff166117676115fc565b73ffffffffffffffffffffffffffffffffffffffff16146117bd576040517f08c379a00000000000000000000000000000000000000000000000000000000081526004016117b49061404a565b60405180910390fd5b8160075481111580156117d1575060008114155b611810576040517f08c379a0000000000000000000000000000000000000000000000000000000008152600401611807906140aa565b60405180910390fd5b60006008600085815260200190815260200160002090508281600301600082825461183b9190614311565b9250508190555050505050565b600060046000838152602001908152602001600020549050919050565b600560009054906101000a900473ffffffffffffffffffffffffffffffffffffffff1681565b600660009054906101000a900473ffffffffffffffffffffffffffffffffffffffff1681565b8060075481111580156118c5575060008114155b611904576040517f08c379a00000000000000000000000000000000000000000000000000000000081526004016118fb906140aa565b60405180910390fd5b60006008600084815260200190815260200160002090508060010160009054906101000a900473ffffffffffffffffffffffffffffffffffffffff1673ffffffffffffffffffffffffffffffffffffffff163373ffffffffffffffffffffffffffffffffffffffff16146119ad576040517f08c379a00000000000000000000000000000000000000000000000000000000081526004016119a490613fea565b60405180910390fd5b80600401548160050154106119f7576040517f08c379a00000000000000000000000000000000000000000000000000000000081526004016119ee9061406a565b60405180910390fd5b600081600501548260040154611a0d91906143f2565b9050816004015482600501819055503373ffffffffffffffffffffffffffffffffffffffff166108fc829081150290604051600060405180830381858888f19350505050158015611a62573d6000803e3d6000fd5b5050505050565b60075481565b6000600160008473ffffffffffffffffffffffffffffffffffffffff1673ffffffffffffffffffffffffffffffffffffffff16815260200190815260200160002060008373ffffffffffffffffffffffffffffffffffffffff1673ffffffffffffffffffffffffffffffffffffffff16815260200190815260200160002060009054906101000a900460ff16905092915050565b611b0b612fd1565b816007548111158015611b1f575060008114155b611b5e576040517f08c379a0000000000000000000000000000000000000000000000000000000008152600401611b55906140aa565b60405180910390fd5b600860008481526020019081526020016000206040518060c0016040529081600082018054611b8c90614524565b80601f0160208091040260200160405190810160405280929190818152602001828054611bb890614524565b8015611c055780601f10611bda57610100808354040283529160200191611c05565b820191906000526020600020905b815481529060010190602001808311611be857829003601f168201915b505050505081526020016001820160009054906101000a900473ffffffffffffffffffffffffffffffffffffffff1673ffffffffffffffffffffffffffffffffffffffff1673ffffffffffffffffffffffffffffffffffffffff168152602001600282015481526020016003820154815260200160048201548152602001600582015481525050915050919050565b611c9c611e97565b73ffffffffffffffffffffffffffffffffffffffff168573ffffffffffffffffffffffffffffffffffffffff161480611ce25750611ce185611cdc611e97565b611a6f565b5b611d21576040517f08c379a0000000000000000000000000000000000000000000000000000000008152600401611d1890613f2a565b60405180910390fd5b611d2e85858585856125e2565b5050505050565b611d3d611e97565b73ffffffffffffffffffffffffffffffffffffffff16611d5b6115fc565b73ffffffffffffffffffffffffffffffffffffffff1614611db1576040517f08c379a0000000000000000000000000000000000000000000000000000000008152600401611da89061404a565b60405180910390fd5b600073ffffffffffffffffffffffffffffffffffffffff168173ffffffffffffffffffffffffffffffffffffffff161415611e21576040517f08c379a0000000000000000000000000000000000000000000000000000000008152600401611e1890613f0a565b60405180910390fd5b611e2a816123af565b50565b60007f01ffc9a7000000000000000000000000000000000000000000000000000000007bffffffffffffffffffffffffffffffffffffffffffffffffffffffff1916827bffffffffffffffffffffffffffffffffffffffffffffffffffffffff1916149050919050565b600033905090565b8060029080519060200190611eb5929190612f4b565b5050565b600073ffffffffffffffffffffffffffffffffffffffff168473ffffffffffffffffffffffffffffffffffffffff161415611f29576040517f08c379a0000000000000000000000000000000000000000000000000000000008152600401611f209061410a565b60405180910390fd5b6000611f33611e97565b9050611f5481600087611f4588612864565b611f4e88612864565b8761292a565b8260008086815260200190815260200160002060008773ffffffffffffffffffffffffffffffffffffffff1673ffffffffffffffffffffffffffffffffffffffff1681526020019081526020016000206000828254611fb39190614311565b925050819055508473ffffffffffffffffffffffffffffffffffffffff16600073ffffffffffffffffffffffffffffffffffffffff168273ffffffffffffffffffffffffffffffffffffffff167fc3d58168c5ae7397731d063d5bbf3d657854427343f4c083240f7aacaa2d0f628787604051612031929190614187565b60405180910390a461204881600087878787612940565b5050505050565b8151835114612093576040517f08c379a000000000000000000000000000000000000000000000000000000000815260040161208a906140ea565b60405180910390fd5b600073ffffffffffffffffffffffffffffffffffffffff168473ffffffffffffffffffffffffffffffffffffffff161415612103576040517f08c379a00000000000000000000000000000000000000000000000000000000081526004016120fa90613f6a565b60405180910390fd5b600061210d611e97565b905061211d81878787878761292a565b60005b845181101561231a576000858281518110612164577f4e487b7100000000000000000000000000000000000000000000000000000000600052603260045260246000fd5b6020026020010151905060008583815181106121a9577f4e487b7100000000000000000000000000000000000000000000000000000000600052603260045260246000fd5b60200260200101519050600080600084815260200190815260200160002060008b73ffffffffffffffffffffffffffffffffffffffff1673ffffffffffffffffffffffffffffffffffffffff1681526020019081526020016000205490508181101561224a576040517f08c379a00000000000000000000000000000000000000000000000000000000081526004016122419061400a565b60405180910390fd5b81810360008085815260200190815260200160002060008c73ffffffffffffffffffffffffffffffffffffffff1673ffffffffffffffffffffffffffffffffffffffff168152602001908152602001600020819055508160008085815260200190815260200160002060008b73ffffffffffffffffffffffffffffffffffffffff1673ffffffffffffffffffffffffffffffffffffffff16815260200190815260200160002060008282546122ff9190614311565b925050819055505050508061231390614587565b9050612120565b508473ffffffffffffffffffffffffffffffffffffffff168673ffffffffffffffffffffffffffffffffffffffff168273ffffffffffffffffffffffffffffffffffffffff167f4a39dc06d4c0dbc64b70af90fd698a233a518aa5d07e595d983b8c0526c8f7fb8787604051612391929190613d78565b60405180910390a46123a7818787878787612b27565b505050505050565b6000600360009054906101000a900473ffffffffffffffffffffffffffffffffffffffff16905081600360006101000a81548173ffffffffffffffffffffffffffffffffffffffff021916908373ffffffffffffffffffffffffffffffffffffffff1602179055508173ffffffffffffffffffffffffffffffffffffffff168173ffffffffffffffffffffffffffffffffffffffff167f8be0079c531659141344cd1fd0a4f28419497f9722a3daafe3b4186f6b6457e060405160405180910390a35050565b8173ffffffffffffffffffffffffffffffffffffffff168373ffffffffffffffffffffffffffffffffffffffff1614156124e4576040517f08c379a00000000000000000000000000000000000000000000000000000000081526004016124db9061408a565b60405180910390fd5b80600160008573ffffffffffffffffffffffffffffffffffffffff1673ffffffffffffffffffffffffffffffffffffffff16815260200190815260200160002060008473ffffffffffffffffffffffffffffffffffffffff1673ffffffffffffffffffffffffffffffffffffffff16815260200190815260200160002060006101000a81548160ff0219169083151502179055508173ffffffffffffffffffffffffffffffffffffffff168373ffffffffffffffffffffffffffffffffffffffff167f17307eab39ab6107e8899845ad3d59bd9653f200f220920489ca2b5937696c31836040516125d59190613daf565b60405180910390a3505050565b600073ffffffffffffffffffffffffffffffffffffffff168473ffffffffffffffffffffffffffffffffffffffff161415612652576040517f08c379a000000000000000000000000000000000000000000000000000000000815260040161264990613f6a565b60405180910390fd5b600061265c611e97565b905061267c81878761266d88612864565b61267688612864565b8761292a565b600080600086815260200190815260200160002060008873ffffffffffffffffffffffffffffffffffffffff1673ffffffffffffffffffffffffffffffffffffffff16815260200190815260200160002054905083811015612713576040517f08c379a000000000000000000000000000000000000000000000000000000000815260040161270a9061400a565b60405180910390fd5b83810360008087815260200190815260200160002060008973ffffffffffffffffffffffffffffffffffffffff1673ffffffffffffffffffffffffffffffffffffffff168152602001908152602001600020819055508360008087815260200190815260200160002060008873ffffffffffffffffffffffffffffffffffffffff1673ffffffffffffffffffffffffffffffffffffffff16815260200190815260200160002060008282546127c89190614311565b925050819055508573ffffffffffffffffffffffffffffffffffffffff168773ffffffffffffffffffffffffffffffffffffffff168373ffffffffffffffffffffffffffffffffffffffff167fc3d58168c5ae7397731d063d5bbf3d657854427343f4c083240f7aacaa2d0f628888604051612845929190614187565b60405180910390a461285b828888888888612940565b50505050505050565b60606000600167ffffffffffffffff8111156128a9577f4e487b7100000000000000000000000000000000000000000000000000000000600052604160045260246000fd5b6040519080825280602002602001820160405280156128d75781602001602082028036833780820191505090505b5090508281600081518110612915577f4e487b7100000000000000000000000000000000000000000000000000000000600052603260045260246000fd5b60200260200101818152505080915050919050565b612938868686868686612d0e565b505050505050565b61295f8473ffffffffffffffffffffffffffffffffffffffff16612f20565b15612b1f578373ffffffffffffffffffffffffffffffffffffffff1663f23a6e6187878686866040518663ffffffff1660e01b81526004016129a5959493929190613cd3565b602060405180830381600087803b1580156129bf57600080fd5b505af19250505080156129f057506040513d601f19601f820116820180604052508101906129ed9190613574565b60015b612a96576129fc61468c565b806308c379a01415612a595750612a11614c8c565b80612a1c5750612a5b565b806040517f08c379a0000000000000000000000000000000000000000000000000000000008152600401612a509190613e00565b60405180910390fd5b505b6040517f08c379a0000000000000000000000000000000000000000000000000000000008152600401612a8d90613e8a565b60405180910390fd5b63f23a6e6160e01b7bffffffffffffffffffffffffffffffffffffffffffffffffffffffff1916817bffffffffffffffffffffffffffffffffffffffffffffffffffffffff191614612b1d576040517f08c379a0000000000000000000000000000000000000000000000000000000008152600401612b1490613eca565b60405180910390fd5b505b505050505050565b612b468473ffffffffffffffffffffffffffffffffffffffff16612f20565b15612d06578373ffffffffffffffffffffffffffffffffffffffff1663bc197c8187878686866040518663ffffffff1660e01b8152600401612b8c959493929190613c6b565b602060405180830381600087803b158015612ba657600080fd5b505af1925050508015612bd757506040513d601f19601f82011682018060405250810190612bd49190613574565b60015b612c7d57612be361468c565b806308c379a01415612c405750612bf8614c8c565b80612c035750612c42565b806040517f08c379a0000000000000000000000000000000000000000000000000000000008152600401612c379190613e00565b60405180910390fd5b505b6040517f08c379a0000000000000000000000000000000000000000000000000000000008152600401612c7490613e8a565b60405180910390fd5b63bc197c8160e01b7bffffffffffffffffffffffffffffffffffffffffffffffffffffffff1916817bffffffffffffffffffffffffffffffffffffffffffffffffffffffff191614612d04576040517f08c379a0000000000000000000000000000000000000000000000000000000008152600401612cfb90613eca565b60405180910390fd5b505b505050505050565b612d1c868686868686612f43565b600073ffffffffffffffffffffffffffffffffffffffff168573ffffffffffffffffffffffffffffffffffffffff161415612e1a5760005b8351811015612e1857828181518110612d96577f4e487b7100000000000000000000000000000000000000000000000000000000600052603260045260246000fd5b602002602001015160046000868481518110612ddb577f4e487b7100000000000000000000000000000000000000000000000000000000600052603260045260246000fd5b602002602001015181526020019081526020016000206000828254612e009190614311565b9250508190555080612e1190614587565b9050612d54565b505b600073ffffffffffffffffffffffffffffffffffffffff168473ffffffffffffffffffffffffffffffffffffffff161415612f185760005b8351811015612f1657828181518110612e94577f4e487b7100000000000000000000000000000000000000000000000000000000600052603260045260246000fd5b602002602001015160046000868481518110612ed9577f4e487b7100000000000000000000000000000000000000000000000000000000600052603260045260246000fd5b602002602001015181526020019081526020016000206000828254612efe91906143f2565b9250508190555080612f0f90614587565b9050612e52565b505b505050505050565b6000808273ffffffffffffffffffffffffffffffffffffffff163b119050919050565b505050505050565b828054612f5790614524565b90600052602060002090601f016020900481019282612f795760008555612fc0565b82601f10612f9257805160ff1916838001178555612fc0565b82800160010185558215612fc0579182015b82811115612fbf578251825591602001919060010190612fa4565b5b509050612fcd919061301d565b5090565b6040518060c0016040528060608152602001600073ffffffffffffffffffffffffffffffffffffffff168152602001600081526020016000815260200160008152602001600081525090565b5b8082111561303657600081600090555060010161301e565b5090565b600061304d613048846141d5565b6141b0565b9050808382526020820190508285602086028201111561306c57600080fd5b60005b8581101561309c5781613082888261318e565b84526020840193506020830192505060018101905061306f565b5050509392505050565b60006130b96130b484614201565b6141b0565b905080838252602082019050828560208602820111156130d857600080fd5b60005b8581101561310857816130ee888261328a565b8452602084019350602083019250506001810190506130db565b5050509392505050565b60006131256131208461422d565b6141b0565b90508281526020810184848401111561313d57600080fd5b6131488482856144e2565b509392505050565b600061316361315e8461425e565b6141b0565b90508281526020810184848401111561317b57600080fd5b6131868482856144e2565b509392505050565b60008135905061319d81614d22565b92915050565b600082601f8301126131b457600080fd5b81356131c484826020860161303a565b91505092915050565b600082601f8301126131de57600080fd5b81356131ee8482602086016130a6565b91505092915050565b60008135905061320681614d39565b92915050565b60008135905061321b81614d50565b92915050565b60008151905061323081614d50565b92915050565b600082601f83011261324757600080fd5b8135613257848260208601613112565b91505092915050565b600082601f83011261327157600080fd5b8135613281848260208601613150565b91505092915050565b60008135905061329981614d67565b92915050565b6000815190506132ae81614d67565b92915050565b6000602082840312156132c657600080fd5b60006132d48482850161318e565b91505092915050565b600080604083850312156132f057600080fd5b60006132fe8582860161318e565b925050602061330f8582860161318e565b9150509250929050565b600080600080600060a0868803121561333157600080fd5b600061333f8882890161318e565b95505060206133508882890161318e565b945050604086013567ffffffffffffffff81111561336d57600080fd5b613379888289016131cd565b935050606086013567ffffffffffffffff81111561339657600080fd5b6133a2888289016131cd565b925050608086013567ffffffffffffffff8111156133bf57600080fd5b6133cb88828901613236565b9150509295509295909350565b600080600080600060a086880312156133f057600080fd5b60006133fe8882890161318e565b955050602061340f8882890161318e565b94505060406134208882890161328a565b93505060606134318882890161328a565b925050608086013567ffffffffffffffff81111561344e57600080fd5b61345a88828901613236565b9150509295509295909350565b6000806040838503121561347a57600080fd5b60006134888582860161318e565b9250506020613499858286016131f7565b9150509250929050565b600080604083850312156134b657600080fd5b60006134c48582860161318e565b92505060206134d58582860161328a565b9150509250929050565b600080604083850312156134f257600080fd5b600083013567ffffffffffffffff81111561350c57600080fd5b613518858286016131a3565b925050602083013567ffffffffffffffff81111561353557600080fd5b613541858286016131cd565b9150509250929050565b60006020828403121561355d57600080fd5b600061356b8482850161320c565b91505092915050565b60006020828403121561358657600080fd5b600061359484828501613221565b91505092915050565b6000602082840312156135af57600080fd5b600082013567ffffffffffffffff8111156135c957600080fd5b6135d584828501613260565b91505092915050565b6000602082840312156135f057600080fd5b60006135fe8482850161328a565b91505092915050565b60006020828403121561361957600080fd5b60006136278482850161329f565b91505092915050565b6000806040838503121561364357600080fd5b60006136518582860161328a565b925050602083013567ffffffffffffffff81111561366e57600080fd5b61367a85828601613260565b9150509250929050565b6000806040838503121561369757600080fd5b60006136a58582860161328a565b92505060206136b68582860161328a565b9150509250929050565b600080600080608085870312156136d657600080fd5b60006136e48782880161328a565b94505060206136f58782880161328a565b935050604085013567ffffffffffffffff81111561371257600080fd5b61371e87828801613260565b925050606061372f8782880161318e565b91505092959194509250565b60006137478383613c32565b60208301905092915050565b61375c81614426565b82525050565b61376b81614426565b82525050565b600061377c8261429f565b61378681856142cd565b93506137918361428f565b8060005b838110156137c25781516137a9888261373b565b97506137b4836142c0565b925050600181019050613795565b5085935050505092915050565b6137d881614438565b82525050565b60006137e9826142aa565b6137f381856142de565b93506138038185602086016144f1565b61380c816146ae565b840191505092915050565b6138208161449a565b82525050565b61382f816144be565b82525050565b6000613840826142b5565b61384a81856142ef565b935061385a8185602086016144f1565b613863816146ae565b840191505092915050565b6000613879826142b5565b6138838185614300565b93506138938185602086016144f1565b61389c816146ae565b840191505092915050565b60006138b4603483614300565b91506138bf826146cc565b604082019050919050565b60006138d7601183614300565b91506138e28261471b565b602082019050919050565b60006138fa602883614300565b915061390582614744565b604082019050919050565b600061391d602b83614300565b915061392882614793565b604082019050919050565b6000613940602683614300565b915061394b826147e2565b604082019050919050565b6000613963602983614300565b915061396e82614831565b604082019050919050565b6000613986601983614300565b915061399182614880565b602082019050919050565b60006139a9602583614300565b91506139b4826148a9565b604082019050919050565b60006139cc603283614300565b91506139d7826148f8565b604082019050919050565b60006139ef602183614300565b91506139fa82614947565b604082019050919050565b6000613a12602183614300565b9150613a1d82614996565b604082019050919050565b6000613a35601d83614300565b9150613a40826149e5565b602082019050919050565b6000613a58602a83614300565b9150613a6382614a0e565b604082019050919050565b6000613a7b600e83614300565b9150613a8682614a5d565b602082019050919050565b6000613a9e602083614300565b9150613aa982614a86565b602082019050919050565b6000613ac1601783614300565b9150613acc82614aaf565b602082019050919050565b6000613ae4602983614300565b9150613aef82614ad8565b604082019050919050565b6000613b07601683614300565b9150613b1282614b27565b602082019050919050565b6000613b2a602983614300565b9150613b3582614b50565b604082019050919050565b6000613b4d602883614300565b9150613b5882614b9f565b604082019050919050565b6000613b70602183614300565b9150613b7b82614bee565b604082019050919050565b6000613b93602a83614300565b9150613b9e82614c3d565b604082019050919050565b600060c0830160008301518482036000860152613bc68282613835565b9150506020830151613bdb6020860182613753565b506040830151613bee6040860182613c32565b506060830151613c016060860182613c32565b506080830151613c146080860182613c32565b5060a0830151613c2760a0860182613c32565b508091505092915050565b613c3b81614490565b82525050565b613c4a81614490565b82525050565b6000602082019050613c656000830184613762565b92915050565b600060a082019050613c806000830188613762565b613c8d6020830187613762565b8181036040830152613c9f8186613771565b90508181036060830152613cb38185613771565b90508181036080830152613cc781846137de565b90509695505050505050565b600060a082019050613ce86000830188613762565b613cf56020830187613762565b613d026040830186613c41565b613d0f6060830185613c41565b8181036080830152613d2181846137de565b90509695505050505050565b6000604082019050613d426000830185613762565b613d4f6020830184613c41565b9392505050565b60006020820190508181036000830152613d708184613771565b905092915050565b60006040820190508181036000830152613d928185613771565b90508181036020830152613da68184613771565b90509392505050565b6000602082019050613dc460008301846137cf565b92915050565b6000602082019050613ddf6000830184613817565b92915050565b6000602082019050613dfa6000830184613826565b92915050565b60006020820190508181036000830152613e1a818461386e565b905092915050565b600060c0820190508181036000830152613e3c818961386e565b9050613e4b6020830188613762565b613e586040830187613c41565b613e656060830186613c41565b613e726080830185613c41565b613e7f60a0830184613c41565b979650505050505050565b60006020820190508181036000830152613ea3816138a7565b9050919050565b60006020820190508181036000830152613ec3816138ca565b9050919050565b60006020820190508181036000830152613ee3816138ed565b9050919050565b60006020820190508181036000830152613f0381613910565b9050919050565b60006020820190508181036000830152613f2381613933565b9050919050565b60006020820190508181036000830152613f4381613956565b9050919050565b60006020820190508181036000830152613f6381613979565b9050919050565b60006020820190508181036000830152613f838161399c565b9050919050565b60006020820190508181036000830152613fa3816139bf565b9050919050565b60006020820190508181036000830152613fc3816139e2565b9050919050565b60006020820190508181036000830152613fe381613a05565b9050919050565b6000602082019050818103600083015261400381613a28565b9050919050565b6000602082019050818103600083015261402381613a4b565b9050919050565b6000602082019050818103600083015261404381613a6e565b9050919050565b6000602082019050818103600083015261406381613a91565b9050919050565b6000602082019050818103600083015261408381613ab4565b9050919050565b600060208201905081810360008301526140a381613ad7565b9050919050565b600060208201905081810360008301526140c381613afa565b9050919050565b600060208201905081810360008301526140e381613b1d565b9050919050565b6000602082019050818103600083015261410381613b40565b9050919050565b6000602082019050818103600083015261412381613b63565b9050919050565b6000602082019050818103600083015261414381613b86565b9050919050565b600060208201905081810360008301526141648184613ba9565b905092915050565b60006020820190506141816000830184613c41565b92915050565b600060408201905061419c6000830185613c41565b6141a96020830184613c41565b9392505050565b60006141ba6141cb565b90506141c68282614556565b919050565b6000604051905090565b600067ffffffffffffffff8211156141f0576141ef61465d565b5b602082029050602081019050919050565b600067ffffffffffffffff82111561421c5761421b61465d565b5b602082029050602081019050919050565b600067ffffffffffffffff8211156142485761424761465d565b5b614251826146ae565b9050602081019050919050565b600067ffffffffffffffff8211156142795761427861465d565b5b614282826146ae565b9050602081019050919050565b6000819050602082019050919050565b600081519050919050565b600081519050919050565b600081519050919050565b6000602082019050919050565b600082825260208201905092915050565b600082825260208201905092915050565b600082825260208201905092915050565b600082825260208201905092915050565b600061431c82614490565b915061432783614490565b9250827fffffffffffffffffffffffffffffffffffffffffffffffffffffffffffffffff0382111561435c5761435b6145d0565b5b828201905092915050565b600061437282614490565b915061437d83614490565b92508261438d5761438c6145ff565b5b828204905092915050565b60006143a382614490565b91506143ae83614490565b9250817fffffffffffffffffffffffffffffffffffffffffffffffffffffffffffffffff04831182151516156143e7576143e66145d0565b5b828202905092915050565b60006143fd82614490565b915061440883614490565b92508282101561441b5761441a6145d0565b5b828203905092915050565b600061443182614470565b9050919050565b60008115159050919050565b60007fffffffff0000000000000000000000000000000000000000000000000000000082169050919050565b600073ffffffffffffffffffffffffffffffffffffffff82169050919050565b6000819050919050565b60006144a5826144ac565b9050919050565b60006144b782614470565b9050919050565b60006144c9826144d0565b9050919050565b60006144db82614470565b9050919050565b82818337600083830152505050565b60005b8381101561450f5780820151818401526020810190506144f4565b8381111561451e576000848401525b50505050565b6000600282049050600182168061453c57607f821691505b602082108114156145505761454f61462e565b5b50919050565b61455f826146ae565b810181811067ffffffffffffffff8211171561457e5761457d61465d565b5b80604052505050565b600061459282614490565b91507fffffffffffffffffffffffffffffffffffffffffffffffffffffffffffffffff8214156145c5576145c46145d0565b5b600182019050919050565b7f4e487b7100000000000000000000000000000000000000000000000000000000600052601160045260246000fd5b7f4e487b7100000000000000000000000000000000000000000000000000000000600052601260045260246000fd5b7f4e487b7100000000000000000000000000000000000000000000000000000000600052602260045260246000fd5b7f4e487b7100000000000000000000000000000000000000000000000000000000600052604160045260246000fd5b600060033d11156146ab5760046000803e6146a86000516146bf565b90505b90565b6000601f19601f8301169050919050565b60008160e01c9050919050565b7f455243313135353a207472616e7366657220746f206e6f6e204552433131353560008201527f526563656976657220696d706c656d656e746572000000000000000000000000602082015250565b7f6d696e74507269636520696e76616c6964000000000000000000000000000000600082015250565b7f455243313135353a204552433131353552656365697665722072656a6563746560008201527f6420746f6b656e73000000000000000000000000000000000000000000000000602082015250565b7f455243313135353a2062616c616e636520717565727920666f7220746865207a60008201527f65726f2061646472657373000000000000000000000000000000000000000000602082015250565b7f4f776e61626c653a206e6577206f776e657220697320746865207a65726f206160008201527f6464726573730000000000000000000000000000000000000000000000000000602082015250565b7f455243313135353a2063616c6c6572206973206e6f74206f776e6572206e6f7260008201527f20617070726f7665640000000000000000000000000000000000000000000000602082015250565b7f4e6f7420656e6f75676820746f6b656e7320746f206d696e7400000000000000600082015250565b7f455243313135353a207472616e7366657220746f20746865207a65726f20616460008201527f6472657373000000000000000000000000000000000000000000000000000000602082015250565b7f455243313135353a207472616e736665722063616c6c6572206973206e6f742060008201527f6f776e6572206e6f7220617070726f7665640000000000000000000000000000602082015250565b7f4d617820737570706c79206d7573742062652067726561746572207468616e2060008201527f3000000000000000000000000000000000000000000000000000000000000000602082015250565b7f4d696e74207072696365206d7573742062652067726561746572207468616e2060008201527f3000000000000000000000000000000000000000000000000000000000000000602082015250565b7f4f6e6c792062656e65666963696172792063616e207769746864726177000000600082015250565b7f455243313135353a20696e73756666696369656e742062616c616e636520666f60008201527f72207472616e7366657200000000000000000000000000000000000000000000602082015250565b7f4e6f7420656e6f75676820455448000000000000000000000000000000000000600082015250565b7f4f776e61626c653a2063616c6c6572206973206e6f7420746865206f776e6572600082015250565b7f4e6f206d6f72652045544820746f207769746864726177000000000000000000600082015250565b7f455243313135353a2073657474696e6720617070726f76616c2073746174757360008201527f20666f722073656c660000000000000000000000000000000000000000000000602082015250565b7f50726f6a65637420646f6573206e6f7420657869737400000000000000000000600082015250565b7f455243313135353a206163636f756e747320616e6420696473206c656e67746860008201527f206d69736d617463680000000000000000000000000000000000000000000000602082015250565b7f455243313135353a2069647320616e6420616d6f756e7473206c656e6774682060008201527f6d69736d61746368000000000000000000000000000000000000000000000000602082015250565b7f455243313135353a206d696e7420746f20746865207a65726f2061646472657360008201527f7300000000000000000000000000000000000000000000000000000000000000602082015250565b7f42656e656669636961727920646f6573206e6f742068617665206f7267616e6960008201527f7a6174696f6e206e667400000000000000000000000000000000000000000000602082015250565b600060443d1015614c9c57614d1f565b614ca46141cb565b60043d036004823e80513d602482011167ffffffffffffffff82111715614ccc575050614d1f565b808201805167ffffffffffffffff811115614cea5750505050614d1f565b80602083010160043d038501811115614d07575050505050614d1f565b614d1682602001850186614556565b82955050505050505b90565b614d2b81614426565b8114614d3657600080fd5b50565b614d4281614438565b8114614d4d57600080fd5b50565b614d5981614444565b8114614d6457600080fd5b50565b614d7081614490565b8114614d7b57600080fd5b5056fea264697066735822122074f5bfb158d7198a10f6b5f4c3852bf19495a48dcfcbead91505c596882aff6d64736f6c63430008040033",
  "linkReferences": {},
  "deployedLinkReferences": {}
}