{
  "_format": "hh-sol-artifact-1",
  "contractName": "NFTV2",
  "sourceName": "contracts/NFTV2.sol",
  "abi": [
    {
      "inputs": [
        {
          "internalType": "string",
          "name": "uri",
          "type": "string"
        }
      ],
      "stateMutability": "nonpayable",
      "type": "constructor"
    },
    {
      "anonymous": false,
      "inputs": [
        {
          "indexed": true,
          "internalType": "address",
          "name": "account",
          "type": "address"
        },
        {
          "indexed": true,
          "internalType": "address",
          "name": "operator",
          "type": "address"
        },
        {
          "indexed": false,
          "internalType": "bool",
          "name": "approved",
          "type": "bool"
        }
      ],
      "name": "ApprovalForAll",
      "type": "event"
    },
    {
      "anonymous": false,
      "inputs": [
        {
          "indexed": true,
          "internalType": "address",
          "name": "previousOwner",
          "type": "address"
        },
        {
          "indexed": true,
          "internalType": "address",
          "name": "newOwner",
          "type": "address"
        }
      ],
      "name": "OwnershipTransferred",
      "type": "event"
    },
    {
      "anonymous": false,
      "inputs": [
        {
          "indexed": true,
          "internalType": "address",
          "name": "operator",
          "type": "address"
        },
        {
          "indexed": true,
          "internalType": "address",
          "name": "from",
          "type": "address"
        },
        {
          "indexed": true,
          "internalType": "address",
          "name": "to",
          "type": "address"
        },
        {
          "indexed": false,
          "internalType": "uint256[]",
          "name": "ids",
          "type": "uint256[]"
        },
        {
          "indexed": false,
          "internalType": "uint256[]",
          "name": "values",
          "type": "uint256[]"
        }
      ],
      "name": "TransferBatch",
      "type": "event"
    },
    {
      "anonymous": false,
      "inputs": [
        {
          "indexed": true,
          "internalType": "address",
          "name": "operator",
          "type": "address"
        },
        {
          "indexed": true,
          "internalType": "address",
          "name": "from",
          "type": "address"
        },
        {
          "indexed": true,
          "internalType": "address",
          "name": "to",
          "type": "address"
        },
        {
          "indexed": false,
          "internalType": "uint256",
          "name": "id",
          "type": "uint256"
        },
        {
          "indexed": false,
          "internalType": "uint256",
          "name": "value",
          "type": "uint256"
        }
      ],
      "name": "TransferSingle",
      "type": "event"
    },
    {
      "anonymous": false,
      "inputs": [
        {
          "indexed": false,
          "internalType": "string",
          "name": "value",
          "type": "string"
        },
        {
          "indexed": true,
          "internalType": "uint256",
          "name": "id",
          "type": "uint256"
        }
      ],
      "name": "URI",
      "type": "event"
    },
    {
      "inputs": [],
      "name": "_projectCount",
      "outputs": [
        {
          "internalType": "uint256",
          "name": "",
          "type": "uint256"
        }
      ],
      "stateMutability": "view",
      "type": "function"
    },
    {
      "inputs": [
        {
          "internalType": "uint256",
          "name": "",
          "type": "uint256"
        }
      ],
      "name": "_projects",
      "outputs": [
        {
          "internalType": "string",
          "name": "_name",
          "type": "string"
        },
        {
          "internalType": "address",
          "name": "_beneficiary",
          "type": "address"
        },
        {
          "internalType": "uint256",
          "name": "_mintPrice",
          "type": "uint256"
        },
        {
          "internalType": "uint256",
          "name": "_maxSupply",
          "type": "uint256"
        },
        {
          "internalType": "uint256",
          "name": "_amountRaised",
          "type": "uint256"
        },
        {
          "internalType": "uint256",
          "name": "_amountWithdrawn",
          "type": "uint256"
        }
      ],
      "stateMutability": "view",
      "type": "function"
    },
    {
      "inputs": [
        {
          "internalType": "address",
          "name": "account",
          "type": "address"
        },
        {
          "internalType": "uint256",
          "name": "id",
          "type": "uint256"
        }
      ],
      "name": "balanceOf",
      "outputs": [
        {
          "internalType": "uint256",
          "name": "",
          "type": "uint256"
        }
      ],
      "stateMutability": "view",
      "type": "function"
    },
    {
      "inputs": [
        {
          "internalType": "address[]",
          "name": "accounts",
          "type": "address[]"
        },
        {
          "internalType": "uint256[]",
          "name": "ids",
          "type": "uint256[]"
        }
      ],
      "name": "balanceOfBatch",
      "outputs": [
        {
          "internalType": "uint256[]",
          "name": "",
          "type": "uint256[]"
        }
      ],
      "stateMutability": "view",
      "type": "function"
    },
    {
      "inputs": [
        {
          "internalType": "uint256",
          "name": "id",
          "type": "uint256"
        },
        {
          "internalType": "uint256",
          "name": "mintPrice",
          "type": "uint256"
        }
      ],
      "name": "changeMintPrice",
      "outputs": [],
      "stateMutability": "nonpayable",
      "type": "function"
    },
    {
      "inputs": [
        {
          "internalType": "uint256",
          "name": "mintPrice",
          "type": "uint256"
        },
        {
          "internalType": "uint256",
          "name": "maxSupply",
          "type": "uint256"
        },
        {
          "internalType": "string",
          "name": "name",
          "type": "string"
        },
        {
          "internalType": "address",
          "name": "beneficiary",
          "type": "address"
        }
      ],
      "name": "createProject",
      "outputs": [],
      "stateMutability": "nonpayable",
      "type": "function"
    },
    {
      "inputs": [
        {
          "internalType": "uint256",
          "name": "id",
          "type": "uint256"
        }
      ],
      "name": "exists",
      "outputs": [
        {
          "internalType": "bool",
          "name": "",
          "type": "bool"
        }
      ],
      "stateMutability": "view",
      "type": "function"
    },
    {
      "inputs": [
        {
          "internalType": "uint256",
          "name": "id",
          "type": "uint256"
        }
      ],
      "name": "getProject",
      "outputs": [
        {
          "components": [
            {
              "internalType": "string",
              "name": "_name",
              "type": "string"
            },
            {
              "internalType": "address",
              "name": "_beneficiary",
              "type": "address"
            },
            {
              "internalType": "uint256",
              "name": "_mintPrice",
              "type": "uint256"
            },
            {
              "internalType": "uint256",
              "name": "_maxSupply",
              "type": "uint256"
            },
            {
              "internalType": "uint256",
              "name": "_amountRaised",
              "type": "uint256"
            },
            {
              "internalType": "uint256",
              "name": "_amountWithdrawn",
              "type": "uint256"
            }
          ],
          "internalType": "struct NFTV2.Project",
          "name": "",
          "type": "tuple"
        }
      ],
      "stateMutability": "view",
      "type": "function"
    },
    {
      "inputs": [
        {
          "internalType": "uint256",
          "name": "id",
          "type": "uint256"
        },
        {
          "internalType": "uint256",
          "name": "amount",
          "type": "uint256"
        }
      ],
      "name": "increaseMaxSupply",
      "outputs": [],
      "stateMutability": "nonpayable",
      "type": "function"
    },
    {
      "inputs": [
        {
          "internalType": "address",
          "name": "account",
          "type": "address"
        },
        {
          "internalType": "address",
          "name": "operator",
          "type": "address"
        }
      ],
      "name": "isApprovedForAll",
      "outputs": [
        {
          "internalType": "bool",
          "name": "",
          "type": "bool"
        }
      ],
      "stateMutability": "view",
      "type": "function"
    },
    {
      "inputs": [
        {
          "internalType": "uint256",
          "name": "id",
          "type": "uint256"
        },
        {
          "internalType": "uint256",
          "name": "amount",
          "type": "uint256"
        }
      ],
      "name": "mint",
      "outputs": [],
      "stateMutability": "payable",
      "type": "function"
    },
    {
      "inputs": [],
      "name": "owner",
      "outputs": [
        {
          "internalType": "address",
          "name": "",
          "type": "address"
        }
      ],
      "stateMutability": "view",
      "type": "function"
    },
    {
      "inputs": [],
      "name": "renounceOwnership",
      "outputs": [],
      "stateMutability": "nonpayable",
      "type": "function"
    },
    {
      "inputs": [
        {
          "internalType": "address",
          "name": "from",
          "type": "address"
        },
        {
          "internalType": "address",
          "name": "to",
          "type": "address"
        },
        {
          "internalType": "uint256[]",
          "name": "ids",
          "type": "uint256[]"
        },
        {
          "internalType": "uint256[]",
          "name": "amounts",
          "type": "uint256[]"
        },
        {
          "internalType": "bytes",
          "name": "data",
          "type": "bytes"
        }
      ],
      "name": "safeBatchTransferFrom",
      "outputs": [],
      "stateMutability": "nonpayable",
      "type": "function"
    },
    {
      "inputs": [
        {
          "internalType": "address",
          "name": "from",
          "type": "address"
        },
        {
          "internalType": "address",
          "name": "to",
          "type": "address"
        },
        {
          "internalType": "uint256",
          "name": "id",
          "type": "uint256"
        },
        {
          "internalType": "uint256",
          "name": "amount",
          "type": "uint256"
        },
        {
          "internalType": "bytes",
          "name": "data",
          "type": "bytes"
        }
      ],
      "name": "safeTransferFrom",
      "outputs": [],
      "stateMutability": "nonpayable",
      "type": "function"
    },
    {
      "inputs": [
        {
          "internalType": "address",
          "name": "operator",
          "type": "address"
        },
        {
          "internalType": "bool",
          "name": "approved",
          "type": "bool"
        }
      ],
      "name": "setApprovalForAll",
      "outputs": [],
      "stateMutability": "nonpayable",
      "type": "function"
    },
    {
      "inputs": [
        {
          "internalType": "string",
          "name": "newuri",
          "type": "string"
        }
      ],
      "name": "setURI",
      "outputs": [],
      "stateMutability": "nonpayable",
      "type": "function"
    },
    {
      "inputs": [
        {
          "internalType": "bytes4",
          "name": "interfaceId",
          "type": "bytes4"
        }
      ],
      "name": "supportsInterface",
      "outputs": [
        {
          "internalType": "bool",
          "name": "",
          "type": "bool"
        }
      ],
      "stateMutability": "view",
      "type": "function"
    },
    {
      "inputs": [
        {
          "internalType": "uint256",
          "name": "id",
          "type": "uint256"
        }
      ],
      "name": "totalSupply",
      "outputs": [
        {
          "internalType": "uint256",
          "name": "",
          "type": "uint256"
        }
      ],
      "stateMutability": "view",
      "type": "function"
    },
    {
      "inputs": [
        {
          "internalType": "address",
          "name": "newOwner",
          "type": "address"
        }
      ],
      "name": "transferOwnership",
      "outputs": [],
      "stateMutability": "nonpayable",
      "type": "function"
    },
    {
      "inputs": [
        {
          "internalType": "uint256",
          "name": "id",
          "type": "uint256"
        },
        {
          "internalType": "string",
          "name": "name",
          "type": "string"
        }
      ],
      "name": "updateProjectInfo",
      "outputs": [],
      "stateMutability": "nonpayable",
      "type": "function"
    },
    {
      "inputs": [
        {
          "internalType": "uint256",
          "name": "",
          "type": "uint256"
        }
      ],
      "name": "uri",
      "outputs": [
        {
          "internalType": "string",
          "name": "",
          "type": "string"
        }
      ],
      "stateMutability": "view",
      "type": "function"
    },
    {
      "inputs": [
        {
          "internalType": "uint256",
          "name": "id",
          "type": "uint256"
        }
      ],
      "name": "withdrawEth",
      "outputs": [],
      "stateMutability": "nonpayable",
      "type": "function"
    },
    {
      "stateMutability": "payable",
      "type": "receive"
    }
  ],
  "bytecode": "0x60806040523480156200001157600080fd5b5060405162002e9d38038062002e9d833981016040819052620000349162000164565b80620000408162000053565b506200004c336200006c565b506200028d565b805162000068906002906020840190620000be565b5050565b600380546001600160a01b038381166001600160a01b0319831681179093556040519116919082907f8be0079c531659141344cd1fd0a4f28419497f9722a3daafe3b4186f6b6457e090600090a35050565b828054620000cc906200023a565b90600052602060002090601f016020900481019282620000f057600085556200013b565b82601f106200010b57805160ff19168380011785556200013b565b828001600101855582156200013b579182015b828111156200013b5782518255916020019190600101906200011e565b50620001499291506200014d565b5090565b5b808211156200014957600081556001016200014e565b6000602080838503121562000177578182fd5b82516001600160401b03808211156200018e578384fd5b818501915085601f830112620001a2578384fd5b815181811115620001b757620001b762000277565b604051601f8201601f19908116603f01168101908382118183101715620001e257620001e262000277565b816040528281528886848701011115620001fa578687fd5b8693505b828410156200021d5784840186015181850187015292850192620001fe565b828411156200022e57868684830101525b98975050505050505050565b600181811c908216806200024f57607f821691505b602082108114156200027157634e487b7160e01b600052602260045260246000fd5b50919050565b634e487b7160e01b600052604160045260246000fd5b612c00806200029d6000396000f3fe6080604052600436106101835760003560e01c8063821f9dc9116100d6578063c311d0491161007f578063f0f3f2c811610059578063f0f3f2c81461048b578063f242432a146104b8578063f2fde38b146104d857600080fd5b8063c311d0491461040c578063e47411891461042c578063e985e9c51461044257600080fd5b8063b5d14bba116100b0578063b5d14bba1461039f578063bab4de49146103bf578063bd85b039146103df57600080fd5b8063821f9dc9146103255780638da5cb5b14610357578063a22cb4651461037f57600080fd5b80632eb2c2d611610138578063539b222611610112578063539b2226146102d057806370342d0c146102f0578063715018a61461031057600080fd5b80632eb2c2d6146102545780634e1273f4146102745780634f558e79146102a157600080fd5b806302fe53051161016957806302fe5305146101f25780630e89341c146102145780631b2ef1ca1461024157600080fd5b8062fdd58e1461018f57806301ffc9a7146101c257600080fd5b3661018a57005b600080fd5b34801561019b57600080fd5b506101af6101aa366004612565565b6104f8565b6040519081526020015b60405180910390f35b3480156101ce57600080fd5b506101e26101dd366004612659565b6105a1565b60405190151581526020016101b9565b3480156101fe57600080fd5b5061021261020d366004612691565b610686565b005b34801561022057600080fd5b5061023461022f3660046126cc565b6106ec565b6040516101b99190612906565b61021261024f36600461271f565b610780565b34801561026057600080fd5b5061021261026f366004612422565b6108ee565b34801561028057600080fd5b5061029461028f36600461258e565b610990565b6040516101b991906128c5565b3480156102ad57600080fd5b506101e26102bc3660046126cc565b600090815260046020526040902054151590565b3480156102dc57600080fd5b506102126102eb366004612740565b610b06565b3480156102fc57600080fd5b5061021261030b36600461271f565b610d39565b34801561031c57600080fd5b50610212610e57565b34801561033157600080fd5b506103456103403660046126cc565b610ebd565b6040516101b996959493929190612919565b34801561036357600080fd5b506003546040516001600160a01b0390911681526020016101b9565b34801561038b57600080fd5b5061021261039a36600461252b565b610f84565b3480156103ab57600080fd5b506102126103ba3660046126e4565b610f93565b3480156103cb57600080fd5b506102126103da36600461271f565b61106e565b3480156103eb57600080fd5b506101af6103fa3660046126cc565b60009081526004602052604090205490565b34801561041857600080fd5b506102126104273660046126cc565b611149565b34801561043857600080fd5b506101af60055481565b34801561044e57600080fd5b506101e261045d3660046123f0565b6001600160a01b03918216600090815260016020908152604080832093909416825291909152205460ff1690565b34801561049757600080fd5b506104ab6104a63660046126cc565b6112b8565b6040516101b9919061295e565b3480156104c457600080fd5b506102126104d33660046124c8565b611447565b3480156104e457600080fd5b506102126104f33660046123cf565b6114e2565b60006001600160a01b03831661057b5760405162461bcd60e51b815260206004820152602b60248201527f455243313135353a2062616c616e636520717565727920666f7220746865207a60448201527f65726f206164647265737300000000000000000000000000000000000000000060648201526084015b60405180910390fd5b506000908152602081815260408083206001600160a01b03949094168352929052205490565b60007fffffffff0000000000000000000000000000000000000000000000000000000082167fd9b67a2600000000000000000000000000000000000000000000000000000000148061063457507fffffffff0000000000000000000000000000000000000000000000000000000082167f0e89341c00000000000000000000000000000000000000000000000000000000145b8061068057507f01ffc9a7000000000000000000000000000000000000000000000000000000007fffffffff000000000000000000000000000000000000000000000000000000008316145b92915050565b6003546001600160a01b031633146106e05760405162461bcd60e51b815260206004820181905260248201527f4f776e61626c653a2063616c6c6572206973206e6f7420746865206f776e65726044820152606401610572565b6106e9816115c1565b50565b6060600280546106fb90612a33565b80601f016020809104026020016040519081016040528092919081815260200182805461072790612a33565b80156107745780601f1061074957610100808354040283529160200191610774565b820191906000526020600020905b81548152906001019060200180831161075757829003601f168201915b50505050509050919050565b81600554811115801561079257508015155b6107de5760405162461bcd60e51b815260206004820152601660248201527f50726f6a65637420646f6573206e6f74206578697374000000000000000000006044820152606401610572565b6000838152600660209081526040808320600381015460049093529220546108079085906129e5565b11156108555760405162461bcd60e51b815260206004820152601960248201527f4e6f7420656e6f75676820746f6b656e7320746f206d696e74000000000000006044820152606401610572565b82816002015461086591906129fd565b3410156108b45760405162461bcd60e51b815260206004820152600e60248201527f4e6f7420656e6f756768204554480000000000000000000000000000000000006044820152606401610572565b6108cf338585604051806020016040528060008152506115d4565b348160040160008282546108e391906129e5565b909155505050505050565b6001600160a01b03851633148061090a575061090a853361045d565b61097c5760405162461bcd60e51b815260206004820152603260248201527f455243313135353a207472616e736665722063616c6c6572206973206e6f742060448201527f6f776e6572206e6f7220617070726f76656400000000000000000000000000006064820152608401610572565b6109898585858585611700565b5050505050565b60608151835114610a095760405162461bcd60e51b815260206004820152602960248201527f455243313135353a206163636f756e747320616e6420696473206c656e67746860448201527f206d69736d6174636800000000000000000000000000000000000000000000006064820152608401610572565b6000835167ffffffffffffffff811115610a3357634e487b7160e01b600052604160045260246000fd5b604051908082528060200260200182016040528015610a5c578160200160208202803683370190505b50905060005b8451811015610afe57610ac3858281518110610a8e57634e487b7160e01b600052603260045260246000fd5b6020026020010151858381518110610ab657634e487b7160e01b600052603260045260246000fd5b60200260200101516104f8565b828281518110610ae357634e487b7160e01b600052603260045260246000fd5b6020908102919091010152610af781612a95565b9050610a62565b509392505050565b6003546001600160a01b03163314610b605760405162461bcd60e51b815260206004820181905260248201527f4f776e61626c653a2063616c6c6572206973206e6f7420746865206f776e65726044820152606401610572565b60008411610bd65760405162461bcd60e51b815260206004820152602160248201527f4d696e74207072696365206d7573742062652067726561746572207468616e2060448201527f30000000000000000000000000000000000000000000000000000000000000006064820152608401610572565b60008311610c4c5760405162461bcd60e51b815260206004820152602160248201527f4d617820737570706c79206d7573742062652067726561746572207468616e2060448201527f30000000000000000000000000000000000000000000000000000000000000006064820152608401610572565b60058054906000610c5c83612a95565b91905055506040518060c00160405280838152602001826001600160a01b031681526020018581526020018481526020016000815260200160008152506006600060055481526020019081526020016000206000820151816000019080519060200190610cca929190612237565b5060208201516001820180547fffffffffffffffffffffffff0000000000000000000000000000000000000000166001600160a01b0390921691909117905560408201516002820155606082015160038201556080820151600482015560a09091015160059091015550505050565b6003546001600160a01b03163314610d935760405162461bcd60e51b815260206004820181905260248201527f4f776e61626c653a2063616c6c6572206973206e6f7420746865206f776e65726044820152606401610572565b816005548111158015610da557508015155b610df15760405162461bcd60e51b815260206004820152601660248201527f50726f6a65637420646f6573206e6f74206578697374000000000000000000006044820152606401610572565b60008211610e415760405162461bcd60e51b815260206004820152601160248201527f6d696e74507269636520696e76616c69640000000000000000000000000000006044820152606401610572565b5060009182526006602052604090912060020155565b6003546001600160a01b03163314610eb15760405162461bcd60e51b815260206004820181905260248201527f4f776e61626c653a2063616c6c6572206973206e6f7420746865206f776e65726044820152606401610572565b610ebb60006119c8565b565b600660205260009081526040902080548190610ed890612a33565b80601f0160208091040260200160405190810160405280929190818152602001828054610f0490612a33565b8015610f515780601f10610f2657610100808354040283529160200191610f51565b820191906000526020600020905b815481529060010190602001808311610f3457829003601f168201915b505050600184015460028501546003860154600487015460059097015495966001600160a01b0390931695919450925086565b610f8f338383611a32565b5050565b6003546001600160a01b03163314610fed5760405162461bcd60e51b815260206004820181905260248201527f4f776e61626c653a2063616c6c6572206973206e6f7420746865206f776e65726044820152606401610572565b816005548111158015610fff57508015155b61104b5760405162461bcd60e51b815260206004820152601660248201527f50726f6a65637420646f6573206e6f74206578697374000000000000000000006044820152606401610572565b600083815260066020908152604090912083519091610989918391860190612237565b6003546001600160a01b031633146110c85760405162461bcd60e51b815260206004820181905260248201527f4f776e61626c653a2063616c6c6572206973206e6f7420746865206f776e65726044820152606401610572565b8160055481111580156110da57508015155b6111265760405162461bcd60e51b815260206004820152601660248201527f50726f6a65637420646f6573206e6f74206578697374000000000000000000006044820152606401610572565b6000838152600660205260408120600381018054919285926108e39084906129e5565b80600554811115801561115b57508015155b6111a75760405162461bcd60e51b815260206004820152601660248201527f50726f6a65637420646f6573206e6f74206578697374000000000000000000006044820152606401610572565b600082815260066020526040902060018101546001600160a01b031633146112115760405162461bcd60e51b815260206004820152601d60248201527f4f6e6c792062656e65666963696172792063616e2077697468647261770000006044820152606401610572565b80600401548160050154106112685760405162461bcd60e51b815260206004820152601760248201527f4e6f206d6f72652045544820746f2077697468647261770000000000000000006044820152606401610572565b60008160050154826004015461127e9190612a1c565b60048301546005840155604051909150339082156108fc029083906000818181858888f19350505050158015610989573d6000803e3d6000fd5b6112fa6040518060c001604052806060815260200160006001600160a01b03168152602001600081526020016000815260200160008152602001600081525090565b81600554811115801561130c57508015155b6113585760405162461bcd60e51b815260206004820152601660248201527f50726f6a65637420646f6573206e6f74206578697374000000000000000000006044820152606401610572565b600083815260066020526040808220815160c0810190925280548290829061137f90612a33565b80601f01602080910402602001604051908101604052809291908181526020018280546113ab90612a33565b80156113f85780601f106113cd576101008083540402835291602001916113f8565b820191906000526020600020905b8154815290600101906020018083116113db57829003601f168201915b505050918352505060018201546001600160a01b0316602082015260028201546040820152600382015460608201526004820154608082015260059091015460a0909101529250505b50919050565b6001600160a01b0385163314806114635750611463853361045d565b6114d55760405162461bcd60e51b815260206004820152602960248201527f455243313135353a2063616c6c6572206973206e6f74206f776e6572206e6f7260448201527f20617070726f76656400000000000000000000000000000000000000000000006064820152608401610572565b6109898585858585611b45565b6003546001600160a01b0316331461153c5760405162461bcd60e51b815260206004820181905260248201527f4f776e61626c653a2063616c6c6572206973206e6f7420746865206f776e65726044820152606401610572565b6001600160a01b0381166115b85760405162461bcd60e51b815260206004820152602660248201527f4f776e61626c653a206e6577206f776e657220697320746865207a65726f206160448201527f64647265737300000000000000000000000000000000000000000000000000006064820152608401610572565b6106e9816119c8565b8051610f8f906002906020840190612237565b6001600160a01b0384166116505760405162461bcd60e51b815260206004820152602160248201527f455243313135353a206d696e7420746f20746865207a65726f2061646472657360448201527f73000000000000000000000000000000000000000000000000000000000000006064820152608401610572565b336116708160008761166188611d0e565b61166a88611d0e565b87611d67565b6000848152602081815260408083206001600160a01b0389168452909152812080548592906116a09084906129e5565b909155505060408051858152602081018590526001600160a01b0380881692600092918516917fc3d58168c5ae7397731d063d5bbf3d657854427343f4c083240f7aacaa2d0f62910160405180910390a461098981600087878787611d75565b81518351146117775760405162461bcd60e51b815260206004820152602860248201527f455243313135353a2069647320616e6420616d6f756e7473206c656e6774682060448201527f6d69736d617463680000000000000000000000000000000000000000000000006064820152608401610572565b6001600160a01b0384166117f35760405162461bcd60e51b815260206004820152602560248201527f455243313135353a207472616e7366657220746f20746865207a65726f20616460448201527f64726573730000000000000000000000000000000000000000000000000000006064820152608401610572565b33611802818787878787611d67565b60005b845181101561195a57600085828151811061183057634e487b7160e01b600052603260045260246000fd5b60200260200101519050600085838151811061185c57634e487b7160e01b600052603260045260246000fd5b602090810291909101810151600084815280835260408082206001600160a01b038e1683529093529190912054909150818110156119025760405162461bcd60e51b815260206004820152602a60248201527f455243313135353a20696e73756666696369656e742062616c616e636520666f60448201527f72207472616e73666572000000000000000000000000000000000000000000006064820152608401610572565b6000838152602081815260408083206001600160a01b038e8116855292528083208585039055908b1682528120805484929061193f9084906129e5565b925050819055505050508061195390612a95565b9050611805565b50846001600160a01b0316866001600160a01b0316826001600160a01b03167f4a39dc06d4c0dbc64b70af90fd698a233a518aa5d07e595d983b8c0526c8f7fb87876040516119aa9291906128d8565b60405180910390a46119c0818787878787611f89565b505050505050565b600380546001600160a01b038381167fffffffffffffffffffffffff0000000000000000000000000000000000000000831681179093556040519116919082907f8be0079c531659141344cd1fd0a4f28419497f9722a3daafe3b4186f6b6457e090600090a35050565b816001600160a01b0316836001600160a01b03161415611aba5760405162461bcd60e51b815260206004820152602960248201527f455243313135353a2073657474696e6720617070726f76616c2073746174757360448201527f20666f722073656c6600000000000000000000000000000000000000000000006064820152608401610572565b6001600160a01b0383811660008181526001602090815260408083209487168084529482529182902080547fffffffffffffffffffffffffffffffffffffffffffffffffffffffffffffff001686151590811790915591519182527f17307eab39ab6107e8899845ad3d59bd9653f200f220920489ca2b5937696c31910160405180910390a3505050565b6001600160a01b038416611bc15760405162461bcd60e51b815260206004820152602560248201527f455243313135353a207472616e7366657220746f20746865207a65726f20616460448201527f64726573730000000000000000000000000000000000000000000000000000006064820152608401610572565b33611bd181878761166188611d0e565b6000848152602081815260408083206001600160a01b038a16845290915290205483811015611c685760405162461bcd60e51b815260206004820152602a60248201527f455243313135353a20696e73756666696369656e742062616c616e636520666f60448201527f72207472616e73666572000000000000000000000000000000000000000000006064820152608401610572565b6000858152602081815260408083206001600160a01b038b8116855292528083208785039055908816825281208054869290611ca59084906129e5565b909155505060408051868152602081018690526001600160a01b03808916928a821692918616917fc3d58168c5ae7397731d063d5bbf3d657854427343f4c083240f7aacaa2d0f62910160405180910390a4611d05828888888888611d75565b50505050505050565b60408051600180825281830190925260609160009190602080830190803683370190505090508281600081518110611d5657634e487b7160e01b600052603260045260246000fd5b602090810291909101015292915050565b6119c08686868686866120f3565b6001600160a01b0384163b156119c0576040517ff23a6e610000000000000000000000000000000000000000000000000000000081526001600160a01b0385169063f23a6e6190611dd29089908990889088908890600401612882565b602060405180830381600087803b158015611dec57600080fd5b505af1925050508015611e1c575060408051601f3d908101601f19168201909252611e1991810190612675565b60015b611ed257611e28612adc565b806308c379a01415611e625750611e3d612af4565b80611e485750611e64565b8060405162461bcd60e51b81526004016105729190612906565b505b60405162461bcd60e51b815260206004820152603460248201527f455243313135353a207472616e7366657220746f206e6f6e204552433131353560448201527f526563656976657220696d706c656d656e7465720000000000000000000000006064820152608401610572565b7fffffffff0000000000000000000000000000000000000000000000000000000081167ff23a6e610000000000000000000000000000000000000000000000000000000014611d055760405162461bcd60e51b815260206004820152602860248201527f455243313135353a204552433131353552656365697665722072656a6563746560448201527f6420746f6b656e730000000000000000000000000000000000000000000000006064820152608401610572565b6001600160a01b0384163b156119c0576040517fbc197c810000000000000000000000000000000000000000000000000000000081526001600160a01b0385169063bc197c8190611fe69089908990889088908890600401612824565b602060405180830381600087803b15801561200057600080fd5b505af1925050508015612030575060408051601f3d908101601f1916820190925261202d91810190612675565b60015b61203c57611e28612adc565b7fffffffff0000000000000000000000000000000000000000000000000000000081167fbc197c810000000000000000000000000000000000000000000000000000000014611d055760405162461bcd60e51b815260206004820152602860248201527f455243313135353a204552433131353552656365697665722072656a6563746560448201527f6420746f6b656e730000000000000000000000000000000000000000000000006064820152608401610572565b6001600160a01b0385166121965760005b83518110156121945782818151811061212d57634e487b7160e01b600052603260045260246000fd5b60200260200101516004600086848151811061215957634e487b7160e01b600052603260045260246000fd5b60200260200101518152602001908152602001600020600082825461217e91906129e5565b9091555061218d905081612a95565b9050612104565b505b6001600160a01b0384166119c05760005b8351811015611d05578281815181106121d057634e487b7160e01b600052603260045260246000fd5b6020026020010151600460008684815181106121fc57634e487b7160e01b600052603260045260246000fd5b6020026020010151815260200190815260200160002060008282546122219190612a1c565b90915550612230905081612a95565b90506121a7565b82805461224390612a33565b90600052602060002090601f01602090048101928261226557600085556122ab565b82601f1061227e57805160ff19168380011785556122ab565b828001600101855582156122ab579182015b828111156122ab578251825591602001919060010190612290565b506122b79291506122bb565b5090565b5b808211156122b757600081556001016122bc565b80356001600160a01b03811681146122e757600080fd5b919050565b600082601f8301126122fc578081fd5b81356020612309826129c1565b6040516123168282612a68565b8381528281019150858301600585901b87018401881015612335578586fd5b855b8581101561235357813584529284019290840190600101612337565b5090979650505050505050565b600082601f830112612370578081fd5b813567ffffffffffffffff81111561238a5761238a612ac6565b6040516123a16020601f19601f8501160182612a68565b8181528460208386010111156123b5578283fd5b816020850160208301379081016020019190915292915050565b6000602082840312156123e0578081fd5b6123e9826122d0565b9392505050565b60008060408385031215612402578081fd5b61240b836122d0565b9150612419602084016122d0565b90509250929050565b600080600080600060a08688031215612439578081fd5b612442866122d0565b9450612450602087016122d0565b9350604086013567ffffffffffffffff8082111561246c578283fd5b61247889838a016122ec565b9450606088013591508082111561248d578283fd5b61249989838a016122ec565b935060808801359150808211156124ae578283fd5b506124bb88828901612360565b9150509295509295909350565b600080600080600060a086880312156124df578081fd5b6124e8866122d0565b94506124f6602087016122d0565b93506040860135925060608601359150608086013567ffffffffffffffff81111561251f578182fd5b6124bb88828901612360565b6000806040838503121561253d578182fd5b612546836122d0565b91506020830135801515811461255a578182fd5b809150509250929050565b60008060408385031215612577578182fd5b612580836122d0565b946020939093013593505050565b600080604083850312156125a0578182fd5b823567ffffffffffffffff808211156125b7578384fd5b818501915085601f8301126125ca578384fd5b813560206125d7826129c1565b6040516125e48282612a68565b8381528281019150858301600585901b870184018b1015612603578889fd5b8896505b8487101561262c57612618816122d0565b835260019690960195918301918301612607565b5096505086013592505080821115612642578283fd5b5061264f858286016122ec565b9150509250929050565b60006020828403121561266a578081fd5b81356123e981612b9c565b600060208284031215612686578081fd5b81516123e981612b9c565b6000602082840312156126a2578081fd5b813567ffffffffffffffff8111156126b8578182fd5b6126c484828501612360565b949350505050565b6000602082840312156126dd578081fd5b5035919050565b600080604083850312156126f6578182fd5b82359150602083013567ffffffffffffffff811115612713578182fd5b61264f85828601612360565b60008060408385031215612731578182fd5b50508035926020909101359150565b60008060008060808587031215612755578182fd5b8435935060208501359250604085013567ffffffffffffffff811115612779578283fd5b61278587828801612360565b925050612794606086016122d0565b905092959194509250565b6000815180845260208085019450808401835b838110156127ce578151875295820195908201906001016127b2565b509495945050505050565b60008151808452815b818110156127fe576020818501810151868301820152016127e2565b8181111561280f5782602083870101525b50601f01601f19169290920160200192915050565b60006001600160a01b03808816835280871660208401525060a0604083015261285060a083018661279f565b8281036060840152612862818661279f565b9050828103608084015261287681856127d9565b98975050505050505050565b60006001600160a01b03808816835280871660208401525084604083015283606083015260a060808301526128ba60a08301846127d9565b979650505050505050565b6020815260006123e9602083018461279f565b6040815260006128eb604083018561279f565b82810360208401526128fd818561279f565b95945050505050565b6020815260006123e960208301846127d9565b60c08152600061292c60c08301896127d9565b6001600160a01b039790971660208301525060408101949094526060840192909252608083015260a090910152919050565b602081526000825160c0602084015261297a60e08401826127d9565b90506001600160a01b0360208501511660408401526040840151606084015260608401516080840152608084015160a084015260a084015160c08401528091505092915050565b600067ffffffffffffffff8211156129db576129db612ac6565b5060051b60200190565b600082198211156129f8576129f8612ab0565b500190565b6000816000190483118215151615612a1757612a17612ab0565b500290565b600082821015612a2e57612a2e612ab0565b500390565b600181811c90821680612a4757607f821691505b6020821081141561144157634e487b7160e01b600052602260045260246000fd5b601f19601f830116810181811067ffffffffffffffff82111715612a8e57612a8e612ac6565b6040525050565b6000600019821415612aa957612aa9612ab0565b5060010190565b634e487b7160e01b600052601160045260246000fd5b634e487b7160e01b600052604160045260246000fd5b600060033d1115612af157600481823e5160e01c5b90565b600060443d1015612b025790565b6040517ffffffffffffffffffffffffffffffffffffffffffffffffffffffffffffffffc803d016004833e81513d67ffffffffffffffff8160248401118184111715612b5057505050505090565b8285019150815181811115612b685750505050505090565b843d8701016020828501011115612b825750505050505090565b612b9160208286010187612a68565b509095945050505050565b7fffffffff00000000000000000000000000000000000000000000000000000000811681146106e957600080fdfea26469706673582212203136e64484c6d3cc42113d11177773c8826ebbad1e1abea2f5de86f36b12e62a64736f6c63430008040033",
  "linkReferences": {},
  "deployedLinkReferences": {}
}