{
  "_format": "hh-sol-artifact-1",
  "contractName": "NFTV3",
  "sourceName": "contracts/NFTV3.sol",
  "abi": [
    {
      "inputs": [
        {
          "internalType": "string",
          "name": "uri",
          "type": "string"
        },
        {
          "internalType": "address",
          "name": "pathToken",
          "type": "address"
        }
      ],
      "stateMutability": "nonpayable",
      "type": "constructor"
    },
    {
      "anonymous": false,
      "inputs": [
        {
          "indexed": true,
          "internalType": "address",
          "name": "account",
          "type": "address"
        },
        {
          "indexed": true,
          "internalType": "address",
          "name": "operator",
          "type": "address"
        },
        {
          "indexed": false,
          "internalType": "bool",
          "name": "approved",
          "type": "bool"
        }
      ],
      "name": "ApprovalForAll",
      "type": "event"
    },
    {
      "anonymous": false,
      "inputs": [
        {
          "indexed": true,
          "internalType": "address",
          "name": "previousOwner",
          "type": "address"
        },
        {
          "indexed": true,
          "internalType": "address",
          "name": "newOwner",
          "type": "address"
        }
      ],
      "name": "OwnershipTransferred",
      "type": "event"
    },
    {
      "anonymous": false,
      "inputs": [
        {
          "indexed": true,
          "internalType": "address",
          "name": "operator",
          "type": "address"
        },
        {
          "indexed": true,
          "internalType": "address",
          "name": "from",
          "type": "address"
        },
        {
          "indexed": true,
          "internalType": "address",
          "name": "to",
          "type": "address"
        },
        {
          "indexed": false,
          "internalType": "uint256[]",
          "name": "ids",
          "type": "uint256[]"
        },
        {
          "indexed": false,
          "internalType": "uint256[]",
          "name": "values",
          "type": "uint256[]"
        }
      ],
      "name": "TransferBatch",
      "type": "event"
    },
    {
      "anonymous": false,
      "inputs": [
        {
          "indexed": true,
          "internalType": "address",
          "name": "operator",
          "type": "address"
        },
        {
          "indexed": true,
          "internalType": "address",
          "name": "from",
          "type": "address"
        },
        {
          "indexed": true,
          "internalType": "address",
          "name": "to",
          "type": "address"
        },
        {
          "indexed": false,
          "internalType": "uint256",
          "name": "id",
          "type": "uint256"
        },
        {
          "indexed": false,
          "internalType": "uint256",
          "name": "value",
          "type": "uint256"
        }
      ],
      "name": "TransferSingle",
      "type": "event"
    },
    {
      "anonymous": false,
      "inputs": [
        {
          "indexed": false,
          "internalType": "string",
          "name": "value",
          "type": "string"
        },
        {
          "indexed": true,
          "internalType": "uint256",
          "name": "id",
          "type": "uint256"
        }
      ],
      "name": "URI",
      "type": "event"
    },
    {
      "inputs": [],
      "name": "_pathToken",
      "outputs": [
        {
          "internalType": "contract PathToken",
          "name": "",
          "type": "address"
        }
      ],
      "stateMutability": "view",
      "type": "function"
    },
    {
      "inputs": [],
      "name": "_projectCount",
      "outputs": [
        {
          "internalType": "uint256",
          "name": "",
          "type": "uint256"
        }
      ],
      "stateMutability": "view",
      "type": "function"
    },
    {
      "inputs": [
        {
          "internalType": "uint256",
          "name": "",
          "type": "uint256"
        }
      ],
      "name": "_projects",
      "outputs": [
        {
          "internalType": "string",
          "name": "_name",
          "type": "string"
        },
        {
          "internalType": "address",
          "name": "_beneficiary",
          "type": "address"
        },
        {
          "internalType": "uint256",
          "name": "_mintPrice",
          "type": "uint256"
        },
        {
          "internalType": "uint256",
          "name": "_maxSupply",
          "type": "uint256"
        },
        {
          "internalType": "uint256",
          "name": "_amountRaised",
          "type": "uint256"
        },
        {
          "internalType": "uint256",
          "name": "_amountWithdrawn",
          "type": "uint256"
        }
      ],
      "stateMutability": "view",
      "type": "function"
    },
    {
      "inputs": [
        {
          "internalType": "address",
          "name": "account",
          "type": "address"
        },
        {
          "internalType": "uint256",
          "name": "id",
          "type": "uint256"
        }
      ],
      "name": "balanceOf",
      "outputs": [
        {
          "internalType": "uint256",
          "name": "",
          "type": "uint256"
        }
      ],
      "stateMutability": "view",
      "type": "function"
    },
    {
      "inputs": [
        {
          "internalType": "address[]",
          "name": "accounts",
          "type": "address[]"
        },
        {
          "internalType": "uint256[]",
          "name": "ids",
          "type": "uint256[]"
        }
      ],
      "name": "balanceOfBatch",
      "outputs": [
        {
          "internalType": "uint256[]",
          "name": "",
          "type": "uint256[]"
        }
      ],
      "stateMutability": "view",
      "type": "function"
    },
    {
      "inputs": [
        {
          "internalType": "uint256",
          "name": "id",
          "type": "uint256"
        },
        {
          "internalType": "uint256",
          "name": "mintPrice",
          "type": "uint256"
        }
      ],
      "name": "changeMintPrice",
      "outputs": [],
      "stateMutability": "nonpayable",
      "type": "function"
    },
    {
      "inputs": [
        {
          "internalType": "uint256",
          "name": "mintPrice",
          "type": "uint256"
        },
        {
          "internalType": "uint256",
          "name": "maxSupply",
          "type": "uint256"
        },
        {
          "internalType": "string",
          "name": "name",
          "type": "string"
        },
        {
          "internalType": "address",
          "name": "beneficiary",
          "type": "address"
        }
      ],
      "name": "createProject",
      "outputs": [],
      "stateMutability": "nonpayable",
      "type": "function"
    },
    {
      "inputs": [
        {
          "internalType": "uint256",
          "name": "id",
          "type": "uint256"
        }
      ],
      "name": "exists",
      "outputs": [
        {
          "internalType": "bool",
          "name": "",
          "type": "bool"
        }
      ],
      "stateMutability": "view",
      "type": "function"
    },
    {
      "inputs": [
        {
          "internalType": "uint256",
          "name": "id",
          "type": "uint256"
        }
      ],
      "name": "getProject",
      "outputs": [
        {
          "components": [
            {
              "internalType": "string",
              "name": "_name",
              "type": "string"
            },
            {
              "internalType": "address",
              "name": "_beneficiary",
              "type": "address"
            },
            {
              "internalType": "uint256",
              "name": "_mintPrice",
              "type": "uint256"
            },
            {
              "internalType": "uint256",
              "name": "_maxSupply",
              "type": "uint256"
            },
            {
              "internalType": "uint256",
              "name": "_amountRaised",
              "type": "uint256"
            },
            {
              "internalType": "uint256",
              "name": "_amountWithdrawn",
              "type": "uint256"
            }
          ],
          "internalType": "struct NFTV3.Project",
          "name": "",
          "type": "tuple"
        }
      ],
      "stateMutability": "view",
      "type": "function"
    },
    {
      "inputs": [
        {
          "internalType": "uint256",
          "name": "id",
          "type": "uint256"
        },
        {
          "internalType": "uint256",
          "name": "amount",
          "type": "uint256"
        }
      ],
      "name": "increaseMaxSupply",
      "outputs": [],
      "stateMutability": "nonpayable",
      "type": "function"
    },
    {
      "inputs": [
        {
          "internalType": "address",
          "name": "account",
          "type": "address"
        },
        {
          "internalType": "address",
          "name": "operator",
          "type": "address"
        }
      ],
      "name": "isApprovedForAll",
      "outputs": [
        {
          "internalType": "bool",
          "name": "",
          "type": "bool"
        }
      ],
      "stateMutability": "view",
      "type": "function"
    },
    {
      "inputs": [
        {
          "internalType": "uint256",
          "name": "id",
          "type": "uint256"
        },
        {
          "internalType": "uint256",
          "name": "amount",
          "type": "uint256"
        }
      ],
      "name": "mint",
      "outputs": [],
      "stateMutability": "payable",
      "type": "function"
    },
    {
      "inputs": [],
      "name": "owner",
      "outputs": [
        {
          "internalType": "address",
          "name": "",
          "type": "address"
        }
      ],
      "stateMutability": "view",
      "type": "function"
    },
    {
      "inputs": [],
      "name": "renounceOwnership",
      "outputs": [],
      "stateMutability": "nonpayable",
      "type": "function"
    },
    {
      "inputs": [
        {
          "internalType": "address",
          "name": "from",
          "type": "address"
        },
        {
          "internalType": "address",
          "name": "to",
          "type": "address"
        },
        {
          "internalType": "uint256[]",
          "name": "ids",
          "type": "uint256[]"
        },
        {
          "internalType": "uint256[]",
          "name": "amounts",
          "type": "uint256[]"
        },
        {
          "internalType": "bytes",
          "name": "data",
          "type": "bytes"
        }
      ],
      "name": "safeBatchTransferFrom",
      "outputs": [],
      "stateMutability": "nonpayable",
      "type": "function"
    },
    {
      "inputs": [
        {
          "internalType": "address",
          "name": "from",
          "type": "address"
        },
        {
          "internalType": "address",
          "name": "to",
          "type": "address"
        },
        {
          "internalType": "uint256",
          "name": "id",
          "type": "uint256"
        },
        {
          "internalType": "uint256",
          "name": "amount",
          "type": "uint256"
        },
        {
          "internalType": "bytes",
          "name": "data",
          "type": "bytes"
        }
      ],
      "name": "safeTransferFrom",
      "outputs": [],
      "stateMutability": "nonpayable",
      "type": "function"
    },
    {
      "inputs": [
        {
          "internalType": "address",
          "name": "operator",
          "type": "address"
        },
        {
          "internalType": "bool",
          "name": "approved",
          "type": "bool"
        }
      ],
      "name": "setApprovalForAll",
      "outputs": [],
      "stateMutability": "nonpayable",
      "type": "function"
    },
    {
      "inputs": [
        {
          "internalType": "string",
          "name": "newuri",
          "type": "string"
        }
      ],
      "name": "setURI",
      "outputs": [],
      "stateMutability": "nonpayable",
      "type": "function"
    },
    {
      "inputs": [
        {
          "internalType": "bytes4",
          "name": "interfaceId",
          "type": "bytes4"
        }
      ],
      "name": "supportsInterface",
      "outputs": [
        {
          "internalType": "bool",
          "name": "",
          "type": "bool"
        }
      ],
      "stateMutability": "view",
      "type": "function"
    },
    {
      "inputs": [
        {
          "internalType": "uint256",
          "name": "id",
          "type": "uint256"
        }
      ],
      "name": "totalSupply",
      "outputs": [
        {
          "internalType": "uint256",
          "name": "",
          "type": "uint256"
        }
      ],
      "stateMutability": "view",
      "type": "function"
    },
    {
      "inputs": [
        {
          "internalType": "address",
          "name": "newOwner",
          "type": "address"
        }
      ],
      "name": "transferOwnership",
      "outputs": [],
      "stateMutability": "nonpayable",
      "type": "function"
    },
    {
      "inputs": [
        {
          "internalType": "uint256",
          "name": "id",
          "type": "uint256"
        },
        {
          "internalType": "string",
          "name": "name",
          "type": "string"
        }
      ],
      "name": "updateProjectInfo",
      "outputs": [],
      "stateMutability": "nonpayable",
      "type": "function"
    },
    {
      "inputs": [
        {
          "internalType": "uint256",
          "name": "",
          "type": "uint256"
        }
      ],
      "name": "uri",
      "outputs": [
        {
          "internalType": "string",
          "name": "",
          "type": "string"
        }
      ],
      "stateMutability": "view",
      "type": "function"
    },
    {
      "inputs": [
        {
          "internalType": "uint256",
          "name": "id",
          "type": "uint256"
        }
      ],
      "name": "withdrawEth",
      "outputs": [],
      "stateMutability": "nonpayable",
      "type": "function"
    },
    {
      "stateMutability": "payable",
      "type": "receive"
    }
  ],
  "bytecode": "0x60806040523480156200001157600080fd5b5060405162002d9738038062002d978339810160408190526200003491620001a1565b81620000408162000073565b506200004c336200008c565b600580546001600160a01b0319166001600160a01b039290921691909117905550620002df565b805162000088906002906020840190620000de565b5050565b600380546001600160a01b038381166001600160a01b0319831681179093556040519116919082907f8be0079c531659141344cd1fd0a4f28419497f9722a3daafe3b4186f6b6457e090600090a35050565b828054620000ec906200028c565b90600052602060002090601f0160209004810192826200011057600085556200015b565b82601f106200012b57805160ff19168380011785556200015b565b828001600101855582156200015b579182015b828111156200015b5782518255916020019190600101906200013e565b50620001699291506200016d565b5090565b5b808211156200016957600081556001016200016e565b80516001600160a01b03811681146200019c57600080fd5b919050565b60008060408385031215620001b4578182fd5b82516001600160401b0380821115620001cb578384fd5b818501915085601f830112620001df578384fd5b815181811115620001f457620001f4620002c9565b604051601f8201601f19908116603f011681019083821181831017156200021f576200021f620002c9565b816040528281526020935088848487010111156200023b578687fd5b8691505b828210156200025e57848201840151818301850152908301906200023f565b828211156200026f57868484830101525b95506200028191505085820162000184565b925050509250929050565b600181811c90821680620002a157607f821691505b60208210811415620002c357634e487b7160e01b600052602260045260246000fd5b50919050565b634e487b7160e01b600052604160045260246000fd5b612aa880620002ef6000396000f3fe60806040526004361061018e5760003560e01c80638da5cb5b116100d6578063c311d0491161007f578063f0f3f2c811610059578063f0f3f2c8146104c0578063f242432a146104ed578063f2fde38b1461050d57600080fd5b8063c311d04914610441578063e474118914610461578063e985e9c51461047757600080fd5b8063bab4de49116100b0578063bab4de49146103d4578063bd85b039146103f4578063beefc1491461042157600080fd5b80638da5cb5b14610362578063a22cb46514610394578063b5d14bba146103b457600080fd5b80634e1273f41161013857806370342d0c1161011257806370342d0c146102fb578063715018a61461031b578063821f9dc91461033057600080fd5b80634e1273f41461027f5780634f558e79146102ac578063539b2226146102db57600080fd5b80630e89341c116101695780630e89341c1461021f5780631b2ef1ca1461024c5780632eb2c2d61461025f57600080fd5b8062fdd58e1461019a57806301ffc9a7146101cd57806302fe5305146101fd57600080fd5b3661019557005b600080fd5b3480156101a657600080fd5b506101ba6101b5366004612423565b61052d565b6040519081526020015b60405180910390f35b3480156101d957600080fd5b506101ed6101e8366004612517565b6105d6565b60405190151581526020016101c4565b34801561020957600080fd5b5061021d61021836600461254f565b610673565b005b34801561022b57600080fd5b5061023f61023a36600461258a565b6106d9565b6040516101c491906127c4565b61021d61025a3660046125dd565b61076d565b34801561026b57600080fd5b5061021d61027a3660046122e0565b61094f565b34801561028b57600080fd5b5061029f61029a36600461244c565b6109f1565b6040516101c49190612783565b3480156102b857600080fd5b506101ed6102c736600461258a565b600090815260046020526040902054151590565b3480156102e757600080fd5b5061021d6102f63660046125fe565b610b67565b34801561030757600080fd5b5061021d6103163660046125dd565b610d57565b34801561032757600080fd5b5061021d610e6e565b34801561033c57600080fd5b5061035061034b36600461258a565b610ed4565b6040516101c4969594939291906127d7565b34801561036e57600080fd5b506003546001600160a01b03165b6040516001600160a01b0390911681526020016101c4565b3480156103a057600080fd5b5061021d6103af3660046123e9565b610f9b565b3480156103c057600080fd5b5061021d6103cf3660046125a2565b610faa565b3480156103e057600080fd5b5061021d6103ef3660046125dd565b61107e565b34801561040057600080fd5b506101ba61040f36600461258a565b60009081526004602052604090205490565b34801561042d57600080fd5b5060055461037c906001600160a01b031681565b34801561044d57600080fd5b5061021d61045c36600461258a565b611152565b34801561046d57600080fd5b506101ba60065481565b34801561048357600080fd5b506101ed6104923660046122ae565b6001600160a01b03918216600090815260016020908152604080832093909416825291909152205460ff1690565b3480156104cc57600080fd5b506104e06104db36600461258a565b6112ba565b6040516101c4919061281c565b3480156104f957600080fd5b5061021d610508366004612386565b611442565b34801561051957600080fd5b5061021d61052836600461228d565b6114dd565b60006001600160a01b0383166105b05760405162461bcd60e51b815260206004820152602b60248201527f455243313135353a2062616c616e636520717565727920666f7220746865207a60448201527f65726f206164647265737300000000000000000000000000000000000000000060648201526084015b60405180910390fd5b506000908152602081815260408083206001600160a01b03949094168352929052205490565b60006001600160e01b031982167fd9b67a2600000000000000000000000000000000000000000000000000000000148061063957506001600160e01b031982167f0e89341c00000000000000000000000000000000000000000000000000000000145b8061066d57507f01ffc9a7000000000000000000000000000000000000000000000000000000006001600160e01b03198316145b92915050565b6003546001600160a01b031633146106cd5760405162461bcd60e51b815260206004820181905260248201527f4f776e61626c653a2063616c6c6572206973206e6f7420746865206f776e657260448201526064016105a7565b6106d6816115bc565b50565b6060600280546106e890612911565b80601f016020809104026020016040519081016040528092919081815260200182805461071490612911565b80156107615780601f1061073657610100808354040283529160200191610761565b820191906000526020600020905b81548152906001019060200180831161074457829003601f168201915b50505050509050919050565b81600654811115801561077f57508015155b6107c45760405162461bcd60e51b8152602060048201526016602482015275141c9bda9958dd08191bd95cc81b9bdd08195e1a5cdd60521b60448201526064016105a7565b6000838152600760209081526040808320600381015460049093529220546107ed9085906128a3565b111561083b5760405162461bcd60e51b815260206004820152601960248201527f4e6f7420656e6f75676820746f6b656e7320746f206d696e740000000000000060448201526064016105a7565b82816002015461084b91906128db565b34101561089a5760405162461bcd60e51b815260206004820152600e60248201527f4e6f7420656e6f7567682045544800000000000000000000000000000000000060448201526064016105a7565b6108b5338585604051806020016040528060008152506115cf565b6005546001600160a01b03166340c10f19336108d26064346128bb565b6040516001600160e01b031960e085901b1681526001600160a01b0390921660048301526024820152604401600060405180830381600087803b15801561091857600080fd5b505af115801561092c573d6000803e3d6000fd5b505050503481600401600082825461094491906128a3565b909155505050505050565b6001600160a01b03851633148061096b575061096b8533610492565b6109dd5760405162461bcd60e51b815260206004820152603260248201527f455243313135353a207472616e736665722063616c6c6572206973206e6f742060448201527f6f776e6572206e6f7220617070726f766564000000000000000000000000000060648201526084016105a7565b6109ea85858585856116fb565b5050505050565b60608151835114610a6a5760405162461bcd60e51b815260206004820152602960248201527f455243313135353a206163636f756e747320616e6420696473206c656e67746860448201527f206d69736d61746368000000000000000000000000000000000000000000000060648201526084016105a7565b6000835167ffffffffffffffff811115610a9457634e487b7160e01b600052604160045260246000fd5b604051908082528060200260200182016040528015610abd578160200160208202803683370190505b50905060005b8451811015610b5f57610b24858281518110610aef57634e487b7160e01b600052603260045260246000fd5b6020026020010151858381518110610b1757634e487b7160e01b600052603260045260246000fd5b602002602001015161052d565b828281518110610b4457634e487b7160e01b600052603260045260246000fd5b6020908102919091010152610b5881612973565b9050610ac3565b509392505050565b6003546001600160a01b03163314610bc15760405162461bcd60e51b815260206004820181905260248201527f4f776e61626c653a2063616c6c6572206973206e6f7420746865206f776e657260448201526064016105a7565b60008411610c1b5760405162461bcd60e51b815260206004820152602160248201527f4d696e74207072696365206d7573742062652067726561746572207468616e206044820152600360fc1b60648201526084016105a7565b60008311610c755760405162461bcd60e51b815260206004820152602160248201527f4d617820737570706c79206d7573742062652067726561746572207468616e206044820152600360fc1b60648201526084016105a7565b60068054906000610c8583612973565b91905055506040518060c00160405280838152602001826001600160a01b031681526020018581526020018481526020016000815260200160008152506007600060065481526020019081526020016000206000820151816000019080519060200190610cf39291906120f5565b50602082015160018201805473ffffffffffffffffffffffffffffffffffffffff19166001600160a01b0390921691909117905560408201516002820155606082015160038201556080820151600482015560a09091015160059091015550505050565b6003546001600160a01b03163314610db15760405162461bcd60e51b815260206004820181905260248201527f4f776e61626c653a2063616c6c6572206973206e6f7420746865206f776e657260448201526064016105a7565b816006548111158015610dc357508015155b610e085760405162461bcd60e51b8152602060048201526016602482015275141c9bda9958dd08191bd95cc81b9bdd08195e1a5cdd60521b60448201526064016105a7565b60008211610e585760405162461bcd60e51b815260206004820152601160248201527f6d696e74507269636520696e76616c696400000000000000000000000000000060448201526064016105a7565b5060009182526007602052604090912060020155565b6003546001600160a01b03163314610ec85760405162461bcd60e51b815260206004820181905260248201527f4f776e61626c653a2063616c6c6572206973206e6f7420746865206f776e657260448201526064016105a7565b610ed26000611998565b565b600760205260009081526040902080548190610eef90612911565b80601f0160208091040260200160405190810160405280929190818152602001828054610f1b90612911565b8015610f685780601f10610f3d57610100808354040283529160200191610f68565b820191906000526020600020905b815481529060010190602001808311610f4b57829003601f168201915b505050600184015460028501546003860154600487015460059097015495966001600160a01b0390931695919450925086565b610fa63383836119f7565b5050565b6003546001600160a01b031633146110045760405162461bcd60e51b815260206004820181905260248201527f4f776e61626c653a2063616c6c6572206973206e6f7420746865206f776e657260448201526064016105a7565b81600654811115801561101657508015155b61105b5760405162461bcd60e51b8152602060048201526016602482015275141c9bda9958dd08191bd95cc81b9bdd08195e1a5cdd60521b60448201526064016105a7565b6000838152600760209081526040909120835190916109ea9183918601906120f5565b6003546001600160a01b031633146110d85760405162461bcd60e51b815260206004820181905260248201527f4f776e61626c653a2063616c6c6572206973206e6f7420746865206f776e657260448201526064016105a7565b8160065481111580156110ea57508015155b61112f5760405162461bcd60e51b8152602060048201526016602482015275141c9bda9958dd08191bd95cc81b9bdd08195e1a5cdd60521b60448201526064016105a7565b6000838152600760205260408120600381018054919285926109449084906128a3565b80600654811115801561116457508015155b6111a95760405162461bcd60e51b8152602060048201526016602482015275141c9bda9958dd08191bd95cc81b9bdd08195e1a5cdd60521b60448201526064016105a7565b600082815260076020526040902060018101546001600160a01b031633146112135760405162461bcd60e51b815260206004820152601d60248201527f4f6e6c792062656e65666963696172792063616e20776974686472617700000060448201526064016105a7565b806004015481600501541061126a5760405162461bcd60e51b815260206004820152601760248201527f4e6f206d6f72652045544820746f20776974686472617700000000000000000060448201526064016105a7565b60008160050154826004015461128091906128fa565b60048301546005840155604051909150339082156108fc029083906000818181858888f193505050501580156109ea573d6000803e3d6000fd5b6112fc6040518060c001604052806060815260200160006001600160a01b03168152602001600081526020016000815260200160008152602001600081525090565b81600654811115801561130e57508015155b6113535760405162461bcd60e51b8152602060048201526016602482015275141c9bda9958dd08191bd95cc81b9bdd08195e1a5cdd60521b60448201526064016105a7565b600083815260076020526040808220815160c0810190925280548290829061137a90612911565b80601f01602080910402602001604051908101604052809291908181526020018280546113a690612911565b80156113f35780601f106113c8576101008083540402835291602001916113f3565b820191906000526020600020905b8154815290600101906020018083116113d657829003601f168201915b505050918352505060018201546001600160a01b0316602082015260028201546040820152600382015460608201526004820154608082015260059091015460a0909101529250505b50919050565b6001600160a01b03851633148061145e575061145e8533610492565b6114d05760405162461bcd60e51b815260206004820152602960248201527f455243313135353a2063616c6c6572206973206e6f74206f776e6572206e6f7260448201527f20617070726f766564000000000000000000000000000000000000000000000060648201526084016105a7565b6109ea8585858585611aec565b6003546001600160a01b031633146115375760405162461bcd60e51b815260206004820181905260248201527f4f776e61626c653a2063616c6c6572206973206e6f7420746865206f776e657260448201526064016105a7565b6001600160a01b0381166115b35760405162461bcd60e51b815260206004820152602660248201527f4f776e61626c653a206e6577206f776e657220697320746865207a65726f206160448201527f646472657373000000000000000000000000000000000000000000000000000060648201526084016105a7565b6106d681611998565b8051610fa69060029060208401906120f5565b6001600160a01b03841661164b5760405162461bcd60e51b815260206004820152602160248201527f455243313135353a206d696e7420746f20746865207a65726f2061646472657360448201527f730000000000000000000000000000000000000000000000000000000000000060648201526084016105a7565b3361166b8160008761165c88611c8a565b61166588611c8a565b87611ce3565b6000848152602081815260408083206001600160a01b03891684529091528120805485929061169b9084906128a3565b909155505060408051858152602081018590526001600160a01b0380881692600092918516917fc3d58168c5ae7397731d063d5bbf3d657854427343f4c083240f7aacaa2d0f62910160405180910390a46109ea81600087878787611cf1565b81518351146117725760405162461bcd60e51b815260206004820152602860248201527f455243313135353a2069647320616e6420616d6f756e7473206c656e6774682060448201527f6d69736d6174636800000000000000000000000000000000000000000000000060648201526084016105a7565b6001600160a01b0384166117d65760405162461bcd60e51b815260206004820152602560248201527f455243313135353a207472616e7366657220746f20746865207a65726f206164604482015264647265737360d81b60648201526084016105a7565b336117e5818787878787611ce3565b60005b845181101561192a57600085828151811061181357634e487b7160e01b600052603260045260246000fd5b60200260200101519050600085838151811061183f57634e487b7160e01b600052603260045260246000fd5b602090810291909101810151600084815280835260408082206001600160a01b038e1683529093529190912054909150818110156118d25760405162461bcd60e51b815260206004820152602a60248201527f455243313135353a20696e73756666696369656e742062616c616e636520666f60448201526939103a3930b739b332b960b11b60648201526084016105a7565b6000838152602081815260408083206001600160a01b038e8116855292528083208585039055908b1682528120805484929061190f9084906128a3565b925050819055505050508061192390612973565b90506117e8565b50846001600160a01b0316866001600160a01b0316826001600160a01b03167f4a39dc06d4c0dbc64b70af90fd698a233a518aa5d07e595d983b8c0526c8f7fb878760405161197a929190612796565b60405180910390a4611990818787878787611ea6565b505050505050565b600380546001600160a01b0383811673ffffffffffffffffffffffffffffffffffffffff19831681179093556040519116919082907f8be0079c531659141344cd1fd0a4f28419497f9722a3daafe3b4186f6b6457e090600090a35050565b816001600160a01b0316836001600160a01b03161415611a7f5760405162461bcd60e51b815260206004820152602960248201527f455243313135353a2073657474696e6720617070726f76616c2073746174757360448201527f20666f722073656c66000000000000000000000000000000000000000000000060648201526084016105a7565b6001600160a01b03838116600081815260016020908152604080832094871680845294825291829020805460ff191686151590811790915591519182527f17307eab39ab6107e8899845ad3d59bd9653f200f220920489ca2b5937696c31910160405180910390a3505050565b6001600160a01b038416611b505760405162461bcd60e51b815260206004820152602560248201527f455243313135353a207472616e7366657220746f20746865207a65726f206164604482015264647265737360d81b60648201526084016105a7565b33611b6081878761165c88611c8a565b6000848152602081815260408083206001600160a01b038a16845290915290205483811015611be45760405162461bcd60e51b815260206004820152602a60248201527f455243313135353a20696e73756666696369656e742062616c616e636520666f60448201526939103a3930b739b332b960b11b60648201526084016105a7565b6000858152602081815260408083206001600160a01b038b8116855292528083208785039055908816825281208054869290611c219084906128a3565b909155505060408051868152602081018690526001600160a01b03808916928a821692918616917fc3d58168c5ae7397731d063d5bbf3d657854427343f4c083240f7aacaa2d0f62910160405180910390a4611c81828888888888611cf1565b50505050505050565b60408051600180825281830190925260609160009190602080830190803683370190505090508281600081518110611cd257634e487b7160e01b600052603260045260246000fd5b602090810291909101015292915050565b611990868686868686611fb1565b6001600160a01b0384163b156119905760405163f23a6e6160e01b81526001600160a01b0385169063f23a6e6190611d359089908990889088908890600401612740565b602060405180830381600087803b158015611d4f57600080fd5b505af1925050508015611d7f575060408051601f3d908101601f19168201909252611d7c91810190612533565b60015b611e3557611d8b6129ba565b806308c379a01415611dc55750611da06129d2565b80611dab5750611dc7565b8060405162461bcd60e51b81526004016105a791906127c4565b505b60405162461bcd60e51b815260206004820152603460248201527f455243313135353a207472616e7366657220746f206e6f6e204552433131353560448201527f526563656976657220696d706c656d656e74657200000000000000000000000060648201526084016105a7565b6001600160e01b0319811663f23a6e6160e01b14611c815760405162461bcd60e51b815260206004820152602860248201527f455243313135353a204552433131353552656365697665722072656a656374656044820152676420746f6b656e7360c01b60648201526084016105a7565b6001600160a01b0384163b156119905760405163bc197c8160e01b81526001600160a01b0385169063bc197c8190611eea90899089908890889088906004016126e2565b602060405180830381600087803b158015611f0457600080fd5b505af1925050508015611f34575060408051601f3d908101601f19168201909252611f3191810190612533565b60015b611f4057611d8b6129ba565b6001600160e01b0319811663bc197c8160e01b14611c815760405162461bcd60e51b815260206004820152602860248201527f455243313135353a204552433131353552656365697665722072656a656374656044820152676420746f6b656e7360c01b60648201526084016105a7565b6001600160a01b0385166120545760005b835181101561205257828181518110611feb57634e487b7160e01b600052603260045260246000fd5b60200260200101516004600086848151811061201757634e487b7160e01b600052603260045260246000fd5b60200260200101518152602001908152602001600020600082825461203c91906128a3565b9091555061204b905081612973565b9050611fc2565b505b6001600160a01b0384166119905760005b8351811015611c815782818151811061208e57634e487b7160e01b600052603260045260246000fd5b6020026020010151600460008684815181106120ba57634e487b7160e01b600052603260045260246000fd5b6020026020010151815260200190815260200160002060008282546120df91906128fa565b909155506120ee905081612973565b9050612065565b82805461210190612911565b90600052602060002090601f0160209004810192826121235760008555612169565b82601f1061213c57805160ff1916838001178555612169565b82800160010185558215612169579182015b8281111561216957825182559160200191906001019061214e565b50612175929150612179565b5090565b5b80821115612175576000815560010161217a565b80356001600160a01b03811681146121a557600080fd5b919050565b600082601f8301126121ba578081fd5b813560206121c78261287f565b6040516121d48282612946565b8381528281019150858301600585901b870184018810156121f3578586fd5b855b85811015612211578135845292840192908401906001016121f5565b5090979650505050505050565b600082601f83011261222e578081fd5b813567ffffffffffffffff811115612248576122486129a4565b60405161225f601f8301601f191660200182612946565b818152846020838601011115612273578283fd5b816020850160208301379081016020019190915292915050565b60006020828403121561229e578081fd5b6122a78261218e565b9392505050565b600080604083850312156122c0578081fd5b6122c98361218e565b91506122d76020840161218e565b90509250929050565b600080600080600060a086880312156122f7578081fd5b6123008661218e565b945061230e6020870161218e565b9350604086013567ffffffffffffffff8082111561232a578283fd5b61233689838a016121aa565b9450606088013591508082111561234b578283fd5b61235789838a016121aa565b9350608088013591508082111561236c578283fd5b506123798882890161221e565b9150509295509295909350565b600080600080600060a0868803121561239d578081fd5b6123a68661218e565b94506123b46020870161218e565b93506040860135925060608601359150608086013567ffffffffffffffff8111156123dd578182fd5b6123798882890161221e565b600080604083850312156123fb578182fd5b6124048361218e565b915060208301358015158114612418578182fd5b809150509250929050565b60008060408385031215612435578182fd5b61243e8361218e565b946020939093013593505050565b6000806040838503121561245e578182fd5b823567ffffffffffffffff80821115612475578384fd5b818501915085601f830112612488578384fd5b813560206124958261287f565b6040516124a28282612946565b8381528281019150858301600585901b870184018b10156124c1578889fd5b8896505b848710156124ea576124d68161218e565b8352600196909601959183019183016124c5565b5096505086013592505080821115612500578283fd5b5061250d858286016121aa565b9150509250929050565b600060208284031215612528578081fd5b81356122a781612a5c565b600060208284031215612544578081fd5b81516122a781612a5c565b600060208284031215612560578081fd5b813567ffffffffffffffff811115612576578182fd5b6125828482850161221e565b949350505050565b60006020828403121561259b578081fd5b5035919050565b600080604083850312156125b4578182fd5b82359150602083013567ffffffffffffffff8111156125d1578182fd5b61250d8582860161221e565b600080604083850312156125ef578182fd5b50508035926020909101359150565b60008060008060808587031215612613578182fd5b8435935060208501359250604085013567ffffffffffffffff811115612637578283fd5b6126438782880161221e565b9250506126526060860161218e565b905092959194509250565b6000815180845260208085019450808401835b8381101561268c57815187529582019590820190600101612670565b509495945050505050565b60008151808452815b818110156126bc576020818501810151868301820152016126a0565b818111156126cd5782602083870101525b50601f01601f19169290920160200192915050565b60006001600160a01b03808816835280871660208401525060a0604083015261270e60a083018661265d565b8281036060840152612720818661265d565b905082810360808401526127348185612697565b98975050505050505050565b60006001600160a01b03808816835280871660208401525084604083015283606083015260a0608083015261277860a0830184612697565b979650505050505050565b6020815260006122a7602083018461265d565b6040815260006127a9604083018561265d565b82810360208401526127bb818561265d565b95945050505050565b6020815260006122a76020830184612697565b60c0815260006127ea60c0830189612697565b6001600160a01b039790971660208301525060408101949094526060840192909252608083015260a090910152919050565b602081526000825160c0602084015261283860e0840182612697565b90506001600160a01b0360208501511660408401526040840151606084015260608401516080840152608084015160a084015260a084015160c08401528091505092915050565b600067ffffffffffffffff821115612899576128996129a4565b5060051b60200190565b600082198211156128b6576128b661298e565b500190565b6000826128d657634e487b7160e01b81526012600452602481fd5b500490565b60008160001904831182151516156128f5576128f561298e565b500290565b60008282101561290c5761290c61298e565b500390565b600181811c9082168061292557607f821691505b6020821081141561143c57634e487b7160e01b600052602260045260246000fd5b601f8201601f1916810167ffffffffffffffff8111828210171561296c5761296c6129a4565b6040525050565b60006000198214156129875761298761298e565b5060010190565b634e487b7160e01b600052601160045260246000fd5b634e487b7160e01b600052604160045260246000fd5b600060033d11156129cf57600481823e5160e01c5b90565b600060443d10156129e05790565b6040516003193d81016004833e81513d67ffffffffffffffff8160248401118184111715612a1057505050505090565b8285019150815181811115612a285750505050505090565b843d8701016020828501011115612a425750505050505090565b612a5160208286010187612946565b509095945050505050565b6001600160e01b0319811681146106d657600080fdfea2646970667358221220a50b822a560e1c5c3b6956edb3829559cd0fea0abe2241accd4ca853ea45fc1464736f6c63430008040033",
  "linkReferences": {},
  "deployedLinkReferences": {}
}