{
  "_format": "hh-sol-artifact-1",
  "contractName": "NFTV3",
  "sourceName": "contracts/NFTV3.sol",
  "abi": [
    {
      "inputs": [
        {
          "internalType": "string",
          "name": "uri",
          "type": "string"
        },
        {
          "internalType": "address",
          "name": "pathToken",
          "type": "address"
        }
      ],
      "stateMutability": "nonpayable",
      "type": "constructor"
    },
    {
      "anonymous": false,
      "inputs": [
        {
          "indexed": true,
          "internalType": "address",
          "name": "account",
          "type": "address"
        },
        {
          "indexed": true,
          "internalType": "address",
          "name": "operator",
          "type": "address"
        },
        {
          "indexed": false,
          "internalType": "bool",
          "name": "approved",
          "type": "bool"
        }
      ],
      "name": "ApprovalForAll",
      "type": "event"
    },
    {
      "anonymous": false,
      "inputs": [
        {
          "indexed": true,
          "internalType": "address",
          "name": "previousOwner",
          "type": "address"
        },
        {
          "indexed": true,
          "internalType": "address",
          "name": "newOwner",
          "type": "address"
        }
      ],
      "name": "OwnershipTransferred",
      "type": "event"
    },
    {
      "anonymous": false,
      "inputs": [
        {
          "indexed": true,
          "internalType": "address",
          "name": "operator",
          "type": "address"
        },
        {
          "indexed": true,
          "internalType": "address",
          "name": "from",
          "type": "address"
        },
        {
          "indexed": true,
          "internalType": "address",
          "name": "to",
          "type": "address"
        },
        {
          "indexed": false,
          "internalType": "uint256[]",
          "name": "ids",
          "type": "uint256[]"
        },
        {
          "indexed": false,
          "internalType": "uint256[]",
          "name": "values",
          "type": "uint256[]"
        }
      ],
      "name": "TransferBatch",
      "type": "event"
    },
    {
      "anonymous": false,
      "inputs": [
        {
          "indexed": true,
          "internalType": "address",
          "name": "operator",
          "type": "address"
        },
        {
          "indexed": true,
          "internalType": "address",
          "name": "from",
          "type": "address"
        },
        {
          "indexed": true,
          "internalType": "address",
          "name": "to",
          "type": "address"
        },
        {
          "indexed": false,
          "internalType": "uint256",
          "name": "id",
          "type": "uint256"
        },
        {
          "indexed": false,
          "internalType": "uint256",
          "name": "value",
          "type": "uint256"
        }
      ],
      "name": "TransferSingle",
      "type": "event"
    },
    {
      "anonymous": false,
      "inputs": [
        {
          "indexed": false,
          "internalType": "string",
          "name": "value",
          "type": "string"
        },
        {
          "indexed": true,
          "internalType": "uint256",
          "name": "id",
          "type": "uint256"
        }
      ],
      "name": "URI",
      "type": "event"
    },
    {
      "inputs": [],
      "name": "_pathToken",
      "outputs": [
        {
          "internalType": "contract PathToken",
          "name": "",
          "type": "address"
        }
      ],
      "stateMutability": "view",
      "type": "function"
    },
    {
      "inputs": [],
      "name": "_projectCount",
      "outputs": [
        {
          "internalType": "uint256",
          "name": "",
          "type": "uint256"
        }
      ],
      "stateMutability": "view",
      "type": "function"
    },
    {
      "inputs": [
        {
          "internalType": "uint256",
          "name": "",
          "type": "uint256"
        }
      ],
      "name": "_projects",
      "outputs": [
        {
          "internalType": "string",
          "name": "_name",
          "type": "string"
        },
        {
          "internalType": "address",
          "name": "_beneficiary",
          "type": "address"
        },
        {
          "internalType": "uint256",
          "name": "_mintPriceHBAR",
          "type": "uint256"
        },
        {
          "internalType": "uint256",
          "name": "_maxNFTSupply",
          "type": "uint256"
        },
        {
          "internalType": "uint256",
          "name": "_amountRaised",
          "type": "uint256"
        },
        {
          "internalType": "uint256",
          "name": "_amountWithdrawn",
          "type": "uint256"
        }
      ],
      "stateMutability": "view",
      "type": "function"
    },
    {
      "inputs": [
        {
          "internalType": "address",
          "name": "account",
          "type": "address"
        },
        {
          "internalType": "uint256",
          "name": "id",
          "type": "uint256"
        }
      ],
      "name": "balanceOf",
      "outputs": [
        {
          "internalType": "uint256",
          "name": "",
          "type": "uint256"
        }
      ],
      "stateMutability": "view",
      "type": "function"
    },
    {
      "inputs": [
        {
          "internalType": "address[]",
          "name": "accounts",
          "type": "address[]"
        },
        {
          "internalType": "uint256[]",
          "name": "ids",
          "type": "uint256[]"
        }
      ],
      "name": "balanceOfBatch",
      "outputs": [
        {
          "internalType": "uint256[]",
          "name": "",
          "type": "uint256[]"
        }
      ],
      "stateMutability": "view",
      "type": "function"
    },
    {
      "inputs": [
        {
          "internalType": "uint256",
          "name": "id",
          "type": "uint256"
        },
        {
          "internalType": "uint256",
          "name": "mintPriceHBAR",
          "type": "uint256"
        }
      ],
      "name": "changemintPriceHBAR",
      "outputs": [],
      "stateMutability": "nonpayable",
      "type": "function"
    },
    {
      "inputs": [
        {
          "internalType": "uint256",
          "name": "mintPriceHBAR",
          "type": "uint256"
        },
        {
          "internalType": "uint256",
          "name": "maxNFTSupply",
          "type": "uint256"
        },
        {
          "internalType": "string",
          "name": "name",
          "type": "string"
        },
        {
          "internalType": "address",
          "name": "beneficiary",
          "type": "address"
        }
      ],
      "name": "createProject",
      "outputs": [],
      "stateMutability": "nonpayable",
      "type": "function"
    },
    {
      "inputs": [
        {
          "internalType": "uint256",
          "name": "id",
          "type": "uint256"
        }
      ],
      "name": "exists",
      "outputs": [
        {
          "internalType": "bool",
          "name": "",
          "type": "bool"
        }
      ],
      "stateMutability": "view",
      "type": "function"
    },
    {
      "inputs": [
        {
          "internalType": "uint256",
          "name": "id",
          "type": "uint256"
        }
      ],
      "name": "getProject",
      "outputs": [
        {
          "components": [
            {
              "internalType": "string",
              "name": "_name",
              "type": "string"
            },
            {
              "internalType": "address",
              "name": "_beneficiary",
              "type": "address"
            },
            {
              "internalType": "uint256",
              "name": "_mintPriceHBAR",
              "type": "uint256"
            },
            {
              "internalType": "uint256",
              "name": "_maxNFTSupply",
              "type": "uint256"
            },
            {
              "internalType": "uint256",
              "name": "_amountRaised",
              "type": "uint256"
            },
            {
              "internalType": "uint256",
              "name": "_amountWithdrawn",
              "type": "uint256"
            }
          ],
          "internalType": "struct NFTV3.Project",
          "name": "",
          "type": "tuple"
        }
      ],
      "stateMutability": "view",
      "type": "function"
    },
    {
      "inputs": [
        {
          "internalType": "uint256",
          "name": "id",
          "type": "uint256"
        },
        {
          "internalType": "uint256",
          "name": "amount",
          "type": "uint256"
        }
      ],
      "name": "increasemaxNFTSupply",
      "outputs": [],
      "stateMutability": "nonpayable",
      "type": "function"
    },
    {
      "inputs": [
        {
          "internalType": "address",
          "name": "account",
          "type": "address"
        },
        {
          "internalType": "address",
          "name": "operator",
          "type": "address"
        }
      ],
      "name": "isApprovedForAll",
      "outputs": [
        {
          "internalType": "bool",
          "name": "",
          "type": "bool"
        }
      ],
      "stateMutability": "view",
      "type": "function"
    },
    {
      "inputs": [
        {
          "internalType": "uint256",
          "name": "id",
          "type": "uint256"
        },
        {
          "internalType": "uint256",
          "name": "amount",
          "type": "uint256"
        }
      ],
      "name": "mint",
      "outputs": [],
      "stateMutability": "payable",
      "type": "function"
    },
    {
      "inputs": [],
      "name": "owner",
      "outputs": [
        {
          "internalType": "address",
          "name": "",
          "type": "address"
        }
      ],
      "stateMutability": "view",
      "type": "function"
    },
    {
      "inputs": [],
      "name": "renounceOwnership",
      "outputs": [],
      "stateMutability": "nonpayable",
      "type": "function"
    },
    {
      "inputs": [
        {
          "internalType": "address",
          "name": "from",
          "type": "address"
        },
        {
          "internalType": "address",
          "name": "to",
          "type": "address"
        },
        {
          "internalType": "uint256[]",
          "name": "ids",
          "type": "uint256[]"
        },
        {
          "internalType": "uint256[]",
          "name": "amounts",
          "type": "uint256[]"
        },
        {
          "internalType": "bytes",
          "name": "data",
          "type": "bytes"
        }
      ],
      "name": "safeBatchTransferFrom",
      "outputs": [],
      "stateMutability": "nonpayable",
      "type": "function"
    },
    {
      "inputs": [
        {
          "internalType": "address",
          "name": "from",
          "type": "address"
        },
        {
          "internalType": "address",
          "name": "to",
          "type": "address"
        },
        {
          "internalType": "uint256",
          "name": "id",
          "type": "uint256"
        },
        {
          "internalType": "uint256",
          "name": "amount",
          "type": "uint256"
        },
        {
          "internalType": "bytes",
          "name": "data",
          "type": "bytes"
        }
      ],
      "name": "safeTransferFrom",
      "outputs": [],
      "stateMutability": "nonpayable",
      "type": "function"
    },
    {
      "inputs": [
        {
          "internalType": "address",
          "name": "operator",
          "type": "address"
        },
        {
          "internalType": "bool",
          "name": "approved",
          "type": "bool"
        }
      ],
      "name": "setApprovalForAll",
      "outputs": [],
      "stateMutability": "nonpayable",
      "type": "function"
    },
    {
      "inputs": [
        {
          "internalType": "string",
          "name": "newuri",
          "type": "string"
        }
      ],
      "name": "setURI",
      "outputs": [],
      "stateMutability": "nonpayable",
      "type": "function"
    },
    {
      "inputs": [
        {
          "internalType": "bytes4",
          "name": "interfaceId",
          "type": "bytes4"
        }
      ],
      "name": "supportsInterface",
      "outputs": [
        {
          "internalType": "bool",
          "name": "",
          "type": "bool"
        }
      ],
      "stateMutability": "view",
      "type": "function"
    },
    {
      "inputs": [
        {
          "internalType": "uint256",
          "name": "id",
          "type": "uint256"
        }
      ],
      "name": "totalSupply",
      "outputs": [
        {
          "internalType": "uint256",
          "name": "",
          "type": "uint256"
        }
      ],
      "stateMutability": "view",
      "type": "function"
    },
    {
      "inputs": [
        {
          "internalType": "address",
          "name": "newOwner",
          "type": "address"
        }
      ],
      "name": "transferOwnership",
      "outputs": [],
      "stateMutability": "nonpayable",
      "type": "function"
    },
    {
      "inputs": [
        {
          "internalType": "uint256",
          "name": "id",
          "type": "uint256"
        },
        {
          "internalType": "string",
          "name": "name",
          "type": "string"
        }
      ],
      "name": "updateProjectInfo",
      "outputs": [],
      "stateMutability": "nonpayable",
      "type": "function"
    },
    {
      "inputs": [
        {
          "internalType": "uint256",
          "name": "",
          "type": "uint256"
        }
      ],
      "name": "uri",
      "outputs": [
        {
          "internalType": "string",
          "name": "",
          "type": "string"
        }
      ],
      "stateMutability": "view",
      "type": "function"
    },
    {
      "inputs": [
        {
          "internalType": "uint256",
          "name": "id",
          "type": "uint256"
        }
      ],
      "name": "withdrawEth",
      "outputs": [],
      "stateMutability": "nonpayable",
      "type": "function"
    },
    {
      "stateMutability": "payable",
      "type": "receive"
    }
  ],
  "bytecode": "0x60806040523480156200001157600080fd5b5060405162002d7838038062002d788339810160408190526200003491620001a1565b81620000408162000073565b506200004c336200008c565b600580546001600160a01b0319166001600160a01b039290921691909117905550620002df565b805162000088906002906020840190620000de565b5050565b600380546001600160a01b038381166001600160a01b0319831681179093556040519116919082907f8be0079c531659141344cd1fd0a4f28419497f9722a3daafe3b4186f6b6457e090600090a35050565b828054620000ec906200028c565b90600052602060002090601f0160209004810192826200011057600085556200015b565b82601f106200012b57805160ff19168380011785556200015b565b828001600101855582156200015b579182015b828111156200015b5782518255916020019190600101906200013e565b50620001699291506200016d565b5090565b5b808211156200016957600081556001016200016e565b80516001600160a01b03811681146200019c57600080fd5b919050565b60008060408385031215620001b4578182fd5b82516001600160401b0380821115620001cb578384fd5b818501915085601f830112620001df578384fd5b815181811115620001f457620001f4620002c9565b604051601f8201601f19908116603f011681019083821181831017156200021f576200021f620002c9565b816040528281526020935088848487010111156200023b578687fd5b8691505b828210156200025e57848201840151818301850152908301906200023f565b828211156200026f57868484830101525b95506200028191505085820162000184565b925050509250929050565b600181811c90821680620002a157607f821691505b60208210811415620002c357634e487b7160e01b600052602260045260246000fd5b50919050565b634e487b7160e01b600052604160045260246000fd5b612a8980620002ef6000396000f3fe60806040526004361061018e5760003560e01c8063a22cb465116100d6578063e47411891161007f578063f0f3f2c811610059578063f0f3f2c8146104c0578063f242432a146104ed578063f2fde38b1461050d57600080fd5b8063e474118914610441578063e985e9c514610457578063ed76ac38146104a057600080fd5b8063beefc149116100b0578063beefc149146103e1578063c311d04914610401578063dae083711461042157600080fd5b8063a22cb46514610374578063b5d14bba14610394578063bd85b039146103b457600080fd5b80634e1273f411610138578063715018a611610112578063715018a6146102fb578063821f9dc9146103105780638da5cb5b1461034257600080fd5b80634e1273f41461027f5780634f558e79146102ac578063539b2226146102db57600080fd5b80630e89341c116101695780630e89341c1461021f5780631b2ef1ca1461024c5780632eb2c2d61461025f57600080fd5b8062fdd58e1461019a57806301ffc9a7146101cd57806302fe5305146101fd57600080fd5b3661019557005b600080fd5b3480156101a657600080fd5b506101ba6101b5366004612424565b61052d565b6040519081526020015b60405180910390f35b3480156101d957600080fd5b506101ed6101e8366004612518565b6105d6565b60405190151581526020016101c4565b34801561020957600080fd5b5061021d610218366004612550565b610673565b005b34801561022b57600080fd5b5061023f61023a36600461258b565b6106d9565b6040516101c491906127c5565b61021d61025a3660046125de565b61076d565b34801561026b57600080fd5b5061021d61027a3660046122e1565b610950565b34801561028b57600080fd5b5061029f61029a36600461244d565b6109f2565b6040516101c49190612784565b3480156102b857600080fd5b506101ed6102c736600461258b565b600090815260046020526040902054151590565b3480156102e757600080fd5b5061021d6102f63660046125ff565b610b68565b34801561030757600080fd5b5061021d610d58565b34801561031c57600080fd5b5061033061032b36600461258b565b610dbe565b6040516101c4969594939291906127d8565b34801561034e57600080fd5b506003546001600160a01b03165b6040516001600160a01b0390911681526020016101c4565b34801561038057600080fd5b5061021d61038f3660046123ea565b610e85565b3480156103a057600080fd5b5061021d6103af3660046125a3565b610e94565b3480156103c057600080fd5b506101ba6103cf36600461258b565b60009081526004602052604090205490565b3480156103ed57600080fd5b5060055461035c906001600160a01b031681565b34801561040d57600080fd5b5061021d61041c36600461258b565b610f68565b34801561042d57600080fd5b5061021d61043c3660046125de565b6110d0565b34801561044d57600080fd5b506101ba60065481565b34801561046357600080fd5b506101ed6104723660046122af565b6001600160a01b03918216600090815260016020908152604080832093909416825291909152205460ff1690565b3480156104ac57600080fd5b5061021d6104bb3660046125de565b6111e7565b3480156104cc57600080fd5b506104e06104db36600461258b565b6112bb565b6040516101c4919061281d565b3480156104f957600080fd5b5061021d610508366004612387565b611443565b34801561051957600080fd5b5061021d61052836600461228e565b6114de565b60006001600160a01b0383166105b05760405162461bcd60e51b815260206004820152602b60248201527f455243313135353a2062616c616e636520717565727920666f7220746865207a60448201527f65726f206164647265737300000000000000000000000000000000000000000060648201526084015b60405180910390fd5b506000908152602081815260408083206001600160a01b03949094168352929052205490565b60006001600160e01b031982167fd9b67a2600000000000000000000000000000000000000000000000000000000148061063957506001600160e01b031982167f0e89341c00000000000000000000000000000000000000000000000000000000145b8061066d57507f01ffc9a7000000000000000000000000000000000000000000000000000000006001600160e01b03198316145b92915050565b6003546001600160a01b031633146106cd5760405162461bcd60e51b815260206004820181905260248201527f4f776e61626c653a2063616c6c6572206973206e6f7420746865206f776e657260448201526064016105a7565b6106d6816115bd565b50565b6060600280546106e8906128f2565b80601f0160208091040260200160405190810160405280929190818152602001828054610714906128f2565b80156107615780601f1061073657610100808354040283529160200191610761565b820191906000526020600020905b81548152906001019060200180831161074457829003601f168201915b50505050509050919050565b81600654811115801561077f57508015155b6107c45760405162461bcd60e51b8152602060048201526016602482015275141c9bda9958dd08191bd95cc81b9bdd08195e1a5cdd60521b60448201526064016105a7565b6000838152600760209081526040808320600381015460049093529220546107ed9085906128a4565b111561083b5760405162461bcd60e51b815260206004820152601960248201527f4e6f7420656e6f75676820746f6b656e7320746f206d696e740000000000000060448201526064016105a7565b82816002015461084b91906128bc565b34101561089a5760405162461bcd60e51b815260206004820152600e60248201527f4e6f7420656e6f7567682045544800000000000000000000000000000000000060448201526064016105a7565b6108b5338585604051806020016040528060008152506115d0565b6005546040517f40c10f190000000000000000000000000000000000000000000000000000000081523360048201523460248201526001600160a01b03909116906340c10f1990604401600060405180830381600087803b15801561091957600080fd5b505af115801561092d573d6000803e3d6000fd5b505050503481600401600082825461094591906128a4565b909155505050505050565b6001600160a01b03851633148061096c575061096c8533610472565b6109de5760405162461bcd60e51b815260206004820152603260248201527f455243313135353a207472616e736665722063616c6c6572206973206e6f742060448201527f6f776e6572206e6f7220617070726f766564000000000000000000000000000060648201526084016105a7565b6109eb85858585856116fc565b5050505050565b60608151835114610a6b5760405162461bcd60e51b815260206004820152602960248201527f455243313135353a206163636f756e747320616e6420696473206c656e67746860448201527f206d69736d61746368000000000000000000000000000000000000000000000060648201526084016105a7565b6000835167ffffffffffffffff811115610a9557634e487b7160e01b600052604160045260246000fd5b604051908082528060200260200182016040528015610abe578160200160208202803683370190505b50905060005b8451811015610b6057610b25858281518110610af057634e487b7160e01b600052603260045260246000fd5b6020026020010151858381518110610b1857634e487b7160e01b600052603260045260246000fd5b602002602001015161052d565b828281518110610b4557634e487b7160e01b600052603260045260246000fd5b6020908102919091010152610b5981612954565b9050610ac4565b509392505050565b6003546001600160a01b03163314610bc25760405162461bcd60e51b815260206004820181905260248201527f4f776e61626c653a2063616c6c6572206973206e6f7420746865206f776e657260448201526064016105a7565b60008411610c1c5760405162461bcd60e51b815260206004820152602160248201527f4d696e74207072696365206d7573742062652067726561746572207468616e206044820152600360fc1b60648201526084016105a7565b60008311610c765760405162461bcd60e51b815260206004820152602160248201527f4d617820737570706c79206d7573742062652067726561746572207468616e206044820152600360fc1b60648201526084016105a7565b60068054906000610c8683612954565b91905055506040518060c00160405280838152602001826001600160a01b031681526020018581526020018481526020016000815260200160008152506007600060065481526020019081526020016000206000820151816000019080519060200190610cf49291906120f6565b50602082015160018201805473ffffffffffffffffffffffffffffffffffffffff19166001600160a01b0390921691909117905560408201516002820155606082015160038201556080820151600482015560a09091015160059091015550505050565b6003546001600160a01b03163314610db25760405162461bcd60e51b815260206004820181905260248201527f4f776e61626c653a2063616c6c6572206973206e6f7420746865206f776e657260448201526064016105a7565b610dbc6000611999565b565b600760205260009081526040902080548190610dd9906128f2565b80601f0160208091040260200160405190810160405280929190818152602001828054610e05906128f2565b8015610e525780601f10610e2757610100808354040283529160200191610e52565b820191906000526020600020905b815481529060010190602001808311610e3557829003601f168201915b505050600184015460028501546003860154600487015460059097015495966001600160a01b0390931695919450925086565b610e903383836119f8565b5050565b6003546001600160a01b03163314610eee5760405162461bcd60e51b815260206004820181905260248201527f4f776e61626c653a2063616c6c6572206973206e6f7420746865206f776e657260448201526064016105a7565b816006548111158015610f0057508015155b610f455760405162461bcd60e51b8152602060048201526016602482015275141c9bda9958dd08191bd95cc81b9bdd08195e1a5cdd60521b60448201526064016105a7565b6000838152600760209081526040909120835190916109eb9183918601906120f6565b806006548111158015610f7a57508015155b610fbf5760405162461bcd60e51b8152602060048201526016602482015275141c9bda9958dd08191bd95cc81b9bdd08195e1a5cdd60521b60448201526064016105a7565b600082815260076020526040902060018101546001600160a01b031633146110295760405162461bcd60e51b815260206004820152601d60248201527f4f6e6c792062656e65666963696172792063616e20776974686472617700000060448201526064016105a7565b80600401548160050154106110805760405162461bcd60e51b815260206004820152601760248201527f4e6f206d6f72652045544820746f20776974686472617700000000000000000060448201526064016105a7565b60008160050154826004015461109691906128db565b60048301546005840155604051909150339082156108fc029083906000818181858888f193505050501580156109eb573d6000803e3d6000fd5b6003546001600160a01b0316331461112a5760405162461bcd60e51b815260206004820181905260248201527f4f776e61626c653a2063616c6c6572206973206e6f7420746865206f776e657260448201526064016105a7565b81600654811115801561113c57508015155b6111815760405162461bcd60e51b8152602060048201526016602482015275141c9bda9958dd08191bd95cc81b9bdd08195e1a5cdd60521b60448201526064016105a7565b600082116111d15760405162461bcd60e51b815260206004820152601560248201527f6d696e7450726963654842415220696e76616c6964000000000000000000000060448201526064016105a7565b5060009182526007602052604090912060020155565b6003546001600160a01b031633146112415760405162461bcd60e51b815260206004820181905260248201527f4f776e61626c653a2063616c6c6572206973206e6f7420746865206f776e657260448201526064016105a7565b81600654811115801561125357508015155b6112985760405162461bcd60e51b8152602060048201526016602482015275141c9bda9958dd08191bd95cc81b9bdd08195e1a5cdd60521b60448201526064016105a7565b6000838152600760205260408120600381018054919285926109459084906128a4565b6112fd6040518060c001604052806060815260200160006001600160a01b03168152602001600081526020016000815260200160008152602001600081525090565b81600654811115801561130f57508015155b6113545760405162461bcd60e51b8152602060048201526016602482015275141c9bda9958dd08191bd95cc81b9bdd08195e1a5cdd60521b60448201526064016105a7565b600083815260076020526040808220815160c0810190925280548290829061137b906128f2565b80601f01602080910402602001604051908101604052809291908181526020018280546113a7906128f2565b80156113f45780601f106113c9576101008083540402835291602001916113f4565b820191906000526020600020905b8154815290600101906020018083116113d757829003601f168201915b505050918352505060018201546001600160a01b0316602082015260028201546040820152600382015460608201526004820154608082015260059091015460a0909101529250505b50919050565b6001600160a01b03851633148061145f575061145f8533610472565b6114d15760405162461bcd60e51b815260206004820152602960248201527f455243313135353a2063616c6c6572206973206e6f74206f776e6572206e6f7260448201527f20617070726f766564000000000000000000000000000000000000000000000060648201526084016105a7565b6109eb8585858585611aed565b6003546001600160a01b031633146115385760405162461bcd60e51b815260206004820181905260248201527f4f776e61626c653a2063616c6c6572206973206e6f7420746865206f776e657260448201526064016105a7565b6001600160a01b0381166115b45760405162461bcd60e51b815260206004820152602660248201527f4f776e61626c653a206e6577206f776e657220697320746865207a65726f206160448201527f646472657373000000000000000000000000000000000000000000000000000060648201526084016105a7565b6106d681611999565b8051610e909060029060208401906120f6565b6001600160a01b03841661164c5760405162461bcd60e51b815260206004820152602160248201527f455243313135353a206d696e7420746f20746865207a65726f2061646472657360448201527f730000000000000000000000000000000000000000000000000000000000000060648201526084016105a7565b3361166c8160008761165d88611c8b565b61166688611c8b565b87611ce4565b6000848152602081815260408083206001600160a01b03891684529091528120805485929061169c9084906128a4565b909155505060408051858152602081018590526001600160a01b0380881692600092918516917fc3d58168c5ae7397731d063d5bbf3d657854427343f4c083240f7aacaa2d0f62910160405180910390a46109eb81600087878787611cf2565b81518351146117735760405162461bcd60e51b815260206004820152602860248201527f455243313135353a2069647320616e6420616d6f756e7473206c656e6774682060448201527f6d69736d6174636800000000000000000000000000000000000000000000000060648201526084016105a7565b6001600160a01b0384166117d75760405162461bcd60e51b815260206004820152602560248201527f455243313135353a207472616e7366657220746f20746865207a65726f206164604482015264647265737360d81b60648201526084016105a7565b336117e6818787878787611ce4565b60005b845181101561192b57600085828151811061181457634e487b7160e01b600052603260045260246000fd5b60200260200101519050600085838151811061184057634e487b7160e01b600052603260045260246000fd5b602090810291909101810151600084815280835260408082206001600160a01b038e1683529093529190912054909150818110156118d35760405162461bcd60e51b815260206004820152602a60248201527f455243313135353a20696e73756666696369656e742062616c616e636520666f60448201526939103a3930b739b332b960b11b60648201526084016105a7565b6000838152602081815260408083206001600160a01b038e8116855292528083208585039055908b168252812080548492906119109084906128a4565b925050819055505050508061192490612954565b90506117e9565b50846001600160a01b0316866001600160a01b0316826001600160a01b03167f4a39dc06d4c0dbc64b70af90fd698a233a518aa5d07e595d983b8c0526c8f7fb878760405161197b929190612797565b60405180910390a4611991818787878787611ea7565b505050505050565b600380546001600160a01b0383811673ffffffffffffffffffffffffffffffffffffffff19831681179093556040519116919082907f8be0079c531659141344cd1fd0a4f28419497f9722a3daafe3b4186f6b6457e090600090a35050565b816001600160a01b0316836001600160a01b03161415611a805760405162461bcd60e51b815260206004820152602960248201527f455243313135353a2073657474696e6720617070726f76616c2073746174757360448201527f20666f722073656c66000000000000000000000000000000000000000000000060648201526084016105a7565b6001600160a01b03838116600081815260016020908152604080832094871680845294825291829020805460ff191686151590811790915591519182527f17307eab39ab6107e8899845ad3d59bd9653f200f220920489ca2b5937696c31910160405180910390a3505050565b6001600160a01b038416611b515760405162461bcd60e51b815260206004820152602560248201527f455243313135353a207472616e7366657220746f20746865207a65726f206164604482015264647265737360d81b60648201526084016105a7565b33611b6181878761165d88611c8b565b6000848152602081815260408083206001600160a01b038a16845290915290205483811015611be55760405162461bcd60e51b815260206004820152602a60248201527f455243313135353a20696e73756666696369656e742062616c616e636520666f60448201526939103a3930b739b332b960b11b60648201526084016105a7565b6000858152602081815260408083206001600160a01b038b8116855292528083208785039055908816825281208054869290611c229084906128a4565b909155505060408051868152602081018690526001600160a01b03808916928a821692918616917fc3d58168c5ae7397731d063d5bbf3d657854427343f4c083240f7aacaa2d0f62910160405180910390a4611c82828888888888611cf2565b50505050505050565b60408051600180825281830190925260609160009190602080830190803683370190505090508281600081518110611cd357634e487b7160e01b600052603260045260246000fd5b602090810291909101015292915050565b611991868686868686611fb2565b6001600160a01b0384163b156119915760405163f23a6e6160e01b81526001600160a01b0385169063f23a6e6190611d369089908990889088908890600401612741565b602060405180830381600087803b158015611d5057600080fd5b505af1925050508015611d80575060408051601f3d908101601f19168201909252611d7d91810190612534565b60015b611e3657611d8c61299b565b806308c379a01415611dc65750611da16129b3565b80611dac5750611dc8565b8060405162461bcd60e51b81526004016105a791906127c5565b505b60405162461bcd60e51b815260206004820152603460248201527f455243313135353a207472616e7366657220746f206e6f6e204552433131353560448201527f526563656976657220696d706c656d656e74657200000000000000000000000060648201526084016105a7565b6001600160e01b0319811663f23a6e6160e01b14611c825760405162461bcd60e51b815260206004820152602860248201527f455243313135353a204552433131353552656365697665722072656a656374656044820152676420746f6b656e7360c01b60648201526084016105a7565b6001600160a01b0384163b156119915760405163bc197c8160e01b81526001600160a01b0385169063bc197c8190611eeb90899089908890889088906004016126e3565b602060405180830381600087803b158015611f0557600080fd5b505af1925050508015611f35575060408051601f3d908101601f19168201909252611f3291810190612534565b60015b611f4157611d8c61299b565b6001600160e01b0319811663bc197c8160e01b14611c825760405162461bcd60e51b815260206004820152602860248201527f455243313135353a204552433131353552656365697665722072656a656374656044820152676420746f6b656e7360c01b60648201526084016105a7565b6001600160a01b0385166120555760005b835181101561205357828181518110611fec57634e487b7160e01b600052603260045260246000fd5b60200260200101516004600086848151811061201857634e487b7160e01b600052603260045260246000fd5b60200260200101518152602001908152602001600020600082825461203d91906128a4565b9091555061204c905081612954565b9050611fc3565b505b6001600160a01b0384166119915760005b8351811015611c825782818151811061208f57634e487b7160e01b600052603260045260246000fd5b6020026020010151600460008684815181106120bb57634e487b7160e01b600052603260045260246000fd5b6020026020010151815260200190815260200160002060008282546120e091906128db565b909155506120ef905081612954565b9050612066565b828054612102906128f2565b90600052602060002090601f016020900481019282612124576000855561216a565b82601f1061213d57805160ff191683800117855561216a565b8280016001018555821561216a579182015b8281111561216a57825182559160200191906001019061214f565b5061217692915061217a565b5090565b5b80821115612176576000815560010161217b565b80356001600160a01b03811681146121a657600080fd5b919050565b600082601f8301126121bb578081fd5b813560206121c882612880565b6040516121d58282612927565b8381528281019150858301600585901b870184018810156121f4578586fd5b855b85811015612212578135845292840192908401906001016121f6565b5090979650505050505050565b600082601f83011261222f578081fd5b813567ffffffffffffffff81111561224957612249612985565b604051612260601f8301601f191660200182612927565b818152846020838601011115612274578283fd5b816020850160208301379081016020019190915292915050565b60006020828403121561229f578081fd5b6122a88261218f565b9392505050565b600080604083850312156122c1578081fd5b6122ca8361218f565b91506122d86020840161218f565b90509250929050565b600080600080600060a086880312156122f8578081fd5b6123018661218f565b945061230f6020870161218f565b9350604086013567ffffffffffffffff8082111561232b578283fd5b61233789838a016121ab565b9450606088013591508082111561234c578283fd5b61235889838a016121ab565b9350608088013591508082111561236d578283fd5b5061237a8882890161221f565b9150509295509295909350565b600080600080600060a0868803121561239e578081fd5b6123a78661218f565b94506123b56020870161218f565b93506040860135925060608601359150608086013567ffffffffffffffff8111156123de578182fd5b61237a8882890161221f565b600080604083850312156123fc578182fd5b6124058361218f565b915060208301358015158114612419578182fd5b809150509250929050565b60008060408385031215612436578182fd5b61243f8361218f565b946020939093013593505050565b6000806040838503121561245f578182fd5b823567ffffffffffffffff80821115612476578384fd5b818501915085601f830112612489578384fd5b8135602061249682612880565b6040516124a38282612927565b8381528281019150858301600585901b870184018b10156124c2578889fd5b8896505b848710156124eb576124d78161218f565b8352600196909601959183019183016124c6565b5096505086013592505080821115612501578283fd5b5061250e858286016121ab565b9150509250929050565b600060208284031215612529578081fd5b81356122a881612a3d565b600060208284031215612545578081fd5b81516122a881612a3d565b600060208284031215612561578081fd5b813567ffffffffffffffff811115612577578182fd5b6125838482850161221f565b949350505050565b60006020828403121561259c578081fd5b5035919050565b600080604083850312156125b5578182fd5b82359150602083013567ffffffffffffffff8111156125d2578182fd5b61250e8582860161221f565b600080604083850312156125f0578182fd5b50508035926020909101359150565b60008060008060808587031215612614578182fd5b8435935060208501359250604085013567ffffffffffffffff811115612638578283fd5b6126448782880161221f565b9250506126536060860161218f565b905092959194509250565b6000815180845260208085019450808401835b8381101561268d57815187529582019590820190600101612671565b509495945050505050565b60008151808452815b818110156126bd576020818501810151868301820152016126a1565b818111156126ce5782602083870101525b50601f01601f19169290920160200192915050565b60006001600160a01b03808816835280871660208401525060a0604083015261270f60a083018661265e565b8281036060840152612721818661265e565b905082810360808401526127358185612698565b98975050505050505050565b60006001600160a01b03808816835280871660208401525084604083015283606083015260a0608083015261277960a0830184612698565b979650505050505050565b6020815260006122a8602083018461265e565b6040815260006127aa604083018561265e565b82810360208401526127bc818561265e565b95945050505050565b6020815260006122a86020830184612698565b60c0815260006127eb60c0830189612698565b6001600160a01b039790971660208301525060408101949094526060840192909252608083015260a090910152919050565b602081526000825160c0602084015261283960e0840182612698565b90506001600160a01b0360208501511660408401526040840151606084015260608401516080840152608084015160a084015260a084015160c08401528091505092915050565b600067ffffffffffffffff82111561289a5761289a612985565b5060051b60200190565b600082198211156128b7576128b761296f565b500190565b60008160001904831182151516156128d6576128d661296f565b500290565b6000828210156128ed576128ed61296f565b500390565b600181811c9082168061290657607f821691505b6020821081141561143d57634e487b7160e01b600052602260045260246000fd5b601f8201601f1916810167ffffffffffffffff8111828210171561294d5761294d612985565b6040525050565b60006000198214156129685761296861296f565b5060010190565b634e487b7160e01b600052601160045260246000fd5b634e487b7160e01b600052604160045260246000fd5b600060033d11156129b057600481823e5160e01c5b90565b600060443d10156129c15790565b6040516003193d81016004833e81513d67ffffffffffffffff81602484011181841117156129f157505050505090565b8285019150815181811115612a095750505050505090565b843d8701016020828501011115612a235750505050505090565b612a3260208286010187612927565b509095945050505050565b6001600160e01b0319811681146106d657600080fdfea26469706673582212203cff8dbf854c1ce0be3ef4e0c131ebc15938cf8c68a9b0c727f3647fc138fb7d64736f6c63430008040033",
  "linkReferences": {},
  "deployedLinkReferences": {}
}