{
  "_format": "hh-sol-artifact-1",
  "contractName": "OrganizationNFT",
  "sourceName": "contracts/OrganizationNFT.sol",
  "abi": [
    {
      "inputs": [],
      "stateMutability": "nonpayable",
      "type": "constructor"
    },
    {
      "anonymous": false,
      "inputs": [
        {
          "indexed": true,
          "internalType": "address",
          "name": "owner",
          "type": "address"
        },
        {
          "indexed": true,
          "internalType": "address",
          "name": "approved",
          "type": "address"
        },
        {
          "indexed": true,
          "internalType": "uint256",
          "name": "tokenId",
          "type": "uint256"
        }
      ],
      "name": "Approval",
      "type": "event"
    },
    {
      "anonymous": false,
      "inputs": [
        {
          "indexed": true,
          "internalType": "address",
          "name": "owner",
          "type": "address"
        },
        {
          "indexed": true,
          "internalType": "address",
          "name": "operator",
          "type": "address"
        },
        {
          "indexed": false,
          "internalType": "bool",
          "name": "approved",
          "type": "bool"
        }
      ],
      "name": "ApprovalForAll",
      "type": "event"
    },
    {
      "anonymous": false,
      "inputs": [
        {
          "indexed": true,
          "internalType": "address",
          "name": "previousOwner",
          "type": "address"
        },
        {
          "indexed": true,
          "internalType": "address",
          "name": "newOwner",
          "type": "address"
        }
      ],
      "name": "OwnershipTransferred",
      "type": "event"
    },
    {
      "anonymous": false,
      "inputs": [
        {
          "indexed": true,
          "internalType": "address",
          "name": "from",
          "type": "address"
        },
        {
          "indexed": true,
          "internalType": "address",
          "name": "to",
          "type": "address"
        },
        {
          "indexed": true,
          "internalType": "uint256",
          "name": "tokenId",
          "type": "uint256"
        }
      ],
      "name": "Transfer",
      "type": "event"
    },
    {
      "inputs": [
        {
          "internalType": "address",
          "name": "to",
          "type": "address"
        },
        {
          "internalType": "uint256",
          "name": "tokenId",
          "type": "uint256"
        }
      ],
      "name": "approve",
      "outputs": [],
      "stateMutability": "nonpayable",
      "type": "function"
    },
    {
      "inputs": [
        {
          "internalType": "address",
          "name": "owner",
          "type": "address"
        }
      ],
      "name": "balanceOf",
      "outputs": [
        {
          "internalType": "uint256",
          "name": "",
          "type": "uint256"
        }
      ],
      "stateMutability": "view",
      "type": "function"
    },
    {
      "inputs": [
        {
          "internalType": "uint256",
          "name": "tokenId",
          "type": "uint256"
        }
      ],
      "name": "getApproved",
      "outputs": [
        {
          "internalType": "address",
          "name": "",
          "type": "address"
        }
      ],
      "stateMutability": "view",
      "type": "function"
    },
    {
      "inputs": [
        {
          "internalType": "address",
          "name": "owner",
          "type": "address"
        },
        {
          "internalType": "address",
          "name": "operator",
          "type": "address"
        }
      ],
      "name": "isApprovedForAll",
      "outputs": [
        {
          "internalType": "bool",
          "name": "",
          "type": "bool"
        }
      ],
      "stateMutability": "view",
      "type": "function"
    },
    {
      "inputs": [],
      "name": "name",
      "outputs": [
        {
          "internalType": "string",
          "name": "",
          "type": "string"
        }
      ],
      "stateMutability": "view",
      "type": "function"
    },
    {
      "inputs": [],
      "name": "owner",
      "outputs": [
        {
          "internalType": "address",
          "name": "",
          "type": "address"
        }
      ],
      "stateMutability": "view",
      "type": "function"
    },
    {
      "inputs": [
        {
          "internalType": "uint256",
          "name": "tokenId",
          "type": "uint256"
        }
      ],
      "name": "ownerOf",
      "outputs": [
        {
          "internalType": "address",
          "name": "",
          "type": "address"
        }
      ],
      "stateMutability": "view",
      "type": "function"
    },
    {
      "inputs": [],
      "name": "renounceOwnership",
      "outputs": [],
      "stateMutability": "nonpayable",
      "type": "function"
    },
    {
      "inputs": [
        {
          "internalType": "address",
          "name": "to",
          "type": "address"
        }
      ],
      "name": "safeMint",
      "outputs": [],
      "stateMutability": "nonpayable",
      "type": "function"
    },
    {
      "inputs": [
        {
          "internalType": "address",
          "name": "to",
          "type": "address"
        },
        {
          "internalType": "uint256",
          "name": "amount",
          "type": "uint256"
        }
      ],
      "name": "safeMintBatch",
      "outputs": [],
      "stateMutability": "nonpayable",
      "type": "function"
    },
    {
      "inputs": [
        {
          "internalType": "address",
          "name": "from",
          "type": "address"
        },
        {
          "internalType": "address",
          "name": "to",
          "type": "address"
        },
        {
          "internalType": "uint256",
          "name": "tokenId",
          "type": "uint256"
        }
      ],
      "name": "safeTransferFrom",
      "outputs": [],
      "stateMutability": "nonpayable",
      "type": "function"
    },
    {
      "inputs": [
        {
          "internalType": "address",
          "name": "from",
          "type": "address"
        },
        {
          "internalType": "address",
          "name": "to",
          "type": "address"
        },
        {
          "internalType": "uint256",
          "name": "tokenId",
          "type": "uint256"
        },
        {
          "internalType": "bytes",
          "name": "_data",
          "type": "bytes"
        }
      ],
      "name": "safeTransferFrom",
      "outputs": [],
      "stateMutability": "nonpayable",
      "type": "function"
    },
    {
      "inputs": [
        {
          "internalType": "address",
          "name": "operator",
          "type": "address"
        },
        {
          "internalType": "bool",
          "name": "approved",
          "type": "bool"
        }
      ],
      "name": "setApprovalForAll",
      "outputs": [],
      "stateMutability": "nonpayable",
      "type": "function"
    },
    {
      "inputs": [
        {
          "internalType": "bytes4",
          "name": "interfaceId",
          "type": "bytes4"
        }
      ],
      "name": "supportsInterface",
      "outputs": [
        {
          "internalType": "bool",
          "name": "",
          "type": "bool"
        }
      ],
      "stateMutability": "view",
      "type": "function"
    },
    {
      "inputs": [],
      "name": "symbol",
      "outputs": [
        {
          "internalType": "string",
          "name": "",
          "type": "string"
        }
      ],
      "stateMutability": "view",
      "type": "function"
    },
    {
      "inputs": [
        {
          "internalType": "uint256",
          "name": "tokenId",
          "type": "uint256"
        }
      ],
      "name": "tokenURI",
      "outputs": [
        {
          "internalType": "string",
          "name": "",
          "type": "string"
        }
      ],
      "stateMutability": "view",
      "type": "function"
    },
    {
      "inputs": [
        {
          "internalType": "address",
          "name": "from",
          "type": "address"
        },
        {
          "internalType": "address",
          "name": "to",
          "type": "address"
        },
        {
          "internalType": "uint256",
          "name": "tokenId",
          "type": "uint256"
        }
      ],
      "name": "transferFrom",
      "outputs": [],
      "stateMutability": "nonpayable",
      "type": "function"
    },
    {
      "inputs": [
        {
          "internalType": "address",
          "name": "newOwner",
          "type": "address"
        }
      ],
      "name": "transferOwnership",
      "outputs": [],
      "stateMutability": "nonpayable",
      "type": "function"
    }
  ],
  "bytecode": "0x60806040523480156200001157600080fd5b506040518060400160405280600781526020017f4d79546f6b656e000000000000000000000000000000000000000000000000008152506040518060400160405280600381526020017f4d544b0000000000000000000000000000000000000000000000000000000000815250816000908051906020019062000096929190620001a6565b508060019080519060200190620000af929190620001a6565b505050620000d2620000c6620000d860201b60201c565b620000e060201b60201c565b620002bb565b600033905090565b6000600660009054906101000a900473ffffffffffffffffffffffffffffffffffffffff16905081600660006101000a81548173ffffffffffffffffffffffffffffffffffffffff021916908373ffffffffffffffffffffffffffffffffffffffff1602179055508173ffffffffffffffffffffffffffffffffffffffff168173ffffffffffffffffffffffffffffffffffffffff167f8be0079c531659141344cd1fd0a4f28419497f9722a3daafe3b4186f6b6457e060405160405180910390a35050565b828054620001b49062000256565b90600052602060002090601f016020900481019282620001d8576000855562000224565b82601f10620001f357805160ff191683800117855562000224565b8280016001018555821562000224579182015b828111156200022357825182559160200191906001019062000206565b5b50905062000233919062000237565b5090565b5b808211156200025257600081600090555060010162000238565b5090565b600060028204905060018216806200026f57607f821691505b602082108114156200028657620002856200028c565b5b50919050565b7f4e487b7100000000000000000000000000000000000000000000000000000000600052602260045260246000fd5b612c9180620002cb6000396000f3fe608060405234801561001057600080fd5b50600436106101165760003560e01c806370a08231116100a2578063a22cb46511610071578063a22cb465146102cb578063b88d4fde146102e7578063c87b56dd14610303578063e985e9c514610333578063f2fde38b1461036357610116565b806370a0823114610255578063715018a6146102855780638da5cb5b1461028f57806395d89b41146102ad57610116565b806323b872dd116100e957806323b872dd146101b557806340d097c3146101d157806342842e0e146101ed5780634bc96248146102095780636352211e1461022557610116565b806301ffc9a71461011b57806306fdde031461014b578063081812fc14610169578063095ea7b314610199575b600080fd5b61013560048036038101906101309190611d95565b61037f565b604051610142919061219b565b60405180910390f35b610153610461565b60405161016091906121b6565b60405180910390f35b610183600480360381019061017e9190611de7565b6104f3565b6040516101909190612134565b60405180910390f35b6101b360048036038101906101ae9190611d59565b610578565b005b6101cf60048036038101906101ca9190611c53565b610690565b005b6101eb60048036038101906101e69190611bee565b6106f0565b005b61020760048036038101906102029190611c53565b610792565b005b610223600480360381019061021e9190611d59565b6107b2565b005b61023f600480360381019061023a9190611de7565b61085a565b60405161024c9190612134565b60405180910390f35b61026f600480360381019061026a9190611bee565b61090c565b60405161027c91906123d8565b60405180910390f35b61028d6109c4565b005b610297610a4c565b6040516102a49190612134565b60405180910390f35b6102b5610a76565b6040516102c291906121b6565b60405180910390f35b6102e560048036038101906102e09190611d1d565b610b08565b005b61030160048036038101906102fc9190611ca2565b610b1e565b005b61031d60048036038101906103189190611de7565b610b80565b60405161032a91906121b6565b60405180910390f35b61034d60048036038101906103489190611c17565b610c27565b60405161035a919061219b565b60405180910390f35b61037d60048036038101906103789190611bee565b610cbb565b005b60007f80ac58cd000000000000000000000000000000000000000000000000000000007bffffffffffffffffffffffffffffffffffffffffffffffffffffffff1916827bffffffffffffffffffffffffffffffffffffffffffffffffffffffff1916148061044a57507f5b5e139f000000000000000000000000000000000000000000000000000000007bffffffffffffffffffffffffffffffffffffffffffffffffffffffff1916827bffffffffffffffffffffffffffffffffffffffffffffffffffffffff1916145b8061045a575061045982610db3565b5b9050919050565b606060008054610470906125fd565b80601f016020809104026020016040519081016040528092919081815260200182805461049c906125fd565b80156104e95780601f106104be576101008083540402835291602001916104e9565b820191906000526020600020905b8154815290600101906020018083116104cc57829003601f168201915b5050505050905090565b60006104fe82610e1d565b61053d576040517f08c379a000000000000000000000000000000000000000000000000000000000815260040161053490612338565b60405180910390fd5b6004600083815260200190815260200160002060009054906101000a900473ffffffffffffffffffffffffffffffffffffffff169050919050565b60006105838261085a565b90508073ffffffffffffffffffffffffffffffffffffffff168373ffffffffffffffffffffffffffffffffffffffff1614156105f4576040517f08c379a00000000000000000000000000000000000000000000000000000000081526004016105eb90612398565b60405180910390fd5b8073ffffffffffffffffffffffffffffffffffffffff16610613610e89565b73ffffffffffffffffffffffffffffffffffffffff16148061064257506106418161063c610e89565b610c27565b5b610681576040517f08c379a0000000000000000000000000000000000000000000000000000000008152600401610678906122b8565b60405180910390fd5b61068b8383610e91565b505050565b6106a161069b610e89565b82610f4a565b6106e0576040517f08c379a00000000000000000000000000000000000000000000000000000000081526004016106d7906123b8565b60405180910390fd5b6106eb838383611028565b505050565b6106f8610e89565b73ffffffffffffffffffffffffffffffffffffffff16610716610a4c565b73ffffffffffffffffffffffffffffffffffffffff161461076c576040517f08c379a000000000000000000000000000000000000000000000000000000000815260040161076390612358565b60405180910390fd5b6000610778600761128f565b9050610784600761129d565b61078e82826112b3565b5050565b6107ad83838360405180602001604052806000815250610b1e565b505050565b6107ba610e89565b73ffffffffffffffffffffffffffffffffffffffff166107d8610a4c565b73ffffffffffffffffffffffffffffffffffffffff161461082e576040517f08c379a000000000000000000000000000000000000000000000000000000000815260040161082590612358565b60405180910390fd5b60005b8181101561085557610842836106f0565b808061084d90612660565b915050610831565b505050565b6000806002600084815260200190815260200160002060009054906101000a900473ffffffffffffffffffffffffffffffffffffffff169050600073ffffffffffffffffffffffffffffffffffffffff168173ffffffffffffffffffffffffffffffffffffffff161415610903576040517f08c379a00000000000000000000000000000000000000000000000000000000081526004016108fa906122f8565b60405180910390fd5b80915050919050565b60008073ffffffffffffffffffffffffffffffffffffffff168273ffffffffffffffffffffffffffffffffffffffff16141561097d576040517f08c379a0000000000000000000000000000000000000000000000000000000008152600401610974906122d8565b60405180910390fd5b600360008373ffffffffffffffffffffffffffffffffffffffff1673ffffffffffffffffffffffffffffffffffffffff168152602001908152602001600020549050919050565b6109cc610e89565b73ffffffffffffffffffffffffffffffffffffffff166109ea610a4c565b73ffffffffffffffffffffffffffffffffffffffff1614610a40576040517f08c379a0000000000000000000000000000000000000000000000000000000008152600401610a3790612358565b60405180910390fd5b610a4a60006112d1565b565b6000600660009054906101000a900473ffffffffffffffffffffffffffffffffffffffff16905090565b606060018054610a85906125fd565b80601f0160208091040260200160405190810160405280929190818152602001828054610ab1906125fd565b8015610afe5780601f10610ad357610100808354040283529160200191610afe565b820191906000526020600020905b815481529060010190602001808311610ae157829003601f168201915b5050505050905090565b610b1a610b13610e89565b8383611397565b5050565b610b2f610b29610e89565b83610f4a565b610b6e576040517f08c379a0000000000000000000000000000000000000000000000000000000008152600401610b65906123b8565b60405180910390fd5b610b7a84848484611504565b50505050565b6060610b8b82610e1d565b610bca576040517f08c379a0000000000000000000000000000000000000000000000000000000008152600401610bc190612378565b60405180910390fd5b6000610bd4611560565b90506000815111610bf45760405180602001604052806000815250610c1f565b80610bfe84611577565b604051602001610c0f929190612110565b6040516020818303038152906040525b915050919050565b6000600560008473ffffffffffffffffffffffffffffffffffffffff1673ffffffffffffffffffffffffffffffffffffffff16815260200190815260200160002060008373ffffffffffffffffffffffffffffffffffffffff1673ffffffffffffffffffffffffffffffffffffffff16815260200190815260200160002060009054906101000a900460ff16905092915050565b610cc3610e89565b73ffffffffffffffffffffffffffffffffffffffff16610ce1610a4c565b73ffffffffffffffffffffffffffffffffffffffff1614610d37576040517f08c379a0000000000000000000000000000000000000000000000000000000008152600401610d2e90612358565b60405180910390fd5b600073ffffffffffffffffffffffffffffffffffffffff168173ffffffffffffffffffffffffffffffffffffffff161415610da7576040517f08c379a0000000000000000000000000000000000000000000000000000000008152600401610d9e906121f8565b60405180910390fd5b610db0816112d1565b50565b60007f01ffc9a7000000000000000000000000000000000000000000000000000000007bffffffffffffffffffffffffffffffffffffffffffffffffffffffff1916827bffffffffffffffffffffffffffffffffffffffffffffffffffffffff1916149050919050565b60008073ffffffffffffffffffffffffffffffffffffffff166002600084815260200190815260200160002060009054906101000a900473ffffffffffffffffffffffffffffffffffffffff1673ffffffffffffffffffffffffffffffffffffffff1614159050919050565b600033905090565b816004600083815260200190815260200160002060006101000a81548173ffffffffffffffffffffffffffffffffffffffff021916908373ffffffffffffffffffffffffffffffffffffffff160217905550808273ffffffffffffffffffffffffffffffffffffffff16610f048361085a565b73ffffffffffffffffffffffffffffffffffffffff167f8c5be1e5ebec7d5bd14f71427d1e84f3dd0314c0f7b2291e5b200ac8c7c3b92560405160405180910390a45050565b6000610f5582610e1d565b610f94576040517f08c379a0000000000000000000000000000000000000000000000000000000008152600401610f8b90612298565b60405180910390fd5b6000610f9f8361085a565b90508073ffffffffffffffffffffffffffffffffffffffff168473ffffffffffffffffffffffffffffffffffffffff16148061100e57508373ffffffffffffffffffffffffffffffffffffffff16610ff6846104f3565b73ffffffffffffffffffffffffffffffffffffffff16145b8061101f575061101e8185610c27565b5b91505092915050565b8273ffffffffffffffffffffffffffffffffffffffff166110488261085a565b73ffffffffffffffffffffffffffffffffffffffff161461109e576040517f08c379a000000000000000000000000000000000000000000000000000000000815260040161109590612218565b60405180910390fd5b600073ffffffffffffffffffffffffffffffffffffffff168273ffffffffffffffffffffffffffffffffffffffff16141561110e576040517f08c379a000000000000000000000000000000000000000000000000000000000815260040161110590612258565b60405180910390fd5b611119838383611724565b611124600082610e91565b6001600360008573ffffffffffffffffffffffffffffffffffffffff1673ffffffffffffffffffffffffffffffffffffffff16815260200190815260200160002060008282546111749190612513565b925050819055506001600360008473ffffffffffffffffffffffffffffffffffffffff1673ffffffffffffffffffffffffffffffffffffffff16815260200190815260200160002060008282546111cb919061248c565b92505081905550816002600083815260200190815260200160002060006101000a81548173ffffffffffffffffffffffffffffffffffffffff021916908373ffffffffffffffffffffffffffffffffffffffff160217905550808273ffffffffffffffffffffffffffffffffffffffff168473ffffffffffffffffffffffffffffffffffffffff167fddf252ad1be2c89b69c2b068fc378daa952ba7f163c4a11628f55a4df523b3ef60405160405180910390a461128a838383611729565b505050565b600081600001549050919050565b6001816000016000828254019250508190555050565b6112cd82826040518060200160405280600081525061172e565b5050565b6000600660009054906101000a900473ffffffffffffffffffffffffffffffffffffffff16905081600660006101000a81548173ffffffffffffffffffffffffffffffffffffffff021916908373ffffffffffffffffffffffffffffffffffffffff1602179055508173ffffffffffffffffffffffffffffffffffffffff168173ffffffffffffffffffffffffffffffffffffffff167f8be0079c531659141344cd1fd0a4f28419497f9722a3daafe3b4186f6b6457e060405160405180910390a35050565b8173ffffffffffffffffffffffffffffffffffffffff168373ffffffffffffffffffffffffffffffffffffffff161415611406576040517f08c379a00000000000000000000000000000000000000000000000000000000081526004016113fd90612278565b60405180910390fd5b80600560008573ffffffffffffffffffffffffffffffffffffffff1673ffffffffffffffffffffffffffffffffffffffff16815260200190815260200160002060008473ffffffffffffffffffffffffffffffffffffffff1673ffffffffffffffffffffffffffffffffffffffff16815260200190815260200160002060006101000a81548160ff0219169083151502179055508173ffffffffffffffffffffffffffffffffffffffff168373ffffffffffffffffffffffffffffffffffffffff167f17307eab39ab6107e8899845ad3d59bd9653f200f220920489ca2b5937696c31836040516114f7919061219b565b60405180910390a3505050565b61150f848484611028565b61151b84848484611789565b61155a576040517f08c379a0000000000000000000000000000000000000000000000000000000008152600401611551906121d8565b60405180910390fd5b50505050565b606060405180602001604052806000815250905090565b606060008214156115bf576040518060400160405280600181526020017f3000000000000000000000000000000000000000000000000000000000000000815250905061171f565b600082905060005b600082146115f15780806115da90612660565b915050600a826115ea91906124e2565b91506115c7565b60008167ffffffffffffffff811115611633577f4e487b7100000000000000000000000000000000000000000000000000000000600052604160045260246000fd5b6040519080825280601f01601f1916602001820160405280156116655781602001600182028036833780820191505090505b5090505b600085146117185760018261167e9190612513565b9150600a8561168d91906126a9565b6030611699919061248c565b60f81b8183815181106116d5577f4e487b7100000000000000000000000000000000000000000000000000000000600052603260045260246000fd5b60200101907effffffffffffffffffffffffffffffffffffffffffffffffffffffffffffff1916908160001a905350600a8561171191906124e2565b9450611669565b8093505050505b919050565b505050565b505050565b6117388383611920565b6117456000848484611789565b611784576040517f08c379a000000000000000000000000000000000000000000000000000000000815260040161177b906121d8565b60405180910390fd5b505050565b60006117aa8473ffffffffffffffffffffffffffffffffffffffff16611afa565b15611913578373ffffffffffffffffffffffffffffffffffffffff1663150b7a026117d3610e89565b8786866040518563ffffffff1660e01b81526004016117f5949392919061214f565b602060405180830381600087803b15801561180f57600080fd5b505af192505050801561184057506040513d601f19601f8201168201806040525081019061183d9190611dbe565b60015b6118c3573d8060008114611870576040519150601f19603f3d011682016040523d82523d6000602084013e611875565b606091505b506000815114156118bb576040517f08c379a00000000000000000000000000000000000000000000000000000000081526004016118b2906121d8565b60405180910390fd5b805181602001fd5b63150b7a0260e01b7bffffffffffffffffffffffffffffffffffffffffffffffffffffffff1916817bffffffffffffffffffffffffffffffffffffffffffffffffffffffff191614915050611918565b600190505b949350505050565b600073ffffffffffffffffffffffffffffffffffffffff168273ffffffffffffffffffffffffffffffffffffffff161415611990576040517f08c379a000000000000000000000000000000000000000000000000000000000815260040161198790612318565b60405180910390fd5b61199981610e1d565b156119d9576040517f08c379a00000000000000000000000000000000000000000000000000000000081526004016119d090612238565b60405180910390fd5b6119e560008383611724565b6001600360008473ffffffffffffffffffffffffffffffffffffffff1673ffffffffffffffffffffffffffffffffffffffff1681526020019081526020016000206000828254611a35919061248c565b92505081905550816002600083815260200190815260200160002060006101000a81548173ffffffffffffffffffffffffffffffffffffffff021916908373ffffffffffffffffffffffffffffffffffffffff160217905550808273ffffffffffffffffffffffffffffffffffffffff16600073ffffffffffffffffffffffffffffffffffffffff167fddf252ad1be2c89b69c2b068fc378daa952ba7f163c4a11628f55a4df523b3ef60405160405180910390a4611af660008383611729565b5050565b6000808273ffffffffffffffffffffffffffffffffffffffff163b119050919050565b6000611b30611b2b84612418565b6123f3565b905082815260208101848484011115611b4857600080fd5b611b538482856125bb565b509392505050565b600081359050611b6a81612bff565b92915050565b600081359050611b7f81612c16565b92915050565b600081359050611b9481612c2d565b92915050565b600081519050611ba981612c2d565b92915050565b600082601f830112611bc057600080fd5b8135611bd0848260208601611b1d565b91505092915050565b600081359050611be881612c44565b92915050565b600060208284031215611c0057600080fd5b6000611c0e84828501611b5b565b91505092915050565b60008060408385031215611c2a57600080fd5b6000611c3885828601611b5b565b9250506020611c4985828601611b5b565b9150509250929050565b600080600060608486031215611c6857600080fd5b6000611c7686828701611b5b565b9350506020611c8786828701611b5b565b9250506040611c9886828701611bd9565b9150509250925092565b60008060008060808587031215611cb857600080fd5b6000611cc687828801611b5b565b9450506020611cd787828801611b5b565b9350506040611ce887828801611bd9565b925050606085013567ffffffffffffffff811115611d0557600080fd5b611d1187828801611baf565b91505092959194509250565b60008060408385031215611d3057600080fd5b6000611d3e85828601611b5b565b9250506020611d4f85828601611b70565b9150509250929050565b60008060408385031215611d6c57600080fd5b6000611d7a85828601611b5b565b9250506020611d8b85828601611bd9565b9150509250929050565b600060208284031215611da757600080fd5b6000611db584828501611b85565b91505092915050565b600060208284031215611dd057600080fd5b6000611dde84828501611b9a565b91505092915050565b600060208284031215611df957600080fd5b6000611e0784828501611bd9565b91505092915050565b611e1981612547565b82525050565b611e2881612559565b82525050565b6000611e3982612449565b611e43818561245f565b9350611e538185602086016125ca565b611e5c81612796565b840191505092915050565b6000611e7282612454565b611e7c8185612470565b9350611e8c8185602086016125ca565b611e9581612796565b840191505092915050565b6000611eab82612454565b611eb58185612481565b9350611ec58185602086016125ca565b80840191505092915050565b6000611ede603283612470565b9150611ee9826127a7565b604082019050919050565b6000611f01602683612470565b9150611f0c826127f6565b604082019050919050565b6000611f24602583612470565b9150611f2f82612845565b604082019050919050565b6000611f47601c83612470565b9150611f5282612894565b602082019050919050565b6000611f6a602483612470565b9150611f75826128bd565b604082019050919050565b6000611f8d601983612470565b9150611f988261290c565b602082019050919050565b6000611fb0602c83612470565b9150611fbb82612935565b604082019050919050565b6000611fd3603883612470565b9150611fde82612984565b604082019050919050565b6000611ff6602a83612470565b9150612001826129d3565b604082019050919050565b6000612019602983612470565b915061202482612a22565b604082019050919050565b600061203c602083612470565b915061204782612a71565b602082019050919050565b600061205f602c83612470565b915061206a82612a9a565b604082019050919050565b6000612082602083612470565b915061208d82612ae9565b602082019050919050565b60006120a5602f83612470565b91506120b082612b12565b604082019050919050565b60006120c8602183612470565b91506120d382612b61565b604082019050919050565b60006120eb603183612470565b91506120f682612bb0565b604082019050919050565b61210a816125b1565b82525050565b600061211c8285611ea0565b91506121288284611ea0565b91508190509392505050565b60006020820190506121496000830184611e10565b92915050565b60006080820190506121646000830187611e10565b6121716020830186611e10565b61217e6040830185612101565b81810360608301526121908184611e2e565b905095945050505050565b60006020820190506121b06000830184611e1f565b92915050565b600060208201905081810360008301526121d08184611e67565b905092915050565b600060208201905081810360008301526121f181611ed1565b9050919050565b6000602082019050818103600083015261221181611ef4565b9050919050565b6000602082019050818103600083015261223181611f17565b9050919050565b6000602082019050818103600083015261225181611f3a565b9050919050565b6000602082019050818103600083015261227181611f5d565b9050919050565b6000602082019050818103600083015261229181611f80565b9050919050565b600060208201905081810360008301526122b181611fa3565b9050919050565b600060208201905081810360008301526122d181611fc6565b9050919050565b600060208201905081810360008301526122f181611fe9565b9050919050565b600060208201905081810360008301526123118161200c565b9050919050565b600060208201905081810360008301526123318161202f565b9050919050565b6000602082019050818103600083015261235181612052565b9050919050565b6000602082019050818103600083015261237181612075565b9050919050565b6000602082019050818103600083015261239181612098565b9050919050565b600060208201905081810360008301526123b1816120bb565b9050919050565b600060208201905081810360008301526123d1816120de565b9050919050565b60006020820190506123ed6000830184612101565b92915050565b60006123fd61240e565b9050612409828261262f565b919050565b6000604051905090565b600067ffffffffffffffff82111561243357612432612767565b5b61243c82612796565b9050602081019050919050565b600081519050919050565b600081519050919050565b600082825260208201905092915050565b600082825260208201905092915050565b600081905092915050565b6000612497826125b1565b91506124a2836125b1565b9250827fffffffffffffffffffffffffffffffffffffffffffffffffffffffffffffffff038211156124d7576124d66126da565b5b828201905092915050565b60006124ed826125b1565b91506124f8836125b1565b92508261250857612507612709565b5b828204905092915050565b600061251e826125b1565b9150612529836125b1565b92508282101561253c5761253b6126da565b5b828203905092915050565b600061255282612591565b9050919050565b60008115159050919050565b60007fffffffff0000000000000000000000000000000000000000000000000000000082169050919050565b600073ffffffffffffffffffffffffffffffffffffffff82169050919050565b6000819050919050565b82818337600083830152505050565b60005b838110156125e85780820151818401526020810190506125cd565b838111156125f7576000848401525b50505050565b6000600282049050600182168061261557607f821691505b6020821081141561262957612628612738565b5b50919050565b61263882612796565b810181811067ffffffffffffffff8211171561265757612656612767565b5b80604052505050565b600061266b826125b1565b91507fffffffffffffffffffffffffffffffffffffffffffffffffffffffffffffffff82141561269e5761269d6126da565b5b600182019050919050565b60006126b4826125b1565b91506126bf836125b1565b9250826126cf576126ce612709565b5b828206905092915050565b7f4e487b7100000000000000000000000000000000000000000000000000000000600052601160045260246000fd5b7f4e487b7100000000000000000000000000000000000000000000000000000000600052601260045260246000fd5b7f4e487b7100000000000000000000000000000000000000000000000000000000600052602260045260246000fd5b7f4e487b7100000000000000000000000000000000000000000000000000000000600052604160045260246000fd5b6000601f19601f8301169050919050565b7f4552433732313a207472616e7366657220746f206e6f6e20455243373231526560008201527f63656976657220696d706c656d656e7465720000000000000000000000000000602082015250565b7f4f776e61626c653a206e6577206f776e657220697320746865207a65726f206160008201527f6464726573730000000000000000000000000000000000000000000000000000602082015250565b7f4552433732313a207472616e736665722066726f6d20696e636f72726563742060008201527f6f776e6572000000000000000000000000000000000000000000000000000000602082015250565b7f4552433732313a20746f6b656e20616c7265616479206d696e74656400000000600082015250565b7f4552433732313a207472616e7366657220746f20746865207a65726f2061646460008201527f7265737300000000000000000000000000000000000000000000000000000000602082015250565b7f4552433732313a20617070726f766520746f2063616c6c657200000000000000600082015250565b7f4552433732313a206f70657261746f7220717565727920666f72206e6f6e657860008201527f697374656e7420746f6b656e0000000000000000000000000000000000000000602082015250565b7f4552433732313a20617070726f76652063616c6c6572206973206e6f74206f7760008201527f6e6572206e6f7220617070726f76656420666f7220616c6c0000000000000000602082015250565b7f4552433732313a2062616c616e636520717565727920666f7220746865207a6560008201527f726f206164647265737300000000000000000000000000000000000000000000602082015250565b7f4552433732313a206f776e657220717565727920666f72206e6f6e657869737460008201527f656e7420746f6b656e0000000000000000000000000000000000000000000000602082015250565b7f4552433732313a206d696e7420746f20746865207a65726f2061646472657373600082015250565b7f4552433732313a20617070726f76656420717565727920666f72206e6f6e657860008201527f697374656e7420746f6b656e0000000000000000000000000000000000000000602082015250565b7f4f776e61626c653a2063616c6c6572206973206e6f7420746865206f776e6572600082015250565b7f4552433732314d657461646174613a2055524920717565727920666f72206e6f60008201527f6e6578697374656e7420746f6b656e0000000000000000000000000000000000602082015250565b7f4552433732313a20617070726f76616c20746f2063757272656e74206f776e6560008201527f7200000000000000000000000000000000000000000000000000000000000000602082015250565b7f4552433732313a207472616e736665722063616c6c6572206973206e6f74206f60008201527f776e6572206e6f7220617070726f766564000000000000000000000000000000602082015250565b612c0881612547565b8114612c1357600080fd5b50565b612c1f81612559565b8114612c2a57600080fd5b50565b612c3681612565565b8114612c4157600080fd5b50565b612c4d816125b1565b8114612c5857600080fd5b5056fea2646970667358221220a47972f0596fcdef63d7560f5e081c75ef7b6481d5108a9c9a49f79f13dcc57564736f6c63430008040033",
  "linkReferences": {},
  "deployedLinkReferences": {}
}