{
  "_format": "hh-sol-artifact-1",
  "contractName": "PathToken",
  "sourceName": "contracts/PathToken.sol",
  "abi": [
    {
      "inputs": [
        {
          "internalType": "uint256",
          "name": "amount",
          "type": "uint256"
        }
      ],
      "stateMutability": "nonpayable",
      "type": "constructor"
    },
    {
      "anonymous": false,
      "inputs": [
        {
          "indexed": true,
          "internalType": "address",
          "name": "owner",
          "type": "address"
        },
        {
          "indexed": true,
          "internalType": "address",
          "name": "spender",
          "type": "address"
        },
        {
          "indexed": false,
          "internalType": "uint256",
          "name": "value",
          "type": "uint256"
        }
      ],
      "name": "Approval",
      "type": "event"
    },
    {
      "anonymous": false,
      "inputs": [
        {
          "indexed": true,
          "internalType": "address",
          "name": "delegator",
          "type": "address"
        },
        {
          "indexed": true,
          "internalType": "address",
          "name": "fromDelegate",
          "type": "address"
        },
        {
          "indexed": true,
          "internalType": "address",
          "name": "toDelegate",
          "type": "address"
        }
      ],
      "name": "DelegateChanged",
      "type": "event"
    },
    {
      "anonymous": false,
      "inputs": [
        {
          "indexed": true,
          "internalType": "address",
          "name": "delegate",
          "type": "address"
        },
        {
          "indexed": false,
          "internalType": "uint256",
          "name": "previousBalance",
          "type": "uint256"
        },
        {
          "indexed": false,
          "internalType": "uint256",
          "name": "newBalance",
          "type": "uint256"
        }
      ],
      "name": "DelegateVotesChanged",
      "type": "event"
    },
    {
      "anonymous": false,
      "inputs": [
        {
          "indexed": true,
          "internalType": "address",
          "name": "previousOwner",
          "type": "address"
        },
        {
          "indexed": true,
          "internalType": "address",
          "name": "newOwner",
          "type": "address"
        }
      ],
      "name": "OwnershipTransferred",
      "type": "event"
    },
    {
      "anonymous": false,
      "inputs": [
        {
          "indexed": true,
          "internalType": "address",
          "name": "from",
          "type": "address"
        },
        {
          "indexed": true,
          "internalType": "address",
          "name": "to",
          "type": "address"
        },
        {
          "indexed": false,
          "internalType": "uint256",
          "name": "value",
          "type": "uint256"
        }
      ],
      "name": "Transfer",
      "type": "event"
    },
    {
      "inputs": [],
      "name": "DOMAIN_SEPARATOR",
      "outputs": [
        {
          "internalType": "bytes32",
          "name": "",
          "type": "bytes32"
        }
      ],
      "stateMutability": "view",
      "type": "function"
    },
    {
      "inputs": [
        {
          "internalType": "address",
          "name": "owner",
          "type": "address"
        },
        {
          "internalType": "address",
          "name": "spender",
          "type": "address"
        }
      ],
      "name": "allowance",
      "outputs": [
        {
          "internalType": "uint256",
          "name": "",
          "type": "uint256"
        }
      ],
      "stateMutability": "view",
      "type": "function"
    },
    {
      "inputs": [
        {
          "internalType": "address",
          "name": "spender",
          "type": "address"
        },
        {
          "internalType": "uint256",
          "name": "amount",
          "type": "uint256"
        }
      ],
      "name": "approve",
      "outputs": [
        {
          "internalType": "bool",
          "name": "",
          "type": "bool"
        }
      ],
      "stateMutability": "nonpayable",
      "type": "function"
    },
    {
      "inputs": [
        {
          "internalType": "address",
          "name": "account",
          "type": "address"
        }
      ],
      "name": "balanceOf",
      "outputs": [
        {
          "internalType": "uint256",
          "name": "",
          "type": "uint256"
        }
      ],
      "stateMutability": "view",
      "type": "function"
    },
    {
      "inputs": [
        {
          "internalType": "address",
          "name": "account",
          "type": "address"
        },
        {
          "internalType": "uint32",
          "name": "pos",
          "type": "uint32"
        }
      ],
      "name": "checkpoints",
      "outputs": [
        {
          "components": [
            {
              "internalType": "uint32",
              "name": "fromBlock",
              "type": "uint32"
            },
            {
              "internalType": "uint224",
              "name": "votes",
              "type": "uint224"
            }
          ],
          "internalType": "struct ERC20Votes.Checkpoint",
          "name": "",
          "type": "tuple"
        }
      ],
      "stateMutability": "view",
      "type": "function"
    },
    {
      "inputs": [],
      "name": "decimals",
      "outputs": [
        {
          "internalType": "uint8",
          "name": "",
          "type": "uint8"
        }
      ],
      "stateMutability": "view",
      "type": "function"
    },
    {
      "inputs": [
        {
          "internalType": "address",
          "name": "spender",
          "type": "address"
        },
        {
          "internalType": "uint256",
          "name": "subtractedValue",
          "type": "uint256"
        }
      ],
      "name": "decreaseAllowance",
      "outputs": [
        {
          "internalType": "bool",
          "name": "",
          "type": "bool"
        }
      ],
      "stateMutability": "nonpayable",
      "type": "function"
    },
    {
      "inputs": [
        {
          "internalType": "address",
          "name": "delegatee",
          "type": "address"
        }
      ],
      "name": "delegate",
      "outputs": [],
      "stateMutability": "nonpayable",
      "type": "function"
    },
    {
      "inputs": [
        {
          "internalType": "address",
          "name": "delegatee",
          "type": "address"
        },
        {
          "internalType": "uint256",
          "name": "nonce",
          "type": "uint256"
        },
        {
          "internalType": "uint256",
          "name": "expiry",
          "type": "uint256"
        },
        {
          "internalType": "uint8",
          "name": "v",
          "type": "uint8"
        },
        {
          "internalType": "bytes32",
          "name": "r",
          "type": "bytes32"
        },
        {
          "internalType": "bytes32",
          "name": "s",
          "type": "bytes32"
        }
      ],
      "name": "delegateBySig",
      "outputs": [],
      "stateMutability": "nonpayable",
      "type": "function"
    },
    {
      "inputs": [
        {
          "internalType": "address",
          "name": "account",
          "type": "address"
        }
      ],
      "name": "delegates",
      "outputs": [
        {
          "internalType": "address",
          "name": "",
          "type": "address"
        }
      ],
      "stateMutability": "view",
      "type": "function"
    },
    {
      "inputs": [
        {
          "internalType": "uint256",
          "name": "blockNumber",
          "type": "uint256"
        }
      ],
      "name": "getPastTotalSupply",
      "outputs": [
        {
          "internalType": "uint256",
          "name": "",
          "type": "uint256"
        }
      ],
      "stateMutability": "view",
      "type": "function"
    },
    {
      "inputs": [
        {
          "internalType": "address",
          "name": "account",
          "type": "address"
        },
        {
          "internalType": "uint256",
          "name": "blockNumber",
          "type": "uint256"
        }
      ],
      "name": "getPastVotes",
      "outputs": [
        {
          "internalType": "uint256",
          "name": "",
          "type": "uint256"
        }
      ],
      "stateMutability": "view",
      "type": "function"
    },
    {
      "inputs": [
        {
          "internalType": "address",
          "name": "account",
          "type": "address"
        }
      ],
      "name": "getVotes",
      "outputs": [
        {
          "internalType": "uint256",
          "name": "",
          "type": "uint256"
        }
      ],
      "stateMutability": "view",
      "type": "function"
    },
    {
      "inputs": [
        {
          "internalType": "address",
          "name": "spender",
          "type": "address"
        },
        {
          "internalType": "uint256",
          "name": "addedValue",
          "type": "uint256"
        }
      ],
      "name": "increaseAllowance",
      "outputs": [
        {
          "internalType": "bool",
          "name": "",
          "type": "bool"
        }
      ],
      "stateMutability": "nonpayable",
      "type": "function"
    },
    {
      "inputs": [
        {
          "internalType": "address",
          "name": "to",
          "type": "address"
        },
        {
          "internalType": "uint256",
          "name": "amount",
          "type": "uint256"
        }
      ],
      "name": "mint",
      "outputs": [],
      "stateMutability": "nonpayable",
      "type": "function"
    },
    {
      "inputs": [],
      "name": "name",
      "outputs": [
        {
          "internalType": "string",
          "name": "",
          "type": "string"
        }
      ],
      "stateMutability": "view",
      "type": "function"
    },
    {
      "inputs": [
        {
          "internalType": "address",
          "name": "owner",
          "type": "address"
        }
      ],
      "name": "nonces",
      "outputs": [
        {
          "internalType": "uint256",
          "name": "",
          "type": "uint256"
        }
      ],
      "stateMutability": "view",
      "type": "function"
    },
    {
      "inputs": [
        {
          "internalType": "address",
          "name": "account",
          "type": "address"
        }
      ],
      "name": "numCheckpoints",
      "outputs": [
        {
          "internalType": "uint32",
          "name": "",
          "type": "uint32"
        }
      ],
      "stateMutability": "view",
      "type": "function"
    },
    {
      "inputs": [],
      "name": "owner",
      "outputs": [
        {
          "internalType": "address",
          "name": "",
          "type": "address"
        }
      ],
      "stateMutability": "view",
      "type": "function"
    },
    {
      "inputs": [
        {
          "internalType": "address",
          "name": "owner",
          "type": "address"
        },
        {
          "internalType": "address",
          "name": "spender",
          "type": "address"
        },
        {
          "internalType": "uint256",
          "name": "value",
          "type": "uint256"
        },
        {
          "internalType": "uint256",
          "name": "deadline",
          "type": "uint256"
        },
        {
          "internalType": "uint8",
          "name": "v",
          "type": "uint8"
        },
        {
          "internalType": "bytes32",
          "name": "r",
          "type": "bytes32"
        },
        {
          "internalType": "bytes32",
          "name": "s",
          "type": "bytes32"
        }
      ],
      "name": "permit",
      "outputs": [],
      "stateMutability": "nonpayable",
      "type": "function"
    },
    {
      "inputs": [],
      "name": "renounceOwnership",
      "outputs": [],
      "stateMutability": "nonpayable",
      "type": "function"
    },
    {
      "inputs": [],
      "name": "symbol",
      "outputs": [
        {
          "internalType": "string",
          "name": "",
          "type": "string"
        }
      ],
      "stateMutability": "view",
      "type": "function"
    },
    {
      "inputs": [],
      "name": "totalSupply",
      "outputs": [
        {
          "internalType": "uint256",
          "name": "",
          "type": "uint256"
        }
      ],
      "stateMutability": "view",
      "type": "function"
    },
    {
      "inputs": [
        {
          "internalType": "address",
          "name": "to",
          "type": "address"
        },
        {
          "internalType": "uint256",
          "name": "amount",
          "type": "uint256"
        }
      ],
      "name": "transfer",
      "outputs": [
        {
          "internalType": "bool",
          "name": "",
          "type": "bool"
        }
      ],
      "stateMutability": "nonpayable",
      "type": "function"
    },
    {
      "inputs": [
        {
          "internalType": "address",
          "name": "from",
          "type": "address"
        },
        {
          "internalType": "address",
          "name": "to",
          "type": "address"
        },
        {
          "internalType": "uint256",
          "name": "amount",
          "type": "uint256"
        }
      ],
      "name": "transferFrom",
      "outputs": [
        {
          "internalType": "bool",
          "name": "",
          "type": "bool"
        }
      ],
      "stateMutability": "nonpayable",
      "type": "function"
    },
    {
      "inputs": [
        {
          "internalType": "address",
          "name": "newOwner",
          "type": "address"
        }
      ],
      "name": "transferOwnership",
      "outputs": [],
      "stateMutability": "nonpayable",
      "type": "function"
    }
  ],
  "bytecode": "0x6101606040527f6e71edae12b1b97f4d1f60370fef10105fa2faae0126114a169c64845d6126c9610140523480156200003757600080fd5b5060405162002a5138038062002a518339810160408190526200005a91620008ec565b6040518060400160405280600f81526020016e5061746873324162756e64616e636560881b81525080604051806040016040528060018152602001603160f81b8152506040518060400160405280600f81526020016e5061746873324162756e64616e636560881b815250604051806040016040528060048152602001630a082a8960e31b8152508160039080519060200190620000fa92919062000850565b5080516200011090600490602084019062000850565b5050506200012d62000127620001d860201b60201c565b620001dc565b815160208084019190912082518383012060e08290526101008190524660a0818152604080517f8b73c3c69bb8fe3d512ecc4cf759cc79239f7b179b0ffacaa9a75d522b39400f81880181905281830187905260608201869052608082019490945230818401528151808203909301835260c00190528051940193909320919290916080523060601b60c0526101205250620001d19350339250849150506200022e565b506200098d565b3390565b600580546001600160a01b038381166001600160a01b0319831681179093556040519116919082907f8be0079c531659141344cd1fd0a4f28419497f9722a3daafe3b4186f6b6457e090600090a35050565b6200024582826200024960201b62000cc11760201c565b5050565b6200026082826200030060201b62000d5e1760201c565b6001600160e01b0362000274620003ef8216565b1115620002e15760405162461bcd60e51b815260206004820152603060248201527f4552433230566f7465733a20746f74616c20737570706c79207269736b73206f60448201526f766572666c6f77696e6720766f74657360801b60648201526084015b60405180910390fd5b620002fa600962000e45620003f560201b17836200040a565b50505050565b6001600160a01b038216620003585760405162461bcd60e51b815260206004820152601f60248201527f45524332303a206d696e7420746f20746865207a65726f2061646472657373006044820152606401620002d8565b80600260008282546200036c919062000905565b90915550506001600160a01b038216600090815260208190526040812080548392906200039b90849062000905565b90915550506040518181526001600160a01b038316906000907fddf252ad1be2c89b69c2b068fc378daa952ba7f163c4a11628f55a4df523b3ef9060200160405180910390a36200024560008383620005e5565b60025490565b600062000403828462000905565b9392505050565b8254600090819080156200046857856200042660018362000920565b815481106200044557634e487b7160e01b600052603260045260246000fd5b60009182526020909120015464010000000090046001600160e01b03166200046b565b60005b6001600160e01b031692506200048283858760201c565b9150600081118015620004d2575043866200049f60018462000920565b81548110620004be57634e487b7160e01b600052603260045260246000fd5b60009182526020909120015463ffffffff16145b156200055257620004ee82620005fd60201b62000e511760201c565b86620004fc60018462000920565b815481106200051b57634e487b7160e01b600052603260045260246000fd5b9060005260206000200160000160046101000a8154816001600160e01b0302191690836001600160e01b03160217905550620005d7565b85604051806040016040528062000574436200066c60201b62000ed41760201c565b63ffffffff1681526020016200059585620005fd60201b62000e511760201c565b6001600160e01b0390811690915282546001810184556000938452602093849020835194909301519091166401000000000263ffffffff909316929092179101555b50935093915050565b505050565b620005e0838383620006d360201b62000f501760201c565b60006001600160e01b03821115620006685760405162461bcd60e51b815260206004820152602760248201527f53616665436173743a2076616c756520646f65736e27742066697420696e20326044820152663234206269747360c81b6064820152608401620002d8565b5090565b600063ffffffff821115620006685760405162461bcd60e51b815260206004820152602660248201527f53616665436173743a2076616c756520646f65736e27742066697420696e203360448201526532206269747360d01b6064820152608401620002d8565b620006eb838383620005e060201b62000f821760201c565b6001600160a01b03838116600090815260076020526040808220548584168352912054620005e0929182169116838183148015906200072a5750600081115b15620005e0576001600160a01b03831615620007b7576001600160a01b03831660009081526008602090815260408220829162000774919062000842901b62000f8717856200040a565b91509150846001600160a01b031660008051602062002a318339815191528383604051620007ac929190918252602082015260400190565b60405180910390a250505b6001600160a01b03821615620005e0576001600160a01b038216600090815260086020908152604082208291620007fb9190620003f5901b62000e4517856200040a565b91509150836001600160a01b031660008051602062002a31833981519152838360405162000833929190918252602082015260400190565b60405180910390a25050505050565b600062000403828462000920565b8280546200085e906200093a565b90600052602060002090601f016020900481019282620008825760008555620008cd565b82601f106200089d57805160ff1916838001178555620008cd565b82800160010185558215620008cd579182015b82811115620008cd578251825591602001919060010190620008b0565b50620006689291505b80821115620006685760008155600101620008d6565b600060208284031215620008fe578081fd5b5051919050565b600082198211156200091b576200091b62000977565b500190565b60008282101562000935576200093562000977565b500390565b600181811c908216806200094f57607f821691505b602082108114156200097157634e487b7160e01b600052602260045260246000fd5b50919050565b634e487b7160e01b600052601160045260246000fd5b60805160a05160c05160601c60e051610100516101205161014051612046620009eb6000396000610a400152600061141e0152600061146d01526000611448015260006113a1015260006113cb015260006113f501526120466000f3fe608060405234801561001057600080fd5b50600436106101ae5760003560e01c8063715018a6116100ee578063a457c2d711610097578063d505accf11610071578063d505accf146103a6578063dd62ed3e146103b9578063f1127ed8146103f2578063f2fde38b1461042f57600080fd5b8063a457c2d71461036d578063a9059cbb14610380578063c3cda5201461039357600080fd5b80638e539e8c116100c85780638e539e8c1461033f57806395d89b41146103525780639ab24eb01461035a57600080fd5b8063715018a6146103135780637ecebe001461031b5780638da5cb5b1461032e57600080fd5b8063395093511161015b578063587cde1e11610135578063587cde1e1461026b5780635c19a95c146102af5780636fcfff45146102c257806370a08231146102ea57600080fd5b806339509351146102305780633a46b1a81461024357806340c10f191461025657600080fd5b806323b872dd1161018c57806323b872dd14610206578063313ce567146102195780633644e5151461022857600080fd5b806306fdde03146101b3578063095ea7b3146101d157806318160ddd146101f4575b600080fd5b6101bb610442565b6040516101c89190611f23565b60405180910390f35b6101e46101df366004611e4d565b6104d4565b60405190151581526020016101c8565b6002545b6040519081526020016101c8565b6101e4610214366004611da9565b6104ec565b604051601281526020016101c8565b6101f8610510565b6101e461023e366004611e4d565b61051f565b6101f8610251366004611e4d565b61055e565b610269610264366004611e4d565b6105dd565b005b610297610279366004611d5d565b6001600160a01b039081166000908152600760205260409020541690565b6040516001600160a01b0390911681526020016101c8565b6102696102bd366004611d5d565b610645565b6102d56102d0366004611d5d565b610652565b60405163ffffffff90911681526020016101c8565b6101f86102f8366004611d5d565b6001600160a01b031660009081526020819052604090205490565b61026961067a565b6101f8610329366004611d5d565b6106e0565b6005546001600160a01b0316610297565b6101f861034d366004611f0b565b6106fe565b6101bb61075a565b6101f8610368366004611d5d565b610769565b6101e461037b366004611e4d565b6107fe565b6101e461038e366004611e4d565b6108a8565b6102696103a1366004611e76565b6108b6565b6102696103b4366004611de4565b6109ec565b6101f86103c7366004611d77565b6001600160a01b03918216600090815260016020908152604080832093909416825291909152205490565b610405610400366004611ecd565b610b50565b60408051825163ffffffff1681526020928301516001600160e01b031692810192909252016101c8565b61026961043d366004611d5d565b610be2565b60606003805461045190611fc5565b80601f016020809104026020016040519081016040528092919081815260200182805461047d90611fc5565b80156104ca5780601f1061049f576101008083540402835291602001916104ca565b820191906000526020600020905b8154815290600101906020018083116104ad57829003601f168201915b5050505050905090565b6000336104e2818585610f93565b5060019392505050565b6000336104fa8582856110eb565b610505858585611177565b506001949350505050565b600061051a611394565b905090565b3360008181526001602090815260408083206001600160a01b03871684529091528120549091906104e29082908690610559908790611f76565b610f93565b60004382106105b45760405162461bcd60e51b815260206004820152601f60248201527f4552433230566f7465733a20626c6f636b206e6f7420796574206d696e65640060448201526064015b60405180910390fd5b6001600160a01b03831660009081526008602052604090206105d690836114bb565b9392505050565b6005546001600160a01b031633146106375760405162461bcd60e51b815260206004820181905260248201527f4f776e61626c653a2063616c6c6572206973206e6f7420746865206f776e657260448201526064016105ab565b6106418282611594565b5050565b61064f338261159e565b50565b6001600160a01b03811660009081526008602052604081205461067490610ed4565b92915050565b6005546001600160a01b031633146106d45760405162461bcd60e51b815260206004820181905260248201527f4f776e61626c653a2063616c6c6572206973206e6f7420746865206f776e657260448201526064016105ab565b6106de6000611624565b565b6001600160a01b038116600090815260066020526040812054610674565b600043821061074f5760405162461bcd60e51b815260206004820152601f60248201527f4552433230566f7465733a20626c6f636b206e6f7420796574206d696e65640060448201526064016105ab565b6106746009836114bb565b60606004805461045190611fc5565b6001600160a01b03811660009081526008602052604081205480156107eb576001600160a01b03831660009081526008602052604090206107ab600183611fae565b815481106107c957634e487b7160e01b600052603260045260246000fd5b60009182526020909120015464010000000090046001600160e01b03166107ee565b60005b6001600160e01b03169392505050565b3360008181526001602090815260408083206001600160a01b03871684529091528120549091908381101561089b5760405162461bcd60e51b815260206004820152602560248201527f45524332303a2064656372656173656420616c6c6f77616e63652062656c6f7760448201527f207a65726f00000000000000000000000000000000000000000000000000000060648201526084016105ab565b6105058286868403610f93565b6000336104e2818585611177565b834211156109065760405162461bcd60e51b815260206004820152601d60248201527f4552433230566f7465733a207369676e6174757265206578706972656400000060448201526064016105ab565b604080517fe48329057bfd03d55e49b547132e39cffd9c1820ad7b9d4c5307691425d15adf60208201526001600160a01b038816918101919091526060810186905260808101859052600090610980906109789060a00160405160208183030381529060405280519060200120611683565b8585856116ec565b905061098b81611714565b86146109d95760405162461bcd60e51b815260206004820152601960248201527f4552433230566f7465733a20696e76616c6964206e6f6e63650000000000000060448201526064016105ab565b6109e3818861159e565b50505050505050565b83421115610a3c5760405162461bcd60e51b815260206004820152601d60248201527f45524332305065726d69743a206578706972656420646561646c696e6500000060448201526064016105ab565b60007f0000000000000000000000000000000000000000000000000000000000000000888888610a6b8c611714565b6040805160208101969096526001600160a01b0394851690860152929091166060840152608083015260a082015260c0810186905260e0016040516020818303038152906040528051906020012090506000610ac682611683565b90506000610ad6828787876116ec565b9050896001600160a01b0316816001600160a01b031614610b395760405162461bcd60e51b815260206004820152601e60248201527f45524332305065726d69743a20696e76616c6964207369676e6174757265000060448201526064016105ab565b610b448a8a8a610f93565b50505050505050505050565b60408051808201909152600080825260208201526001600160a01b0383166000908152600860205260409020805463ffffffff8416908110610ba257634e487b7160e01b600052603260045260246000fd5b60009182526020918290206040805180820190915291015463ffffffff8116825264010000000090046001600160e01b0316918101919091529392505050565b6005546001600160a01b03163314610c3c5760405162461bcd60e51b815260206004820181905260248201527f4f776e61626c653a2063616c6c6572206973206e6f7420746865206f776e657260448201526064016105ab565b6001600160a01b038116610cb85760405162461bcd60e51b815260206004820152602660248201527f4f776e61626c653a206e6577206f776e657220697320746865207a65726f206160448201527f646472657373000000000000000000000000000000000000000000000000000060648201526084016105ab565b61064f81611624565b610ccb8282610d5e565b6002546001600160e01b031015610d4a5760405162461bcd60e51b815260206004820152603060248201527f4552433230566f7465733a20746f74616c20737570706c79207269736b73206f60448201527f766572666c6f77696e6720766f7465730000000000000000000000000000000060648201526084016105ab565b610d586009610e458361173c565b50505050565b6001600160a01b038216610db45760405162461bcd60e51b815260206004820152601f60248201527f45524332303a206d696e7420746f20746865207a65726f20616464726573730060448201526064016105ab565b8060026000828254610dc69190611f76565b90915550506001600160a01b03821660009081526020819052604081208054839290610df3908490611f76565b90915550506040518181526001600160a01b038316906000907fddf252ad1be2c89b69c2b068fc378daa952ba7f163c4a11628f55a4df523b3ef9060200160405180910390a3610641600083836118df565b60006105d68284611f76565b60006001600160e01b03821115610ed05760405162461bcd60e51b815260206004820152602760248201527f53616665436173743a2076616c756520646f65736e27742066697420696e203260448201527f323420626974730000000000000000000000000000000000000000000000000060648201526084016105ab565b5090565b600063ffffffff821115610ed05760405162461bcd60e51b815260206004820152602660248201527f53616665436173743a2076616c756520646f65736e27742066697420696e203360448201527f322062697473000000000000000000000000000000000000000000000000000060648201526084016105ab565b6001600160a01b03838116600090815260076020526040808220548584168352912054610f82929182169116836118ea565b505050565b60006105d68284611fae565b6001600160a01b03831661100e5760405162461bcd60e51b8152602060048201526024808201527f45524332303a20617070726f76652066726f6d20746865207a65726f2061646460448201527f726573730000000000000000000000000000000000000000000000000000000060648201526084016105ab565b6001600160a01b03821661108a5760405162461bcd60e51b815260206004820152602260248201527f45524332303a20617070726f766520746f20746865207a65726f20616464726560448201527f737300000000000000000000000000000000000000000000000000000000000060648201526084016105ab565b6001600160a01b0383811660008181526001602090815260408083209487168084529482529182902085905590518481527f8c5be1e5ebec7d5bd14f71427d1e84f3dd0314c0f7b2291e5b200ac8c7c3b925910160405180910390a3505050565b6001600160a01b038381166000908152600160209081526040808320938616835292905220546000198114610d58578181101561116a5760405162461bcd60e51b815260206004820152601d60248201527f45524332303a20696e73756666696369656e7420616c6c6f77616e636500000060448201526064016105ab565b610d588484848403610f93565b6001600160a01b0383166111f35760405162461bcd60e51b815260206004820152602560248201527f45524332303a207472616e736665722066726f6d20746865207a65726f20616460448201527f647265737300000000000000000000000000000000000000000000000000000060648201526084016105ab565b6001600160a01b03821661126f5760405162461bcd60e51b815260206004820152602360248201527f45524332303a207472616e7366657220746f20746865207a65726f206164647260448201527f657373000000000000000000000000000000000000000000000000000000000060648201526084016105ab565b6001600160a01b038316600090815260208190526040902054818110156112fe5760405162461bcd60e51b815260206004820152602660248201527f45524332303a207472616e7366657220616d6f756e742065786365656473206260448201527f616c616e6365000000000000000000000000000000000000000000000000000060648201526084016105ab565b6001600160a01b03808516600090815260208190526040808220858503905591851681529081208054849290611335908490611f76565b92505081905550826001600160a01b0316846001600160a01b03167fddf252ad1be2c89b69c2b068fc378daa952ba7f163c4a11628f55a4df523b3ef8460405161138191815260200190565b60405180910390a3610d588484846118df565b6000306001600160a01b037f0000000000000000000000000000000000000000000000000000000000000000161480156113ed57507f000000000000000000000000000000000000000000000000000000000000000046145b1561141757507f000000000000000000000000000000000000000000000000000000000000000090565b50604080517f00000000000000000000000000000000000000000000000000000000000000006020808301919091527f0000000000000000000000000000000000000000000000000000000000000000828401527f000000000000000000000000000000000000000000000000000000000000000060608301524660808301523060a0808401919091528351808403909101815260c0909201909252805191012090565b8154600090815b8181101561152d5760006114d68284611a27565b9050848682815481106114f957634e487b7160e01b600052603260045260246000fd5b60009182526020909120015463ffffffff16111561151957809250611527565b611524816001611f76565b91505b506114c2565b811561157f578461153f600184611fae565b8154811061155d57634e487b7160e01b600052603260045260246000fd5b60009182526020909120015464010000000090046001600160e01b0316611582565b60005b6001600160e01b031695945050505050565b6106418282610cc1565b6001600160a01b0382811660008181526007602081815260408084208054858452828620549490935287871673ffffffffffffffffffffffffffffffffffffffff198416811790915590519190951694919391928592917f3134e8a2e6d97e929a7e54011ea5485d7d196dd5f0ba4d4ef95803e8e3fc257f9190a4610d588284836118ea565b600580546001600160a01b0383811673ffffffffffffffffffffffffffffffffffffffff19831681179093556040519116919082907f8be0079c531659141344cd1fd0a4f28419497f9722a3daafe3b4186f6b6457e090600090a35050565b6000610674611690611394565b836040517f19010000000000000000000000000000000000000000000000000000000000006020820152602281018390526042810182905260009060620160405160208183030381529060405280519060200120905092915050565b60008060006116fd87878787611a42565b9150915061170a81611b2f565b5095945050505050565b6001600160a01b03811660009081526006602052604090208054600181018255905b50919050565b8254600090819080156117955785611755600183611fae565b8154811061177357634e487b7160e01b600052603260045260246000fd5b60009182526020909120015464010000000090046001600160e01b0316611798565b60005b6001600160e01b031692506117b183858763ffffffff16565b91506000811180156117fd575043866117cb600184611fae565b815481106117e957634e487b7160e01b600052603260045260246000fd5b60009182526020909120015463ffffffff16145b1561186b5761180b82610e51565b86611817600184611fae565b8154811061183557634e487b7160e01b600052603260045260246000fd5b9060005260206000200160000160046101000a8154816001600160e01b0302191690836001600160e01b031602179055506118d6565b85604051806040016040528061188043610ed4565b63ffffffff16815260200161189485610e51565b6001600160e01b0390811690915282546001810184556000938452602093849020835194909301519091166401000000000263ffffffff909316929092179101555b50935093915050565b610f82838383610f50565b816001600160a01b0316836001600160a01b03161415801561190c5750600081115b15610f82576001600160a01b0383161561199a576001600160a01b0383166000908152600860205260408120819061194790610f878561173c565b91509150846001600160a01b03167fdec2bacdd2f05b59de34da9b523dff8be42e5e38e818c82fdb0bae774387a724838360405161198f929190918252602082015260400190565b60405180910390a250505b6001600160a01b03821615610f82576001600160a01b038216600090815260086020526040812081906119d090610e458561173c565b91509150836001600160a01b03167fdec2bacdd2f05b59de34da9b523dff8be42e5e38e818c82fdb0bae774387a7248383604051611a18929190918252602082015260400190565b60405180910390a25050505050565b6000611a366002848418611f8e565b6105d690848416611f76565b6000807f7fffffffffffffffffffffffffffffff5d576e7357a4501ddfe92f46681b20a0831115611a795750600090506003611b26565b8460ff16601b14158015611a9157508460ff16601c14155b15611aa25750600090506004611b26565b6040805160008082526020820180845289905260ff881692820192909252606081018690526080810185905260019060a0016020604051602081039080840390855afa158015611af6573d6000803e3d6000fd5b5050604051601f1901519150506001600160a01b038116611b1f57600060019250925050611b26565b9150600090505b94509492505050565b6000816004811115611b5157634e487b7160e01b600052602160045260246000fd5b1415611b5a5750565b6001816004811115611b7c57634e487b7160e01b600052602160045260246000fd5b1415611bca5760405162461bcd60e51b815260206004820152601860248201527f45434453413a20696e76616c6964207369676e6174757265000000000000000060448201526064016105ab565b6002816004811115611bec57634e487b7160e01b600052602160045260246000fd5b1415611c3a5760405162461bcd60e51b815260206004820152601f60248201527f45434453413a20696e76616c6964207369676e6174757265206c656e6774680060448201526064016105ab565b6003816004811115611c5c57634e487b7160e01b600052602160045260246000fd5b1415611cb55760405162461bcd60e51b815260206004820152602260248201527f45434453413a20696e76616c6964207369676e6174757265202773272076616c604482015261756560f01b60648201526084016105ab565b6004816004811115611cd757634e487b7160e01b600052602160045260246000fd5b141561064f5760405162461bcd60e51b815260206004820152602260248201527f45434453413a20696e76616c6964207369676e6174757265202776272076616c604482015261756560f01b60648201526084016105ab565b80356001600160a01b0381168114611d4757600080fd5b919050565b803560ff81168114611d4757600080fd5b600060208284031215611d6e578081fd5b6105d682611d30565b60008060408385031215611d89578081fd5b611d9283611d30565b9150611da060208401611d30565b90509250929050565b600080600060608486031215611dbd578081fd5b611dc684611d30565b9250611dd460208501611d30565b9150604084013590509250925092565b600080600080600080600060e0888a031215611dfe578283fd5b611e0788611d30565b9650611e1560208901611d30565b95506040880135945060608801359350611e3160808901611d4c565b925060a0880135915060c0880135905092959891949750929550565b60008060408385031215611e5f578182fd5b611e6883611d30565b946020939093013593505050565b60008060008060008060c08789031215611e8e578182fd5b611e9787611d30565b95506020870135945060408701359350611eb360608801611d4c565b92506080870135915060a087013590509295509295509295565b60008060408385031215611edf578182fd5b611ee883611d30565b9150602083013563ffffffff81168114611f00578182fd5b809150509250929050565b600060208284031215611f1c578081fd5b5035919050565b6000602080835283518082850152825b81811015611f4f57858101830151858201604001528201611f33565b81811115611f605783604083870101525b50601f01601f1916929092016040019392505050565b60008219821115611f8957611f89611ffa565b500190565b600082611fa957634e487b7160e01b81526012600452602481fd5b500490565b600082821015611fc057611fc0611ffa565b500390565b600181811c90821680611fd957607f821691505b6020821081141561173657634e487b7160e01b600052602260045260246000fd5b634e487b7160e01b600052601160045260246000fdfea26469706673582212209cf8e0617f8374cd47279b0b917a468b97d3df9d0615e1b026a35a78efb6e11764736f6c63430008040033dec2bacdd2f05b59de34da9b523dff8be42e5e38e818c82fdb0bae774387a724",
  "linkReferences": {},
  "deployedLinkReferences": {}
}