{
  "_format": "hh-sol-artifact-1",
  "contractName": "PathToken",
  "sourceName": "contracts/PathToken.sol",
  "abi": [
    {
      "inputs": [
        {
          "internalType": "uint256",
          "name": "amount",
          "type": "uint256"
        }
      ],
      "stateMutability": "nonpayable",
      "type": "constructor"
    },
    {
      "anonymous": false,
      "inputs": [
        {
          "indexed": true,
          "internalType": "address",
          "name": "owner",
          "type": "address"
        },
        {
          "indexed": true,
          "internalType": "address",
          "name": "spender",
          "type": "address"
        },
        {
          "indexed": false,
          "internalType": "uint256",
          "name": "value",
          "type": "uint256"
        }
      ],
      "name": "Approval",
      "type": "event"
    },
    {
      "anonymous": false,
      "inputs": [
        {
          "indexed": true,
          "internalType": "address",
          "name": "delegator",
          "type": "address"
        },
        {
          "indexed": true,
          "internalType": "address",
          "name": "fromDelegate",
          "type": "address"
        },
        {
          "indexed": true,
          "internalType": "address",
          "name": "toDelegate",
          "type": "address"
        }
      ],
      "name": "DelegateChanged",
      "type": "event"
    },
    {
      "anonymous": false,
      "inputs": [
        {
          "indexed": true,
          "internalType": "address",
          "name": "delegate",
          "type": "address"
        },
        {
          "indexed": false,
          "internalType": "uint256",
          "name": "previousBalance",
          "type": "uint256"
        },
        {
          "indexed": false,
          "internalType": "uint256",
          "name": "newBalance",
          "type": "uint256"
        }
      ],
      "name": "DelegateVotesChanged",
      "type": "event"
    },
    {
      "anonymous": false,
      "inputs": [
        {
          "indexed": true,
          "internalType": "address",
          "name": "previousOwner",
          "type": "address"
        },
        {
          "indexed": true,
          "internalType": "address",
          "name": "newOwner",
          "type": "address"
        }
      ],
      "name": "OwnershipTransferred",
      "type": "event"
    },
    {
      "anonymous": false,
      "inputs": [
        {
          "indexed": true,
          "internalType": "address",
          "name": "from",
          "type": "address"
        },
        {
          "indexed": true,
          "internalType": "address",
          "name": "to",
          "type": "address"
        },
        {
          "indexed": false,
          "internalType": "uint256",
          "name": "value",
          "type": "uint256"
        }
      ],
      "name": "Transfer",
      "type": "event"
    },
    {
      "inputs": [],
      "name": "DOMAIN_SEPARATOR",
      "outputs": [
        {
          "internalType": "bytes32",
          "name": "",
          "type": "bytes32"
        }
      ],
      "stateMutability": "view",
      "type": "function"
    },
    {
      "inputs": [
        {
          "internalType": "address",
          "name": "owner",
          "type": "address"
        },
        {
          "internalType": "address",
          "name": "spender",
          "type": "address"
        }
      ],
      "name": "allowance",
      "outputs": [
        {
          "internalType": "uint256",
          "name": "",
          "type": "uint256"
        }
      ],
      "stateMutability": "view",
      "type": "function"
    },
    {
      "inputs": [
        {
          "internalType": "address",
          "name": "spender",
          "type": "address"
        },
        {
          "internalType": "uint256",
          "name": "amount",
          "type": "uint256"
        }
      ],
      "name": "approve",
      "outputs": [
        {
          "internalType": "bool",
          "name": "",
          "type": "bool"
        }
      ],
      "stateMutability": "nonpayable",
      "type": "function"
    },
    {
      "inputs": [
        {
          "internalType": "address",
          "name": "account",
          "type": "address"
        }
      ],
      "name": "balanceOf",
      "outputs": [
        {
          "internalType": "uint256",
          "name": "",
          "type": "uint256"
        }
      ],
      "stateMutability": "view",
      "type": "function"
    },
    {
      "inputs": [
        {
          "internalType": "address",
          "name": "account",
          "type": "address"
        },
        {
          "internalType": "uint32",
          "name": "pos",
          "type": "uint32"
        }
      ],
      "name": "checkpoints",
      "outputs": [
        {
          "components": [
            {
              "internalType": "uint32",
              "name": "fromBlock",
              "type": "uint32"
            },
            {
              "internalType": "uint224",
              "name": "votes",
              "type": "uint224"
            }
          ],
          "internalType": "struct ERC20Votes.Checkpoint",
          "name": "",
          "type": "tuple"
        }
      ],
      "stateMutability": "view",
      "type": "function"
    },
    {
      "inputs": [
        {
          "internalType": "contract IERC1155",
          "name": "_address",
          "type": "address"
        }
      ],
      "name": "connectNFT",
      "outputs": [],
      "stateMutability": "nonpayable",
      "type": "function"
    },
    {
      "inputs": [],
      "name": "decimals",
      "outputs": [
        {
          "internalType": "uint8",
          "name": "",
          "type": "uint8"
        }
      ],
      "stateMutability": "view",
      "type": "function"
    },
    {
      "inputs": [
        {
          "internalType": "address",
          "name": "spender",
          "type": "address"
        },
        {
          "internalType": "uint256",
          "name": "subtractedValue",
          "type": "uint256"
        }
      ],
      "name": "decreaseAllowance",
      "outputs": [
        {
          "internalType": "bool",
          "name": "",
          "type": "bool"
        }
      ],
      "stateMutability": "nonpayable",
      "type": "function"
    },
    {
      "inputs": [
        {
          "internalType": "address",
          "name": "delegatee",
          "type": "address"
        }
      ],
      "name": "delegate",
      "outputs": [],
      "stateMutability": "nonpayable",
      "type": "function"
    },
    {
      "inputs": [
        {
          "internalType": "address",
          "name": "delegatee",
          "type": "address"
        },
        {
          "internalType": "uint256",
          "name": "nonce",
          "type": "uint256"
        },
        {
          "internalType": "uint256",
          "name": "expiry",
          "type": "uint256"
        },
        {
          "internalType": "uint8",
          "name": "v",
          "type": "uint8"
        },
        {
          "internalType": "bytes32",
          "name": "r",
          "type": "bytes32"
        },
        {
          "internalType": "bytes32",
          "name": "s",
          "type": "bytes32"
        }
      ],
      "name": "delegateBySig",
      "outputs": [],
      "stateMutability": "nonpayable",
      "type": "function"
    },
    {
      "inputs": [
        {
          "internalType": "address",
          "name": "account",
          "type": "address"
        }
      ],
      "name": "delegates",
      "outputs": [
        {
          "internalType": "address",
          "name": "",
          "type": "address"
        }
      ],
      "stateMutability": "view",
      "type": "function"
    },
    {
      "inputs": [
        {
          "internalType": "uint256",
          "name": "blockNumber",
          "type": "uint256"
        }
      ],
      "name": "getPastTotalSupply",
      "outputs": [
        {
          "internalType": "uint256",
          "name": "",
          "type": "uint256"
        }
      ],
      "stateMutability": "view",
      "type": "function"
    },
    {
      "inputs": [
        {
          "internalType": "address",
          "name": "account",
          "type": "address"
        },
        {
          "internalType": "uint256",
          "name": "blockNumber",
          "type": "uint256"
        }
      ],
      "name": "getPastVotes",
      "outputs": [
        {
          "internalType": "uint256",
          "name": "",
          "type": "uint256"
        }
      ],
      "stateMutability": "view",
      "type": "function"
    },
    {
      "inputs": [
        {
          "internalType": "address",
          "name": "account",
          "type": "address"
        }
      ],
      "name": "getVotes",
      "outputs": [
        {
          "internalType": "uint256",
          "name": "",
          "type": "uint256"
        }
      ],
      "stateMutability": "view",
      "type": "function"
    },
    {
      "inputs": [
        {
          "internalType": "address",
          "name": "spender",
          "type": "address"
        },
        {
          "internalType": "uint256",
          "name": "addedValue",
          "type": "uint256"
        }
      ],
      "name": "increaseAllowance",
      "outputs": [
        {
          "internalType": "bool",
          "name": "",
          "type": "bool"
        }
      ],
      "stateMutability": "nonpayable",
      "type": "function"
    },
    {
      "inputs": [
        {
          "internalType": "address",
          "name": "to",
          "type": "address"
        },
        {
          "internalType": "uint256",
          "name": "amount",
          "type": "uint256"
        }
      ],
      "name": "mint",
      "outputs": [],
      "stateMutability": "nonpayable",
      "type": "function"
    },
    {
      "inputs": [],
      "name": "name",
      "outputs": [
        {
          "internalType": "string",
          "name": "",
          "type": "string"
        }
      ],
      "stateMutability": "view",
      "type": "function"
    },
    {
      "inputs": [],
      "name": "nftContract",
      "outputs": [
        {
          "internalType": "contract IERC1155",
          "name": "",
          "type": "address"
        }
      ],
      "stateMutability": "view",
      "type": "function"
    },
    {
      "inputs": [
        {
          "internalType": "address",
          "name": "owner",
          "type": "address"
        }
      ],
      "name": "nonces",
      "outputs": [
        {
          "internalType": "uint256",
          "name": "",
          "type": "uint256"
        }
      ],
      "stateMutability": "view",
      "type": "function"
    },
    {
      "inputs": [
        {
          "internalType": "address",
          "name": "account",
          "type": "address"
        }
      ],
      "name": "numCheckpoints",
      "outputs": [
        {
          "internalType": "uint32",
          "name": "",
          "type": "uint32"
        }
      ],
      "stateMutability": "view",
      "type": "function"
    },
    {
      "inputs": [],
      "name": "owner",
      "outputs": [
        {
          "internalType": "address",
          "name": "",
          "type": "address"
        }
      ],
      "stateMutability": "view",
      "type": "function"
    },
    {
      "inputs": [
        {
          "internalType": "address",
          "name": "owner",
          "type": "address"
        },
        {
          "internalType": "address",
          "name": "spender",
          "type": "address"
        },
        {
          "internalType": "uint256",
          "name": "value",
          "type": "uint256"
        },
        {
          "internalType": "uint256",
          "name": "deadline",
          "type": "uint256"
        },
        {
          "internalType": "uint8",
          "name": "v",
          "type": "uint8"
        },
        {
          "internalType": "bytes32",
          "name": "r",
          "type": "bytes32"
        },
        {
          "internalType": "bytes32",
          "name": "s",
          "type": "bytes32"
        }
      ],
      "name": "permit",
      "outputs": [],
      "stateMutability": "nonpayable",
      "type": "function"
    },
    {
      "inputs": [],
      "name": "renounceOwnership",
      "outputs": [],
      "stateMutability": "nonpayable",
      "type": "function"
    },
    {
      "inputs": [],
      "name": "symbol",
      "outputs": [
        {
          "internalType": "string",
          "name": "",
          "type": "string"
        }
      ],
      "stateMutability": "view",
      "type": "function"
    },
    {
      "inputs": [],
      "name": "totalSupply",
      "outputs": [
        {
          "internalType": "uint256",
          "name": "",
          "type": "uint256"
        }
      ],
      "stateMutability": "view",
      "type": "function"
    },
    {
      "inputs": [
        {
          "internalType": "address",
          "name": "to",
          "type": "address"
        },
        {
          "internalType": "uint256",
          "name": "amount",
          "type": "uint256"
        }
      ],
      "name": "transfer",
      "outputs": [
        {
          "internalType": "bool",
          "name": "",
          "type": "bool"
        }
      ],
      "stateMutability": "nonpayable",
      "type": "function"
    },
    {
      "inputs": [
        {
          "internalType": "address",
          "name": "from",
          "type": "address"
        },
        {
          "internalType": "address",
          "name": "to",
          "type": "address"
        },
        {
          "internalType": "uint256",
          "name": "amount",
          "type": "uint256"
        }
      ],
      "name": "transferFrom",
      "outputs": [
        {
          "internalType": "bool",
          "name": "",
          "type": "bool"
        }
      ],
      "stateMutability": "nonpayable",
      "type": "function"
    },
    {
      "inputs": [
        {
          "internalType": "address",
          "name": "newOwner",
          "type": "address"
        }
      ],
      "name": "transferOwnership",
      "outputs": [],
      "stateMutability": "nonpayable",
      "type": "function"
    }
  ],
  "bytecode": "0x6101606040527f6e71edae12b1b97f4d1f60370fef10105fa2faae0126114a169c64845d6126c9610140908152503480156200003a57600080fd5b506040516200540d3803806200540d833981810160405281019062000060919062000dc1565b6040518060400160405280600f81526020017f5061746873324162756e64616e63650000000000000000000000000000000000815250806040518060400160405280600181526020017f31000000000000000000000000000000000000000000000000000000000000008152506040518060400160405280600f81526020017f5061746873324162756e64616e636500000000000000000000000000000000008152506040518060400160405280600481526020017f504154480000000000000000000000000000000000000000000000000000000081525081600390805190602001906200015192919062000cfa565b5080600490805190602001906200016a92919062000cfa565b5050506200018d620001816200025c60201b60201c565b6200026460201b60201c565b60008280519060200120905060008280519060200120905060007f8b73c3c69bb8fe3d512ecc4cf759cc79239f7b179b0ffacaa9a75d522b39400f90508260e081815250508161010081815250504660a08181525050620001f68184846200032a60201b60201c565b608081815250503073ffffffffffffffffffffffffffffffffffffffff1660c08173ffffffffffffffffffffffffffffffffffffffff1660601b815250508061012081815250505050505050506200025533826200036660201b60201c565b50620012a0565b600033905090565b6000600560009054906101000a900473ffffffffffffffffffffffffffffffffffffffff16905081600560006101000a81548173ffffffffffffffffffffffffffffffffffffffff021916908373ffffffffffffffffffffffffffffffffffffffff1602179055508173ffffffffffffffffffffffffffffffffffffffff168173ffffffffffffffffffffffffffffffffffffffff167f8be0079c531659141344cd1fd0a4f28419497f9722a3daafe3b4186f6b6457e060405160405180910390a35050565b600083838346306040516020016200034795949392919062000ebc565b6040516020818303038152906040528051906020012090509392505050565b6200037d82826200038160201b6200141d1760201c565b5050565b6200039882826200043f60201b620014aa1760201c565b620003a8620005b860201b60201c565b7bffffffffffffffffffffffffffffffffffffffffffffffffffffffff16620003d6620005dc60201b60201c565b11156200041a576040517f08c379a0000000000000000000000000000000000000000000000000000000008152600401620004119062000f19565b60405180910390fd5b620004396009620005e660201b6200160a1783620005fe60201b60201c565b50505050565b600073ffffffffffffffffffffffffffffffffffffffff168273ffffffffffffffffffffffffffffffffffffffff161415620004b2576040517f08c379a0000000000000000000000000000000000000000000000000000000008152600401620004a99062000f7f565b60405180910390fd5b620004c6600083836200091b60201b60201c565b8060026000828254620004da919062000ffc565b92505081905550806000808473ffffffffffffffffffffffffffffffffffffffff1673ffffffffffffffffffffffffffffffffffffffff168152602001908152602001600020600082825462000531919062000ffc565b925050819055508173ffffffffffffffffffffffffffffffffffffffff16600073ffffffffffffffffffffffffffffffffffffffff167fddf252ad1be2c89b69c2b068fc378daa952ba7f163c4a11628f55a4df523b3ef8360405162000598919062000fa1565b60405180910390a3620005b4600083836200092060201b60201c565b5050565b60007bffffffffffffffffffffffffffffffffffffffffffffffffffffffff905090565b6000600254905090565b60008183620005f6919062000ffc565b905092915050565b6000806000858054905090506000811462000697578560018262000623919062001059565b815481106200065b577f4e487b7100000000000000000000000000000000000000000000000000000000600052603260045260246000fd5b9060005260206000200160000160049054906101000a90047bffffffffffffffffffffffffffffffffffffffffffffffffffffffff166200069a565b60005b7bffffffffffffffffffffffffffffffffffffffffffffffffffffffff169250620006c683858760201c565b91506000811180156200074357504386600183620006e5919062001059565b815481106200071d577f4e487b7100000000000000000000000000000000000000000000000000000000600052603260045260246000fd5b9060005260206000200160000160009054906101000a900463ffffffff1663ffffffff16145b1562000808576200075f826200093d60201b620016201760201c565b866001836200076f919062001059565b81548110620007a7577f4e487b7100000000000000000000000000000000000000000000000000000000600052603260045260246000fd5b9060005260206000200160000160046101000a8154817bffffffffffffffffffffffffffffffffffffffffffffffffffffffff02191690837bffffffffffffffffffffffffffffffffffffffffffffffffffffffff16021790555062000912565b8560405180604001604052806200082a43620009ab60201b6200168b1760201c565b63ffffffff1681526020016200084b856200093d60201b620016201760201c565b7bffffffffffffffffffffffffffffffffffffffffffffffffffffffff168152509080600181540180825580915050600190039060005260206000200160009091909190915060008201518160000160006101000a81548163ffffffff021916908363ffffffff16021790555060208201518160000160046101000a8154817bffffffffffffffffffffffffffffffffffffffffffffffffffffffff02191690837bffffffffffffffffffffffffffffffffffffffffffffffffffffffff16021790555050505b50935093915050565b505050565b6200093883838362000a0160201b620016de1760201c565b505050565b60007bffffffffffffffffffffffffffffffffffffffffffffffffffffffff8016821115620009a3576040517f08c379a00000000000000000000000000000000000000000000000000000000081526004016200099a9062000f3b565b60405180910390fd5b819050919050565b600063ffffffff8016821115620009f9576040517f08c379a0000000000000000000000000000000000000000000000000000000008152600401620009f09062000f5d565b60405180910390fd5b819050919050565b62000a1983838362000a5160201b620017091760201c565b62000a4c62000a2e8462000a5660201b60201c565b62000a3f8462000a5660201b60201c565b8362000abf60201b60201c565b505050565b505050565b6000600760008373ffffffffffffffffffffffffffffffffffffffff1673ffffffffffffffffffffffffffffffffffffffff16815260200190815260200160002060009054906101000a900473ffffffffffffffffffffffffffffffffffffffff169050919050565b8173ffffffffffffffffffffffffffffffffffffffff168373ffffffffffffffffffffffffffffffffffffffff161415801562000afc5750600081115b1562000cdd57600073ffffffffffffffffffffffffffffffffffffffff168373ffffffffffffffffffffffffffffffffffffffff161462000bef5760008062000b96600860008773ffffffffffffffffffffffffffffffffffffffff1673ffffffffffffffffffffffffffffffffffffffff16815260200190815260200160002062000ce260201b6200170e1785620005fe60201b60201c565b915091508473ffffffffffffffffffffffffffffffffffffffff167fdec2bacdd2f05b59de34da9b523dff8be42e5e38e818c82fdb0bae774387a724838360405162000be492919062000fbe565b60405180910390a250505b600073ffffffffffffffffffffffffffffffffffffffff168273ffffffffffffffffffffffffffffffffffffffff161462000cdc5760008062000c83600860008673ffffffffffffffffffffffffffffffffffffffff1673ffffffffffffffffffffffffffffffffffffffff168152602001908152602001600020620005e660201b6200160a1785620005fe60201b60201c565b915091508373ffffffffffffffffffffffffffffffffffffffff167fdec2bacdd2f05b59de34da9b523dff8be42e5e38e818c82fdb0bae774387a724838360405162000cd192919062000fbe565b60405180910390a250505b5b505050565b6000818362000cf2919062001059565b905092915050565b82805462000d0890620010dc565b90600052602060002090601f01602090048101928262000d2c576000855562000d78565b82601f1062000d4757805160ff191683800117855562000d78565b8280016001018555821562000d78579182015b8281111562000d7757825182559160200191906001019062000d5a565b5b50905062000d87919062000d8b565b5090565b5b8082111562000da657600081600090555060010162000d8c565b5090565b60008151905062000dbb8162001286565b92915050565b60006020828403121562000dd457600080fd5b600062000de48482850162000daa565b91505092915050565b62000df88162001094565b82525050565b62000e0981620010a8565b82525050565b600062000e1e60308362000feb565b915062000e2b8262001170565b604082019050919050565b600062000e4560278362000feb565b915062000e5282620011bf565b604082019050919050565b600062000e6c60268362000feb565b915062000e79826200120e565b604082019050919050565b600062000e93601f8362000feb565b915062000ea0826200125d565b602082019050919050565b62000eb681620010d2565b82525050565b600060a08201905062000ed3600083018862000dfe565b62000ee2602083018762000dfe565b62000ef1604083018662000dfe565b62000f00606083018562000eab565b62000f0f608083018462000ded565b9695505050505050565b6000602082019050818103600083015262000f348162000e0f565b9050919050565b6000602082019050818103600083015262000f568162000e36565b9050919050565b6000602082019050818103600083015262000f788162000e5d565b9050919050565b6000602082019050818103600083015262000f9a8162000e84565b9050919050565b600060208201905062000fb8600083018462000eab565b92915050565b600060408201905062000fd5600083018562000eab565b62000fe4602083018462000eab565b9392505050565b600082825260208201905092915050565b60006200100982620010d2565b91506200101683620010d2565b9250827fffffffffffffffffffffffffffffffffffffffffffffffffffffffffffffffff038211156200104e576200104d62001112565b5b828201905092915050565b60006200106682620010d2565b91506200107383620010d2565b92508282101562001089576200108862001112565b5b828203905092915050565b6000620010a182620010b2565b9050919050565b6000819050919050565b600073ffffffffffffffffffffffffffffffffffffffff82169050919050565b6000819050919050565b60006002820490506001821680620010f557607f821691505b602082108114156200110c576200110b62001141565b5b50919050565b7f4e487b7100000000000000000000000000000000000000000000000000000000600052601160045260246000fd5b7f4e487b7100000000000000000000000000000000000000000000000000000000600052602260045260246000fd5b7f4552433230566f7465733a20746f74616c20737570706c79207269736b73206f60008201527f766572666c6f77696e6720766f74657300000000000000000000000000000000602082015250565b7f53616665436173743a2076616c756520646f65736e27742066697420696e203260008201527f3234206269747300000000000000000000000000000000000000000000000000602082015250565b7f53616665436173743a2076616c756520646f65736e27742066697420696e203360008201527f3220626974730000000000000000000000000000000000000000000000000000602082015250565b7f45524332303a206d696e7420746f20746865207a65726f206164647265737300600082015250565b6200129181620010d2565b81146200129d57600080fd5b50565b60805160a05160c05160601c60e05161010051610120516101405161410f620012fe6000396000610f8701526000611cb201526000611cf401526000611cd301526000611c0801526000611c5e01526000611c87015261410f6000f3fe608060405234801561001057600080fd5b50600436106101c45760003560e01c80637ecebe00116100f9578063c3cda52011610097578063dd62ed3e11610071578063dd62ed3e14610555578063e017b58914610585578063f1127ed8146105a1578063f2fde38b146105d1576101c4565b8063c3cda520146104ff578063d505accf1461051b578063d56d229d14610537576101c4565b806395d89b41116100d357806395d89b41146104515780639ab24eb01461046f578063a457c2d71461049f578063a9059cbb146104cf576101c4565b80637ecebe00146103d35780638da5cb5b146104035780638e539e8c14610421576101c4565b80633a46b1a8116101665780635c19a95c116101405780635c19a95c1461034d5780636fcfff451461036957806370a0823114610399578063715018a6146103c9576101c4565b80633a46b1a8146102d157806340c10f1914610301578063587cde1e1461031d576101c4565b806323b872dd116101a257806323b872dd14610235578063313ce567146102655780633644e5151461028357806339509351146102a1576101c4565b806306fdde03146101c9578063095ea7b3146101e757806318160ddd14610217575b600080fd5b6101d16105ed565b6040516101de91906134a5565b60405180910390f35b61020160048036038101906101fc9190612d46565b61067f565b60405161020e9190613316565b60405180910390f35b61021f6106a2565b60405161022c91906137a2565b60405180910390f35b61024f600480360381019061024a9190612c59565b6106ac565b60405161025c9190613316565b60405180910390f35b61026d6106db565b60405161027a9190613801565b60405180910390f35b61028b6106e4565b6040516102989190613331565b60405180910390f35b6102bb60048036038101906102b69190612d46565b6106f3565b6040516102c89190613316565b60405180910390f35b6102eb60048036038101906102e69190612d46565b61079d565b6040516102f891906137a2565b60405180910390f35b61031b60048036038101906103169190612d46565b610831565b005b61033760048036038101906103329190612bf4565b6108f5565b60405161034491906132fb565b60405180910390f35b61036760048036038101906103629190612bf4565b61095e565b005b610383600480360381019061037e9190612bf4565b610972565b60405161039091906137e6565b60405180910390f35b6103b360048036038101906103ae9190612bf4565b6109c6565b6040516103c091906137a2565b60405180910390f35b6103d1610a0e565b005b6103ed60048036038101906103e89190612bf4565b610a96565b6040516103fa91906137a2565b60405180910390f35b61040b610ae6565b60405161041891906132fb565b60405180910390f35b61043b60048036038101906104369190612e70565b610b10565b60405161044891906137a2565b60405180910390f35b610459610b66565b60405161046691906134a5565b60405180910390f35b61048960048036038101906104849190612bf4565b610bf8565b60405161049691906137a2565b60405180910390f35b6104b960048036038101906104b49190612d46565b610d2f565b6040516104c69190613316565b60405180910390f35b6104e960048036038101906104e49190612d46565b610e19565b6040516104f69190613316565b60405180910390f35b61051960048036038101906105149190612d82565b610e3c565b005b61053560048036038101906105309190612ca8565b610f40565b005b61053f611082565b60405161054c919061348a565b60405180910390f35b61056f600480360381019061056a9190612c1d565b6110a8565b60405161057c91906137a2565b60405180910390f35b61059f600480360381019061059a9190612e47565b61112f565b005b6105bb60048036038101906105b69190612e0b565b6111ef565b6040516105c89190613787565b60405180910390f35b6105eb60048036038101906105e69190612bf4565b611325565b005b6060600380546105fc906139fe565b80601f0160208091040260200160405190810160405280929190818152602001828054610628906139fe565b80156106755780601f1061064a57610100808354040283529160200191610675565b820191906000526020600020905b81548152906001019060200180831161065857829003601f168201915b5050505050905090565b60008061068a611724565b905061069781858561172c565b600191505092915050565b6000600254905090565b6000806106b7611724565b90506106c48582856118f7565b6106cf858585611983565b60019150509392505050565b60006012905090565b60006106ee611c04565b905090565b6000806106fe611724565b9050610792818585600160008673ffffffffffffffffffffffffffffffffffffffff1673ffffffffffffffffffffffffffffffffffffffff16815260200190815260200160002060008973ffffffffffffffffffffffffffffffffffffffff1673ffffffffffffffffffffffffffffffffffffffff1681526020019081526020016000205461078d9190613843565b61172c565b600191505092915050565b60004382106107e1576040517f08c379a00000000000000000000000000000000000000000000000000000000081526004016107d890613507565b60405180910390fd5b610829600860008573ffffffffffffffffffffffffffffffffffffffff1673ffffffffffffffffffffffffffffffffffffffff16815260200190815260200160002083611d1e565b905092915050565b600073ffffffffffffffffffffffffffffffffffffffff16600a60009054906101000a900473ffffffffffffffffffffffffffffffffffffffff1673ffffffffffffffffffffffffffffffffffffffff16141561088d57600080fd5b600a60009054906101000a900473ffffffffffffffffffffffffffffffffffffffff1673ffffffffffffffffffffffffffffffffffffffff163373ffffffffffffffffffffffffffffffffffffffff16146108e757600080fd5b6108f18282611e76565b5050565b6000600760008373ffffffffffffffffffffffffffffffffffffffff1673ffffffffffffffffffffffffffffffffffffffff16815260200190815260200160002060009054906101000a900473ffffffffffffffffffffffffffffffffffffffff169050919050565b61096f610969611724565b82611e84565b50565b60006109bf600860008473ffffffffffffffffffffffffffffffffffffffff1673ffffffffffffffffffffffffffffffffffffffff1681526020019081526020016000208054905061168b565b9050919050565b60008060008373ffffffffffffffffffffffffffffffffffffffff1673ffffffffffffffffffffffffffffffffffffffff168152602001908152602001600020549050919050565b610a16611724565b73ffffffffffffffffffffffffffffffffffffffff16610a34610ae6565b73ffffffffffffffffffffffffffffffffffffffff1614610a8a576040517f08c379a0000000000000000000000000000000000000000000000000000000008152600401610a81906136a7565b60405180910390fd5b610a946000611f9e565b565b6000610adf600660008473ffffffffffffffffffffffffffffffffffffffff1673ffffffffffffffffffffffffffffffffffffffff168152602001908152602001600020612064565b9050919050565b6000600560009054906101000a900473ffffffffffffffffffffffffffffffffffffffff16905090565b6000438210610b54576040517f08c379a0000000000000000000000000000000000000000000000000000000008152600401610b4b90613507565b60405180910390fd5b610b5f600983611d1e565b9050919050565b606060048054610b75906139fe565b80601f0160208091040260200160405190810160405280929190818152602001828054610ba1906139fe565b8015610bee5780601f10610bc357610100808354040283529160200191610bee565b820191906000526020600020905b815481529060010190602001808311610bd157829003601f168201915b5050505050905090565b600080600860008473ffffffffffffffffffffffffffffffffffffffff1673ffffffffffffffffffffffffffffffffffffffff16815260200190815260200160002080549050905060008114610d0657600860008473ffffffffffffffffffffffffffffffffffffffff1673ffffffffffffffffffffffffffffffffffffffff168152602001908152602001600020600182610c9491906138ca565b81548110610ccb577f4e487b7100000000000000000000000000000000000000000000000000000000600052603260045260246000fd5b9060005260206000200160000160049054906101000a90047bffffffffffffffffffffffffffffffffffffffffffffffffffffffff16610d09565b60005b7bffffffffffffffffffffffffffffffffffffffffffffffffffffffff16915050919050565b600080610d3a611724565b90506000600160008373ffffffffffffffffffffffffffffffffffffffff1673ffffffffffffffffffffffffffffffffffffffff16815260200190815260200160002060008673ffffffffffffffffffffffffffffffffffffffff1673ffffffffffffffffffffffffffffffffffffffff16815260200190815260200160002054905083811015610e00576040517f08c379a0000000000000000000000000000000000000000000000000000000008152600401610df790613747565b60405180910390fd5b610e0d828686840361172c565b60019250505092915050565b600080610e24611724565b9050610e31818585611983565b600191505092915050565b83421115610e7f576040517f08c379a0000000000000000000000000000000000000000000000000000000008152600401610e7690613527565b60405180910390fd5b6000610ee1610ed97fe48329057bfd03d55e49b547132e39cffd9c1820ad7b9d4c5307691425d15adf898989604051602001610ebe94939291906133ad565b60405160208183030381529060405280519060200120612072565b85858561208c565b9050610eec816120b7565b8614610f2d576040517f08c379a0000000000000000000000000000000000000000000000000000000008152600401610f2490613567565b60405180910390fd5b610f378188611e84565b50505050505050565b83421115610f83576040517f08c379a0000000000000000000000000000000000000000000000000000000008152600401610f7a906135e7565b60405180910390fd5b60007f0000000000000000000000000000000000000000000000000000000000000000888888610fb28c6120b7565b89604051602001610fc89695949392919061334c565b6040516020818303038152906040528051906020012090506000610feb82612072565b90506000610ffb8287878761208c565b90508973ffffffffffffffffffffffffffffffffffffffff168173ffffffffffffffffffffffffffffffffffffffff161461106b576040517f08c379a000000000000000000000000000000000000000000000000000000000815260040161106290613667565b60405180910390fd5b6110768a8a8a61172c565b50505050505050505050565b600a60009054906101000a900473ffffffffffffffffffffffffffffffffffffffff1681565b6000600160008473ffffffffffffffffffffffffffffffffffffffff1673ffffffffffffffffffffffffffffffffffffffff16815260200190815260200160002060008373ffffffffffffffffffffffffffffffffffffffff1673ffffffffffffffffffffffffffffffffffffffff16815260200190815260200160002054905092915050565b611137611724565b73ffffffffffffffffffffffffffffffffffffffff16611155610ae6565b73ffffffffffffffffffffffffffffffffffffffff16146111ab576040517f08c379a00000000000000000000000000000000000000000000000000000000081526004016111a2906136a7565b60405180910390fd5b80600a60006101000a81548173ffffffffffffffffffffffffffffffffffffffff021916908373ffffffffffffffffffffffffffffffffffffffff16021790555050565b6111f7612b38565b600860008473ffffffffffffffffffffffffffffffffffffffff1673ffffffffffffffffffffffffffffffffffffffff1681526020019081526020016000208263ffffffff1681548110611274577f4e487b7100000000000000000000000000000000000000000000000000000000600052603260045260246000fd5b906000526020600020016040518060400160405290816000820160009054906101000a900463ffffffff1663ffffffff1663ffffffff1681526020016000820160049054906101000a90047bffffffffffffffffffffffffffffffffffffffffffffffffffffffff167bffffffffffffffffffffffffffffffffffffffffffffffffffffffff167bffffffffffffffffffffffffffffffffffffffffffffffffffffffff1681525050905092915050565b61132d611724565b73ffffffffffffffffffffffffffffffffffffffff1661134b610ae6565b73ffffffffffffffffffffffffffffffffffffffff16146113a1576040517f08c379a0000000000000000000000000000000000000000000000000000000008152600401611398906136a7565b60405180910390fd5b600073ffffffffffffffffffffffffffffffffffffffff168173ffffffffffffffffffffffffffffffffffffffff161415611411576040517f08c379a000000000000000000000000000000000000000000000000000000000815260040161140890613587565b60405180910390fd5b61141a81611f9e565b50565b61142782826114aa565b61142f612115565b7bffffffffffffffffffffffffffffffffffffffffffffffffffffffff166114556106a2565b1115611496576040517f08c379a000000000000000000000000000000000000000000000000000000000815260040161148d90613687565b60405180910390fd5b6114a4600961160a83612139565b50505050565b600073ffffffffffffffffffffffffffffffffffffffff168273ffffffffffffffffffffffffffffffffffffffff16141561151a576040517f08c379a000000000000000000000000000000000000000000000000000000000815260040161151190613767565b60405180910390fd5b61152660008383612423565b80600260008282546115389190613843565b92505081905550806000808473ffffffffffffffffffffffffffffffffffffffff1673ffffffffffffffffffffffffffffffffffffffff168152602001908152602001600020600082825461158d9190613843565b925050819055508173ffffffffffffffffffffffffffffffffffffffff16600073ffffffffffffffffffffffffffffffffffffffff167fddf252ad1be2c89b69c2b068fc378daa952ba7f163c4a11628f55a4df523b3ef836040516115f291906137a2565b60405180910390a361160660008383612428565b5050565b600081836116189190613843565b905092915050565b60007bffffffffffffffffffffffffffffffffffffffffffffffffffffffff8016821115611683576040517f08c379a000000000000000000000000000000000000000000000000000000000815260040161167a906136c7565b60405180910390fd5b819050919050565b600063ffffffff80168211156116d6576040517f08c379a00000000000000000000000000000000000000000000000000000000081526004016116cd90613707565b60405180910390fd5b819050919050565b6116e9838383611709565b6117046116f5846108f5565b6116fe846108f5565b83612438565b505050565b505050565b6000818361171c91906138ca565b905092915050565b600033905090565b600073ffffffffffffffffffffffffffffffffffffffff168373ffffffffffffffffffffffffffffffffffffffff16141561179c576040517f08c379a000000000000000000000000000000000000000000000000000000000815260040161179390613727565b60405180910390fd5b600073ffffffffffffffffffffffffffffffffffffffff168273ffffffffffffffffffffffffffffffffffffffff16141561180c576040517f08c379a0000000000000000000000000000000000000000000000000000000008152600401611803906135a7565b60405180910390fd5b80600160008573ffffffffffffffffffffffffffffffffffffffff1673ffffffffffffffffffffffffffffffffffffffff16815260200190815260200160002060008473ffffffffffffffffffffffffffffffffffffffff1673ffffffffffffffffffffffffffffffffffffffff168152602001908152602001600020819055508173ffffffffffffffffffffffffffffffffffffffff168373ffffffffffffffffffffffffffffffffffffffff167f8c5be1e5ebec7d5bd14f71427d1e84f3dd0314c0f7b2291e5b200ac8c7c3b925836040516118ea91906137a2565b60405180910390a3505050565b600061190384846110a8565b90507fffffffffffffffffffffffffffffffffffffffffffffffffffffffffffffffff811461197d578181101561196f576040517f08c379a0000000000000000000000000000000000000000000000000000000008152600401611966906135c7565b60405180910390fd5b61197c848484840361172c565b5b50505050565b600073ffffffffffffffffffffffffffffffffffffffff168373ffffffffffffffffffffffffffffffffffffffff1614156119f3576040517f08c379a00000000000000000000000000000000000000000000000000000000081526004016119ea906136e7565b60405180910390fd5b600073ffffffffffffffffffffffffffffffffffffffff168273ffffffffffffffffffffffffffffffffffffffff161415611a63576040517f08c379a0000000000000000000000000000000000000000000000000000000008152600401611a5a906134e7565b60405180910390fd5b611a6e838383612423565b60008060008573ffffffffffffffffffffffffffffffffffffffff1673ffffffffffffffffffffffffffffffffffffffff16815260200190815260200160002054905081811015611af4576040517f08c379a0000000000000000000000000000000000000000000000000000000008152600401611aeb90613607565b60405180910390fd5b8181036000808673ffffffffffffffffffffffffffffffffffffffff1673ffffffffffffffffffffffffffffffffffffffff16815260200190815260200160002081905550816000808573ffffffffffffffffffffffffffffffffffffffff1673ffffffffffffffffffffffffffffffffffffffff1681526020019081526020016000206000828254611b879190613843565b925050819055508273ffffffffffffffffffffffffffffffffffffffff168473ffffffffffffffffffffffffffffffffffffffff167fddf252ad1be2c89b69c2b068fc378daa952ba7f163c4a11628f55a4df523b3ef84604051611beb91906137a2565b60405180910390a3611bfe848484612428565b50505050565b60007f000000000000000000000000000000000000000000000000000000000000000073ffffffffffffffffffffffffffffffffffffffff163073ffffffffffffffffffffffffffffffffffffffff16148015611c8057507f000000000000000000000000000000000000000000000000000000000000000046145b15611cad577f00000000000000000000000000000000000000000000000000000000000000009050611d1b565b611d187f00000000000000000000000000000000000000000000000000000000000000007f00000000000000000000000000000000000000000000000000000000000000007f0000000000000000000000000000000000000000000000000000000000000000612631565b90505b90565b6000808380549050905060005b81811015611dc3576000611d3f828461266b565b905084868281548110611d7b577f4e487b7100000000000000000000000000000000000000000000000000000000600052603260045260246000fd5b9060005260206000200160000160009054906101000a900463ffffffff1663ffffffff161115611dad57809250611dbd565b600181611dba9190613843565b91505b50611d2b565b60008214611e4b5784600183611dd991906138ca565b81548110611e10577f4e487b7100000000000000000000000000000000000000000000000000000000600052603260045260246000fd5b9060005260206000200160000160049054906101000a90047bffffffffffffffffffffffffffffffffffffffffffffffffffffffff16611e4e565b60005b7bffffffffffffffffffffffffffffffffffffffffffffffffffffffff169250505092915050565b611e80828261141d565b5050565b6000611e8f836108f5565b90506000611e9c846109c6565b905082600760008673ffffffffffffffffffffffffffffffffffffffff1673ffffffffffffffffffffffffffffffffffffffff16815260200190815260200160002060006101000a81548173ffffffffffffffffffffffffffffffffffffffff021916908373ffffffffffffffffffffffffffffffffffffffff1602179055508273ffffffffffffffffffffffffffffffffffffffff168273ffffffffffffffffffffffffffffffffffffffff168573ffffffffffffffffffffffffffffffffffffffff167f3134e8a2e6d97e929a7e54011ea5485d7d196dd5f0ba4d4ef95803e8e3fc257f60405160405180910390a4611f98828483612438565b50505050565b6000600560009054906101000a900473ffffffffffffffffffffffffffffffffffffffff16905081600560006101000a81548173ffffffffffffffffffffffffffffffffffffffff021916908373ffffffffffffffffffffffffffffffffffffffff1602179055508173ffffffffffffffffffffffffffffffffffffffff168173ffffffffffffffffffffffffffffffffffffffff167f8be0079c531659141344cd1fd0a4f28419497f9722a3daafe3b4186f6b6457e060405160405180910390a35050565b600081600001549050919050565b600061208561207f611c04565b83612691565b9050919050565b600080600061209d878787876126c4565b915091506120aa816127d1565b8192505050949350505050565b600080600660008473ffffffffffffffffffffffffffffffffffffffff1673ffffffffffffffffffffffffffffffffffffffff168152602001908152602001600020905061210481612064565b915061210f81612b22565b50919050565b60007bffffffffffffffffffffffffffffffffffffffffffffffffffffffff905090565b600080600085805490509050600081146121cd578560018261215b91906138ca565b81548110612192577f4e487b7100000000000000000000000000000000000000000000000000000000600052603260045260246000fd5b9060005260206000200160000160049054906101000a90047bffffffffffffffffffffffffffffffffffffffffffffffffffffffff166121d0565b60005b7bffffffffffffffffffffffffffffffffffffffffffffffffffffffff1692506121fe83858763ffffffff16565b91506000811180156122775750438660018361221a91906138ca565b81548110612251577f4e487b7100000000000000000000000000000000000000000000000000000000600052603260045260246000fd5b9060005260206000200160000160009054906101000a900463ffffffff1663ffffffff16145b1561232a5761228582611620565b8660018361229391906138ca565b815481106122ca577f4e487b7100000000000000000000000000000000000000000000000000000000600052603260045260246000fd5b9060005260206000200160000160046101000a8154817bffffffffffffffffffffffffffffffffffffffffffffffffffffffff02191690837bffffffffffffffffffffffffffffffffffffffffffffffffffffffff16021790555061241a565b85604051806040016040528061233f4361168b565b63ffffffff16815260200161235385611620565b7bffffffffffffffffffffffffffffffffffffffffffffffffffffffff168152509080600181540180825580915050600190039060005260206000200160009091909190915060008201518160000160006101000a81548163ffffffff021916908363ffffffff16021790555060208201518160000160046101000a8154817bffffffffffffffffffffffffffffffffffffffffffffffffffffffff02191690837bffffffffffffffffffffffffffffffffffffffffffffffffffffffff16021790555050505b50935093915050565b505050565b6124338383836116de565b505050565b8173ffffffffffffffffffffffffffffffffffffffff168373ffffffffffffffffffffffffffffffffffffffff16141580156124745750600081115b1561262c57600073ffffffffffffffffffffffffffffffffffffffff168373ffffffffffffffffffffffffffffffffffffffff1614612552576000806124fb600860008773ffffffffffffffffffffffffffffffffffffffff1673ffffffffffffffffffffffffffffffffffffffff16815260200190815260200160002061170e85612139565b915091508473ffffffffffffffffffffffffffffffffffffffff167fdec2bacdd2f05b59de34da9b523dff8be42e5e38e818c82fdb0bae774387a72483836040516125479291906137bd565b60405180910390a250505b600073ffffffffffffffffffffffffffffffffffffffff168273ffffffffffffffffffffffffffffffffffffffff161461262b576000806125d4600860008673ffffffffffffffffffffffffffffffffffffffff1673ffffffffffffffffffffffffffffffffffffffff16815260200190815260200160002061160a85612139565b915091508373ffffffffffffffffffffffffffffffffffffffff167fdec2bacdd2f05b59de34da9b523dff8be42e5e38e818c82fdb0bae774387a72483836040516126209291906137bd565b60405180910390a250505b5b505050565b6000838383463060405160200161264c9594939291906133f2565b6040516020818303038152906040528051906020012090509392505050565b6000600282841861267c9190613899565b8284166126899190613843565b905092915050565b600082826040516020016126a69291906132c4565b60405160208183030381529060405280519060200120905092915050565b6000807f7fffffffffffffffffffffffffffffff5d576e7357a4501ddfe92f46681b20a08360001c11156126ff5760006003915091506127c8565b601b8560ff16141580156127175750601c8560ff1614155b156127295760006004915091506127c8565b60006001878787876040516000815260200160405260405161274e9493929190613445565b6020604051602081039080840390855afa158015612770573d6000803e3d6000fd5b505050602060405103519050600073ffffffffffffffffffffffffffffffffffffffff168173ffffffffffffffffffffffffffffffffffffffff1614156127bf576000600192509250506127c8565b80600092509250505b94509492505050565b6000600481111561280b577f4e487b7100000000000000000000000000000000000000000000000000000000600052602160045260246000fd5b816004811115612844577f4e487b7100000000000000000000000000000000000000000000000000000000600052602160045260246000fd5b141561284f57612b1f565b60016004811115612889577f4e487b7100000000000000000000000000000000000000000000000000000000600052602160045260246000fd5b8160048111156128c2577f4e487b7100000000000000000000000000000000000000000000000000000000600052602160045260246000fd5b1415612903576040517f08c379a00000000000000000000000000000000000000000000000000000000081526004016128fa906134c7565b60405180910390fd5b6002600481111561293d577f4e487b7100000000000000000000000000000000000000000000000000000000600052602160045260246000fd5b816004811115612976577f4e487b7100000000000000000000000000000000000000000000000000000000600052602160045260246000fd5b14156129b7576040517f08c379a00000000000000000000000000000000000000000000000000000000081526004016129ae90613547565b60405180910390fd5b600360048111156129f1577f4e487b7100000000000000000000000000000000000000000000000000000000600052602160045260246000fd5b816004811115612a2a577f4e487b7100000000000000000000000000000000000000000000000000000000600052602160045260246000fd5b1415612a6b576040517f08c379a0000000000000000000000000000000000000000000000000000000008152600401612a6290613627565b60405180910390fd5b600480811115612aa4577f4e487b7100000000000000000000000000000000000000000000000000000000600052602160045260246000fd5b816004811115612add577f4e487b7100000000000000000000000000000000000000000000000000000000600052602160045260246000fd5b1415612b1e576040517f08c379a0000000000000000000000000000000000000000000000000000000008152600401612b1590613647565b60405180910390fd5b5b50565b6001816000016000828254019250508190555050565b6040518060400160405280600063ffffffff16815260200160007bffffffffffffffffffffffffffffffffffffffffffffffffffffffff1681525090565b600081359050612b858161404f565b92915050565b600081359050612b9a81614066565b92915050565b600081359050612baf8161407d565b92915050565b600081359050612bc481614094565b92915050565b600081359050612bd9816140ab565b92915050565b600081359050612bee816140c2565b92915050565b600060208284031215612c0657600080fd5b6000612c1484828501612b76565b91505092915050565b60008060408385031215612c3057600080fd5b6000612c3e85828601612b76565b9250506020612c4f85828601612b76565b9150509250929050565b600080600060608486031215612c6e57600080fd5b6000612c7c86828701612b76565b9350506020612c8d86828701612b76565b9250506040612c9e86828701612bb5565b9150509250925092565b600080600080600080600060e0888a031215612cc357600080fd5b6000612cd18a828b01612b76565b9750506020612ce28a828b01612b76565b9650506040612cf38a828b01612bb5565b9550506060612d048a828b01612bb5565b9450506080612d158a828b01612bdf565b93505060a0612d268a828b01612b8b565b92505060c0612d378a828b01612b8b565b91505092959891949750929550565b60008060408385031215612d5957600080fd5b6000612d6785828601612b76565b9250506020612d7885828601612bb5565b9150509250929050565b60008060008060008060c08789031215612d9b57600080fd5b6000612da989828a01612b76565b9650506020612dba89828a01612bb5565b9550506040612dcb89828a01612bb5565b9450506060612ddc89828a01612bdf565b9350506080612ded89828a01612b8b565b92505060a0612dfe89828a01612b8b565b9150509295509295509295565b60008060408385031215612e1e57600080fd5b6000612e2c85828601612b76565b9250506020612e3d85828601612bca565b9150509250929050565b600060208284031215612e5957600080fd5b6000612e6784828501612ba0565b91505092915050565b600060208284031215612e8257600080fd5b6000612e9084828501612bb5565b91505092915050565b612ea2816138fe565b82525050565b612eb181613910565b82525050565b612ec08161391c565b82525050565b612ed7612ed28261391c565b613a30565b82525050565b612ee6816139a7565b82525050565b6000612ef78261381c565b612f018185613827565b9350612f118185602086016139cb565b612f1a81613ac7565b840191505092915050565b6000612f32601883613827565b9150612f3d82613ad8565b602082019050919050565b6000612f55602383613827565b9150612f6082613b01565b604082019050919050565b6000612f78601f83613827565b9150612f8382613b50565b602082019050919050565b6000612f9b601d83613827565b9150612fa682613b79565b602082019050919050565b6000612fbe601f83613827565b9150612fc982613ba2565b602082019050919050565b6000612fe1601983613827565b9150612fec82613bcb565b602082019050919050565b6000613004602683613827565b915061300f82613bf4565b604082019050919050565b6000613027602283613827565b915061303282613c43565b604082019050919050565b600061304a600283613838565b915061305582613c92565b600282019050919050565b600061306d601d83613827565b915061307882613cbb565b602082019050919050565b6000613090601d83613827565b915061309b82613ce4565b602082019050919050565b60006130b3602683613827565b91506130be82613d0d565b604082019050919050565b60006130d6602283613827565b91506130e182613d5c565b604082019050919050565b60006130f9602283613827565b915061310482613dab565b604082019050919050565b600061311c601e83613827565b915061312782613dfa565b602082019050919050565b600061313f603083613827565b915061314a82613e23565b604082019050919050565b6000613162602083613827565b915061316d82613e72565b602082019050919050565b6000613185602783613827565b915061319082613e9b565b604082019050919050565b60006131a8602583613827565b91506131b382613eea565b604082019050919050565b60006131cb602683613827565b91506131d682613f39565b604082019050919050565b60006131ee602483613827565b91506131f982613f88565b604082019050919050565b6000613211602583613827565b915061321c82613fd7565b604082019050919050565b6000613234601f83613827565b915061323f82614026565b602082019050919050565b6040820160008201516132606000850182613297565b5060208201516132736020850182613279565b50505050565b61328281613958565b82525050565b61329181613980565b82525050565b6132a08161398a565b82525050565b6132af8161398a565b82525050565b6132be8161399a565b82525050565b60006132cf8261303d565b91506132db8285612ec6565b6020820191506132eb8284612ec6565b6020820191508190509392505050565b60006020820190506133106000830184612e99565b92915050565b600060208201905061332b6000830184612ea8565b92915050565b60006020820190506133466000830184612eb7565b92915050565b600060c0820190506133616000830189612eb7565b61336e6020830188612e99565b61337b6040830187612e99565b6133886060830186613288565b6133956080830185613288565b6133a260a0830184613288565b979650505050505050565b60006080820190506133c26000830187612eb7565b6133cf6020830186612e99565b6133dc6040830185613288565b6133e96060830184613288565b95945050505050565b600060a0820190506134076000830188612eb7565b6134146020830187612eb7565b6134216040830186612eb7565b61342e6060830185613288565b61343b6080830184612e99565b9695505050505050565b600060808201905061345a6000830187612eb7565b61346760208301866132b5565b6134746040830185612eb7565b6134816060830184612eb7565b95945050505050565b600060208201905061349f6000830184612edd565b92915050565b600060208201905081810360008301526134bf8184612eec565b905092915050565b600060208201905081810360008301526134e081612f25565b9050919050565b6000602082019050818103600083015261350081612f48565b9050919050565b6000602082019050818103600083015261352081612f6b565b9050919050565b6000602082019050818103600083015261354081612f8e565b9050919050565b6000602082019050818103600083015261356081612fb1565b9050919050565b6000602082019050818103600083015261358081612fd4565b9050919050565b600060208201905081810360008301526135a081612ff7565b9050919050565b600060208201905081810360008301526135c08161301a565b9050919050565b600060208201905081810360008301526135e081613060565b9050919050565b6000602082019050818103600083015261360081613083565b9050919050565b60006020820190508181036000830152613620816130a6565b9050919050565b60006020820190508181036000830152613640816130c9565b9050919050565b60006020820190508181036000830152613660816130ec565b9050919050565b600060208201905081810360008301526136808161310f565b9050919050565b600060208201905081810360008301526136a081613132565b9050919050565b600060208201905081810360008301526136c081613155565b9050919050565b600060208201905081810360008301526136e081613178565b9050919050565b600060208201905081810360008301526137008161319b565b9050919050565b60006020820190508181036000830152613720816131be565b9050919050565b60006020820190508181036000830152613740816131e1565b9050919050565b6000602082019050818103600083015261376081613204565b9050919050565b6000602082019050818103600083015261378081613227565b9050919050565b600060408201905061379c600083018461324a565b92915050565b60006020820190506137b76000830184613288565b92915050565b60006040820190506137d26000830185613288565b6137df6020830184613288565b9392505050565b60006020820190506137fb60008301846132a6565b92915050565b600060208201905061381660008301846132b5565b92915050565b600081519050919050565b600082825260208201905092915050565b600081905092915050565b600061384e82613980565b915061385983613980565b9250827fffffffffffffffffffffffffffffffffffffffffffffffffffffffffffffffff0382111561388e5761388d613a3a565b5b828201905092915050565b60006138a482613980565b91506138af83613980565b9250826138bf576138be613a69565b5b828204905092915050565b60006138d582613980565b91506138e083613980565b9250828210156138f3576138f2613a3a565b5b828203905092915050565b600061390982613938565b9050919050565b60008115159050919050565b6000819050919050565b6000613931826138fe565b9050919050565b600073ffffffffffffffffffffffffffffffffffffffff82169050919050565b60007bffffffffffffffffffffffffffffffffffffffffffffffffffffffff82169050919050565b6000819050919050565b600063ffffffff82169050919050565b600060ff82169050919050565b60006139b2826139b9565b9050919050565b60006139c482613938565b9050919050565b60005b838110156139e95780820151818401526020810190506139ce565b838111156139f8576000848401525b50505050565b60006002820490506001821680613a1657607f821691505b60208210811415613a2a57613a29613a98565b5b50919050565b6000819050919050565b7f4e487b7100000000000000000000000000000000000000000000000000000000600052601160045260246000fd5b7f4e487b7100000000000000000000000000000000000000000000000000000000600052601260045260246000fd5b7f4e487b7100000000000000000000000000000000000000000000000000000000600052602260045260246000fd5b6000601f19601f8301169050919050565b7f45434453413a20696e76616c6964207369676e61747572650000000000000000600082015250565b7f45524332303a207472616e7366657220746f20746865207a65726f206164647260008201527f6573730000000000000000000000000000000000000000000000000000000000602082015250565b7f4552433230566f7465733a20626c6f636b206e6f7420796574206d696e656400600082015250565b7f4552433230566f7465733a207369676e61747572652065787069726564000000600082015250565b7f45434453413a20696e76616c6964207369676e6174757265206c656e67746800600082015250565b7f4552433230566f7465733a20696e76616c6964206e6f6e636500000000000000600082015250565b7f4f776e61626c653a206e6577206f776e657220697320746865207a65726f206160008201527f6464726573730000000000000000000000000000000000000000000000000000602082015250565b7f45524332303a20617070726f766520746f20746865207a65726f20616464726560008201527f7373000000000000000000000000000000000000000000000000000000000000602082015250565b7f1901000000000000000000000000000000000000000000000000000000000000600082015250565b7f45524332303a20696e73756666696369656e7420616c6c6f77616e6365000000600082015250565b7f45524332305065726d69743a206578706972656420646561646c696e65000000600082015250565b7f45524332303a207472616e7366657220616d6f756e742065786365656473206260008201527f616c616e63650000000000000000000000000000000000000000000000000000602082015250565b7f45434453413a20696e76616c6964207369676e6174757265202773272076616c60008201527f7565000000000000000000000000000000000000000000000000000000000000602082015250565b7f45434453413a20696e76616c6964207369676e6174757265202776272076616c60008201527f7565000000000000000000000000000000000000000000000000000000000000602082015250565b7f45524332305065726d69743a20696e76616c6964207369676e61747572650000600082015250565b7f4552433230566f7465733a20746f74616c20737570706c79207269736b73206f60008201527f766572666c6f77696e6720766f74657300000000000000000000000000000000602082015250565b7f4f776e61626c653a2063616c6c6572206973206e6f7420746865206f776e6572600082015250565b7f53616665436173743a2076616c756520646f65736e27742066697420696e203260008201527f3234206269747300000000000000000000000000000000000000000000000000602082015250565b7f45524332303a207472616e736665722066726f6d20746865207a65726f20616460008201527f6472657373000000000000000000000000000000000000000000000000000000602082015250565b7f53616665436173743a2076616c756520646f65736e27742066697420696e203360008201527f3220626974730000000000000000000000000000000000000000000000000000602082015250565b7f45524332303a20617070726f76652066726f6d20746865207a65726f2061646460008201527f7265737300000000000000000000000000000000000000000000000000000000602082015250565b7f45524332303a2064656372656173656420616c6c6f77616e63652062656c6f7760008201527f207a65726f000000000000000000000000000000000000000000000000000000602082015250565b7f45524332303a206d696e7420746f20746865207a65726f206164647265737300600082015250565b614058816138fe565b811461406357600080fd5b50565b61406f8161391c565b811461407a57600080fd5b50565b61408681613926565b811461409157600080fd5b50565b61409d81613980565b81146140a857600080fd5b50565b6140b48161398a565b81146140bf57600080fd5b50565b6140cb8161399a565b81146140d657600080fd5b5056fea2646970667358221220a291af41ac96b25bcd9cf39d9a29ddf7a851660499ac87d354acac0cdc2caa3364736f6c63430008040033",
  "linkReferences": {},
  "deployedLinkReferences": {}
}